:020000040800F2
:1000000000000120150C0508B10C0508FDE10108F0
:1000100051E00108B10C0508B10C05080000000012
:10002000000000000000000000000000B10C050806
:10003000B10C050800000000B10C05089DD10008B6
:10004000B10C0508B10C0508B10C0508B10C050888
:10005000B10C0508B10C05083D9D0008459D000840
:100060004D9D0008559D00085D9D0008459B0008BA
:10007000559B0008659B0008759B0008899B00083C
:100080009D9B0008B19B0008B10C0508B10C050848
:10009000B10C0508B10C0508B10C0508659D0008F8
:1000A000E1C80008DDC70008F1C80008CDC7000896
:1000B00005C8000815C8000825C800087197000881
:1000C00065970008A597000899970008B10C0508E6
:1000D000B10C0508A90B0408B50B0408C10B0408F2
:1000E0006D9D0008B10C0508B10C050801C9000898
:1000F000B9C80008B10C0508A9C80008C59B0008CC
:10010000B10C050849BC000835C80008B10C050849
:10011000CD0B0408D90B040845C800086553040832
:10012000D99B0008ED9B0008019C0008159C000865
:10013000299C0008000000000000000000000000F2
:10014000000000000000000000000000AD480408AE
:100150003D9C0008519C0008659C0008E50B0408C4
:10016000D9970008CD970008B10C0508B10C050817
:10017000B10C0508B10C05080000000000000000EB
:10018000B10C0508B10C0508B10C0508B10C050847
:10019000B10C0508B10C050800000000B10C050801
:1001A000000000000000000000000000B10C050885
:1001B000B10C0508B10C05080000000000000000AB
:1001C000000000000000000000000000000000002F
:1001D000000000000000000000000000B10C050855
:10800000084A0346D0F8E4005268D3F8F010121A78
:1080100000209142B8BFC3F8F020012283F81C2150
:10802000704700BF001000E030B4046900234168CD
:108030004025E46882690C3154624469956053605C
:1080400093631160C2E90333C2E90533C2E9073320
:10805000C2E90A33C2E90C3394B1C2694FF48030EB
:10806000E468116054629062C2E90133C2E90333EB
:10807000C2E90533C2E90733C2E90B33C2E90D3364
:1080800030BC7047114A037A0168D35C10B4CC58F5
:10809000CA1824F00104CC501368DB07FCD4037D1C
:1080A0001F2B09D9203B20225DF8044B02FA03F371
:1080B00043F01803CB60704720225DF8044B02FAAE
:1080C00003F343F018038B60704700BF5C8A050818
:1080D0001B4B016803F57D7C02E02C3363452BD0FC
:1080E0001A688A42F9D170B593F804E0427996454E
:1080F0000BD02C33634505D01A688A42F4D02C3358
:108100006345F9D14FF0FF3070BD9E468468002270
:10811000DEF80C50A54208D001320EF10C0E032AF5
:10812000E7D0DEF80C50A542F6D1DEF81050C66854
:10813000B542F1D150B270BD4FF0FF30704700BF73
:10814000F81705084368426D30B49A61EFF3118265
:10815000502383F312884168D2B2856C0B68046D9A
:1081600023EA050323430B6082F311884369816886
:108170001A68096822F00102D0E908541A60826A7C
:108180001D605C615A60D0E90B429C60DA6000239C
:10819000B0F86C2030BCCA6203777047002A4FEAFF
:1081A000014C034630B508BFE64600F1C00514BFD8
:1081B0008E468C46002419680C3353F8042C43F87F
:1081C000084C41EA0C0142EA0E02AB4243F80C1C97
:1081D00043F8042CEFD1D0F8C03043EA0E03C0E9D5
:1081E0003144C0F8C03030BD83695969B3F810C05C
:1081F0000A6830B49C6822F0010224680A60E268D0
:1082000022EA0C02E260027D00681F2A06D9203AA9
:108210000824456894402C4242D0FEE708240568B3
:1082200094402C42F9D1202404FA02F28260254ABB
:108230001278002A32D01A7F012A36D0D3F80021D2
:108240000132C3F80021EFF31181502282F312882A
:108250005868C9B29D6C0268DC6C22EA05022243B0
:10826000026081F311885A699968D3E90D40096861
:1082700014605061D3E90F40546090605C6CB3F8B7
:10828000B400D4600124C8621068204310601A8AC8
:108290001C7783F8FD40CB681343CB6030BC70473C
:1082A000202404FA02F2C260C1E70022D3F80401DC
:1082B00083F8FD2001300A68C3F8040122F00102AE
:1082C0000A60EBE74C00002010B40C4C6368002BF4
:1082D00011DD002004F1080C0146DCF8AC3003F19C
:1082E000C00259600C339342FBD1013063680CF536
:1082F000867C8342F1DC5DF8044B70474C00002023
:10830000704700BF024B03EB401393F855047047CE
:108310004C000020B44BD3E9001270B58C0F93F8D9
:108320009050100EC2F3072C83F83840C1F38364D9
:108330000001012D83F83940C1F3016483F83A400C
:10834000C1F3074483F83B40C1F30724C9B283F863
:108350003C40C2F3035483F83D10D887C2F3C030C9
:10836000D98F89B241EA0401C2F30344D987C2F329
:10837000403183F84040C2F3803483F841004FF02D
:10838000000083F8424083F84310C2F3003183F8C1
:108390004410996883F8450040F2D680022D00F021
:1083A000B0802A204FEA4C0C83F85140C1F3C01230
:1083B00001F07F010CF07E0C83F852C04FF0010CED
:1083C00093F852401443DA6883F85240D40F83F88C
:1083D0005310910D83F85440C2F3417401F00C0125
:1083E000C2F3815583F85540C2F3826483F8564046
:1083F00083F8571093F857101C69294383F85710D6
:10840000C2F3405183F85810002183F85910C2F389
:10841000004183F85A10C2F3C03183F85B10C2F3F5
:10842000803183F85C10C2F3403183F85D10C2F3F1
:10843000003183F85E10C2F3812183F85F10C2F32C
:108440000121C2F3460283F86010C4F3074183F8A8
:108450006120220E090283F862C083F86420C4F30D
:108460000722A3F866102406B3F8661089B21143F8
:10847000A3F8661059699C660C0E9A6E42EA044293
:108480009A660A0A9C6E02F47F422243C1F30724D3
:10849000C9B29A669D6E9A692C439C6683F86C10EB
:1084A000110E83F86D10110C0906196711021C6F6B
:1084B0000A4601F47F01214392B2DC691967196F02
:1084C0000A431A67C4F30352196F41EA146119672A
:1084D00093F874101143C4F3072283F87410210A2F
:1084E00001F47061A3F87610B3F8761089B21143E5
:1084F000C4F34602A3F8761083F8782083F879C095
:1085000070BD1204C1F3072C0D0E02F47C129A64A4
:10851000C1F307429C6C44EA05249C649C6C224392
:108520004FF400749A649A6CC3F88840013240F1A9
:108530000004A40244EA92549202C3F88440C1F3B6
:108540008034C3F880202DE74FEA8C2CC1F3C2653C
:1085500094000CF44062C1F3072C04F47F749A6415
:108560009A6C1443CA0B9C6402F006029C6C44EAA9
:1085700091749C64C1F3026483F84C50012583F824
:108580004D40C1F3425483F84E40C1F3824483F816
:108590004F40C1F3C03483F8502093F85020224359
:1085A00083F850209C6C93F8502093F8406002327E
:1085B00005FA02F2B540D617A2FB052EC3F8885083
:1085C00005FB06EE04FB0EEE0134A2FB0424A644D8
:1085D000520AC1F3803442EACE52C3F880204FEAF7
:1085E0005E22C3F88420DDE698160120D0E9092038
:1085F000131A58425841704790F8573830B53BB974
:1086000090F85518012490F85638DAB2914200D803
:1086100030BD04FA03F2B0F85E5801332A43A0F8E3
:108620005E28F2E70379024613F0010006D0D2E992
:108630000731D2685B1A013A03EA0200704710B5AD
:108640000379044613F001030ED0FFF7EBFF034656
:1086500050B1226A6369E1689B5C0132B2FBF1F0C0
:10866000DBB201FB10222262184610BD03799B0782
:108670000AD5436A8269D154436A02690133B3FB64
:10868000F2F102FB1133436270477047017170478A
:108690000379014613F0020007D00B69D1E90921E3
:1086A000013B521A1A40D2B2981A704710B584464C
:1086B0004FEA810E102312F4004F4FEA420214BF1A
:1086C0000E240724013B92B2CCF80040F444F2D1CE
:1086D00000EB81128C010351122042F8213010BDB1
:1086E00010B584464FEA810E0424130B013C4FEA77
:1086F000021203EB430392B203F11803CCF80030EB
:10870000F444F2D100EB01130A018450062043F82F
:10871000214010BD704700BF704700BF00EB400014
:10872000024B03EBC00393F8490570474C0000204F
:10873000064B93F8F825824206D900EB400003EB84
:10874000C003D3F84C057047002070474C00002050
:108750000B4890F8FC1589B101EB4101002300F5AD
:10876000A760490010B41C4650F82320063302B11C
:1087700014608B42F8D15DF8044B7047704700BF1E
:108780004C0000200B4890F8FC1589B101EB410129
:10879000002300F5A760490010B41C4650F82320C0
:1087A000063302B114608B42F8D15DF8044B704778
:1087B000704700BF4C000020214B1B78002B3DD19F
:1087C0002DE9F0431F4C94F8FC25AAB304F5A762E9
:1087D0004FF0500E1C4F4FF02C0C1C4E1D4607E066
:1087E000013394F8FC1552F8180B8B42056023DA1C
:1087F000117C0029F4D050684FF0FE08810AA1F5E1
:1088000080115229314498BF91F8F483EFF311811C
:108810008EF31288D0F824900CFB0878C9B209F1C5
:108820000109C8F8BC90D0F8148048F00108C0F8DD
:10883000148081F31188D3E7BDE8F083704700BF4F
:10884000000001204C00002098160120F8170508B0
:1088500000EE100AB8EE400A704700BFBCEEC00A36
:1088600010EE103A98B2704707280AD800EB800043
:10887000054B03EB4013B3F80006B0FA80F0400953
:1088800070470020704700BF4C000020072807D821
:10889000044B00EB8000012203EB401383F8022617
:1088A000704700BF4C000020072808D8044B03EB9A
:1088B000401393F8542412B1012283F83A247047EC
:1088C0004C000020072808D8054B03EB4013B3F8F1
:1088D0003804B0FA80F0400970470020704700BFAC
:1088E0004C000020054B93F8F825824204D903EB95
:1088F0004013D3F844047047002070474C00002018
:1089000070B50E4E0D461446D6F87C333BB11A684E
:108910009B881269134096F8792352B15BB9FFF72F
:10892000F9FC4FF40073D6F8802000202A602380E1
:1089300070BD002BF3D14FF0FF3070BD98160120B1
:10894000002070470020704738B5074B14460D468D
:10895000D3F81C341B6A984702464FF4007300207A
:1089600012682A60238038BD9816012008B5064B8E
:10897000D3F81C3423B15B699847013840B208BD75
:108980004FF0FF3008BD00BF98160120002070474F
:108990002DE9F04113B316460F4603EB0208134CC2
:1089A000D4F81C54002339463046AD681A46A8470F
:1089B0000028F5D0D4F81C34002BFBD05B69984715
:1089C0000028F7D0013607F50077B045E8D1D4F894
:1089D00020340020C4F82434BDE8F081034C00208A
:1089E000D4F82034C4F82434BDE8F081981601206E
:1089F0002DE9F04143B316460F4603EB0208164C2F
:108A000004E0D4F81C1419B14B699847D4F81C142D
:108A100000230D69304639461A46A8470028F0D190
:108A2000D4F81C34002BFBD05B6998470028F7D0A2
:108A3000013607F50077B045E8D1D4F8203400209E
:108A4000C4F82434BDE8F081034C0020D4F820346D
:108A5000C4F82434BDE8F081981601200020704746
:108A6000034B93F84C03003818BF0120704700BF38
:108A7000981601201C4AD2F87C336BB1186892F822
:108A800079139B880069034021B12BB1002382F840
:108A90004C337047002BF9D092F84C33032B0FD88E
:108AA00092F840330133DBB2072B82F84033EDD824
:108AB000D2F820140123C2F83C1382F84C337047DB
:108AC000D2F8283409489908B0EB930F4FF002030D
:108AD00006D249085B0081429BB201D9FF2BF8D92D
:108AE000A2F88433DCE700BF98160120801A060044
:108AF000816D03460A6A52681278FF2A09D090F8FD
:108B0000F020013A52B2002A80F8F02006DD012060
:108B100070470822002083F8F02070470B6A00227B
:108B200002205B681A707047836D1B6A5B681B7854
:108B3000FF2B0AD190F9F030002B03F1FF3280F8BF
:108B4000F020D4BF0220012070470020704700BFF2
:108B5000836D1B6A5B681B78FE2B0CD0FF2B08D142
:108B600090F9F0305A1E002B80F8F02001DD012032
:108B70007047022070470020704700BF034B93F8F6
:108B80004C03032894BF0020012070479816012051
:108B900000487047E8190120034B93F84C03003854
:108BA00018BF0120704700BF98160120034B93F8AF
:108BB0004C03032894BF0020012070479816012021
:108BC00000487047E8190120134BD0F8D8105B68B3
:108BD000D0F8E02010B50446581A824200DC22B9D1
:108BE000D4F8E4200A44C4F8DC2094F8D020C4F877
:108BF000D830012A05D0D4F8D4300133C4F8D430A9
:108C000010BD04F1E801201D37F040FBD4F8D4304A
:108C10000133C4F8D43010BD001000E030B500229C
:108C200099B00446952513468DF80C108DF80D501B
:108C300044F040050493012065F307028DF81C30D1
:108C40000A938DF830308DF84430159317931D4DED
:108C5000069010908DF8580002A8CDE90D33CDE9AB
:108C600013330B0E099005F5607063F30F220B0CA4
:108C7000090A63F317420DF10703059361F31F62BD
:108C8000114B029208930623104A0DEB03010B933C
:108C9000082312920F9104A985F8183437F0F6FAD8
:108CA000D5F88023136A002BFCD19DF80730FF2BE9
:108CB00000D01CB99DF8060019B030BD4FF0FF3050
:108CC000FAE700BF98160120F18A0008298B0008F6
:108CD00030B597B000231E4C0DF1070208900846EE
:108CE00008218DF8143007938DF828300B938DF8F8
:108CF0003C301593174D84F818146944099004F515
:108D0000607006959FED107BCDE90232CDE91033FE
:108D10000122CDE91233022304928DF850200E93E4
:108D20008DED0C7B37F0B2FAD4F88033186A002846
:108D3000FCD19DF80730FE2B03D0FF2B0CBF012088
:108D4000022017B030BD00BF00000000000000008E
:108D500098160120518B000830B52C4C9DB0FD2594
:108D600000230122002000218DF8065004F56075D3
:108D7000C4F848338DF83C3010938DF8503015937B
:108D800018931A930E928DF86420CDE912320DF1EA
:108D90000603CDE90C01CDE916010CA92846119373
:108DA00037F074FAD4F88023136A002BFCD10DF14C
:108DB0000701012228468DF8143009930B93049281
:108DC0008DF8282084F81824CDE902311049069145
:108DD00002A9CDE9073337F059FAD4F88033186A7D
:108DE0000028FCD19DF80730FF2B08D0D4F82024B0
:108DF0000923C4F83C2384F84C331DB030BD042350
:108E0000022084F84C331DB030BD00BF98160120FD
:108E1000298B00088269F0B592F8DC308BB00546EA
:108E2000012B27D0023B012B2FD892F84C31EC4676
:108E3000D2F89C2063F07F03154C13708669D6F836
:108E4000A0305F1C0FCCACE80F00D6F89C30CDE909
:108E500000370FCCACE80F0094E803008CE8030067
:108E6000694606F1100037F011FAAA6911690B6A18
:108E7000002BFCD1D2F8A0305A8852BAEA819A88E5
:108E800052BA2A82DB885BBA6B8201200BB0F0BD3C
:108E9000401C0508F0B590F8DC308BB00446D0F8E3
:108EA000A060012B4BD034D9023B012B2ED890F877
:108EB0004D31EC46D0F89C2063F07F03434D137096
:108EC000D0F8A0305F1C0FCDACE80F00D4F89C3078
:108ED000CDE900370FCDACE80F0095E803008CE832
:108EE0000300694604F1100037F0D0F92269136AD3
:108EF000002BFCD173885BBAA4F8D030B3885BBA7E
:108F0000A4F8D230F3885BBAA4F8D43001200BB0B7
:108F1000F0BDD0F89C304FF0FF3205211A605A6046
:108F20009A60DA60D0F8E030C0F8F010B3F57A7FDC
:108F30001FD8032380F8DC3001200BB0F0BD90F87F
:108F40004C2190F84D319B1A5B100133DBB236F89F
:108F5000132006EB430653BAA0F8D03073885BBAEF
:108F6000A0F8D230B3885BBAA0F8D43001200BB09F
:108F7000F0BD03691A7B2AB35B691BB390F8983084
:108F800003B390F84C310122D0F89C0063F07F03CA
:108F9000C4F8A4400E49037094F84D3194F84C0184
:108FA00084F800211B1A84F8DC20D4F8A0200733B1
:108FB000C4F804110132D4F89C10C4E93E23C4F86B
:108FC000F410A3E7022384F8DC309FE7401C050877
:108FD00001800008F8B50C4B1D685A691540054022
:108FE0005D617DB1094F0126B5FA85F4C4F11F0416
:108FF00007EB840306FA04F4D3F82C0403689847BB
:10900000A543F1D1F8BD00BF003C014098160120F6
:1090100002692DE9F843C36812EA030828D005461F
:109020000E464FF00047B8FA88F327FA03F21B3BCD
:10903000D24308EA02082A61042B16D8DFE803F0BD
:109040003B30251A0300B36A002B3FD003F1FF39F0
:1090500000231FFA89F9B362746A34B12368204689
:10906000494698476468002CF8D1B8F1000FDAD16E
:10907000BDE8F88370680028F7D0696B036889B28F
:109080009847B8F1000FCED1F2E7B0680028ECD0D5
:10909000A96B036889B29847B8F1000FC3D1E7E71D
:1090A000F0680028E1D0E96B036889B29847B8F10D
:1090B000000FB8D1DCE730690028D6D0296C0368EE
:1090C00089B29847B8F1000FADD1D1E7EB6A1FFA2A
:1090D00083F9C1E72DE9F041DFF8B48008EB4017D0
:1090E00097F854340BB9BDE8F08104460D464601AB
:1090F00048F04EFBC0BB2448464400EB4410A6F8A1
:10910000385448F069FB98F80030D6F85024A3B1E1
:10911000D6F83C140124D2F8AC308C4003F1C001E5
:10912000420010F4004F90B202D15A6822435A60B4
:109130000C339942F4D1BDE8F081D6F83C140124F7
:10914000D2F8AC3001F1100203F1C00194404200AA
:1091500010F4004F90B202D15A6822435A600C3387
:109160008B42F4D1BDE8F081084B93F8CC2402EB9C
:10917000420203EBC203234493F87954002DBAD082
:10918000012387F83A34B6E78404002098160120BA
:109190004C00002010B5044645F0B4FE01462046C0
:1091A00089B2BDE8104095E738B50B4D00EB4000A3
:1091B00005F5A763C40003EBC003254493ED027AD1
:1091C000D3ED037AE7EE007AB0EE670A45F09AFE37
:1091D000D5F83835186038BD4C000020836910B5CB
:1091E0001A4C04EB8303D3F8F00437F059FFB4F8BA
:1091F00010350C2B0ED8DFE803F0220D0D0D1B0DE2
:109200000D0D070D0D0D1400D4F8D024D36823F4F0
:109210000063D3600122002384F80D2584F8123501
:1092200010BDD4F8D024D36823F48053D360F1E781
:10923000D4F8D024D36823F48063D360EAE7D4F869
:10924000D024D36823F40073D360E3E79816012099
:1092500080699C3037F024BFF8B5830AA3F58013EA
:10926000522B52D804465748034493F8F4030D2870
:109270004BD8554D860105EB8013D3F81475A742E2
:1092800043D00139C3F8144589B2C3F82015D5F885
:109290002814B1FBF2F100220139C3F82425C3F8E8
:1092A0001C25C3F8282593F85125C3F8181502F09A
:1092B000FF015AB345490223AF1901EB8011204643
:1092C00087F8513504313AF0FDFF0123B4F1804FA6
:1092D00087F851353E4BA4EB0303B3FA83F34FEA0F
:1092E000531316D0ABB93B4A944257D002F5806273
:1092F000944253D0384902F57C42944218BF8C42C4
:109300002FD002F5705294422BD0F8BD83F850153F
:10931000D0E7AA1992F850150129F6D0022182F857
:1093200051152E49A06801400020A160012182F85A
:109330005115AA19022182F851156268A16803B972
:1093400008B122F470022E4422F0700221F0800154
:10935000012000236260A16086F8510586F850352F
:10936000F8BDAA1992F850150129CED0022182F831
:1093700051151A49A06801401948A1600121201A1D
:1093800082F851150021B0FA80F082F85015124A87
:1093900040099442CDD00028CBD1F8BDAB1993F849
:1093A0005025012AB1D002210C4A83F85115A0683A
:1093B0000240A260012283F8512583F851156268AA
:1093C000A168C0E7F817050898160120AC1B01201A
:1093D0000000014000040040000C00408800FEFF37
:1093E00000040140F8B5A0F507642379DB0725D513
:1093F000657994F8543805F001073D46FBB1D4F87F
:1094000048341A68D36A5B08536294F8583823B119
:10941000B4F862380133A4F8623885F00101606C59
:109420003EF07AF9012384F85738002384F8553840
:1094300084F85638A4F85E3884F85438F8BD94F8A7
:109440005768012E03D194F8553884F856382046D1
:10945000FFF7D2F84EB9012385EA030184F85738A3
:10946000606CBDE8F8403EF057B90023394684F8F7
:109470005738F5E770B505460726084C013E00D180
:1094800070BD94F9000016F06FFE031E04DB6178D6
:10949000EA189171A278EA540434EFE7681C0508D1
:1094A00038B58569002D3DD02C68236A1B7B5BBBDA
:1094B000204645F009FC236A5B6803B3236A5A68B7
:1094C000236A22F01F025968236A01F01F019B687A
:1094D0001F33194421F01F01BFF34F8F00290ADD0C
:1094E00002F12003114410488B42C0F85C221A4656
:1094F00003F12003F8D1BFF34F8FBFF36F8F2846DE
:10950000BDE8384037F0D6B8AB68002BD0D01A6829
:1095100020469B88936145F0D7FB236A5B68002B4C
:10952000CCD1ECE738BD00BF00ED00E038B5846970
:1095300004B938BD2568284645F0C6FB2B6A1B7B5D
:1095400023B92046BDE8384037F0B4B8A368002BF3
:10955000F7D01A6820469B889361BDE8384037F001
:10956000A9B800BF10B50F4CD4F8D4384BB194F85B
:10957000E0289988186802F001031B0101FA03F33F
:1095800083613DF0B9FFD4F81C34002BFBD05B693C
:1095900098470028F7D0D4F820340020C4F82434A9
:1095A00010BD00BF9816012010B1036882889A612F
:1095B000704700BF094B02460220D3F82814B2EBD3
:1095C000910F4FEA910307D25B0840009A4280B2A4
:1095D00002D2FF28F8D97047704700BF98160120C3
:1095E00048B182884FF000430349B2FA82F208681A
:1095F000D34003430B607047003C014090F8DB30E0
:10960000052B03D890F81E31032B01D000207047A2
:1096100090F82331022BF9D0042BF7D007207047A4
:1096200010B490F8443000F10801484A012BC2F808
:10963000E4186DD08368464CD968A34221F46001D8
:10964000D960D96841F46001D960996B21F4401167
:109650009963996B41F480119963996B21F4F841F6
:109660009963996B41F488419963996821F4702159
:10967000996099689960996821F440119960996896
:109680009960596821F480615960596821F48051CA
:10969000596059696FF30B0159615969596148D093
:1096A000D9682B4C21F0E061A342D960D96841F020
:1096B000E061D960996B21F440119963996B41F491
:1096C00080119963996B21F478219963996B41F426
:1096D00010219963996821F47021996099689960C3
:1096E000996821F44011996099689960596821F44A
:1096F00080615960596821F48051596099696FF30C
:109700000B019961996999611AD0002380F844305E
:109710001048114B848DC18D408D091BC2F8EC4857
:10972000C2F8E8085DF8044B93FBF1F3C2F8F03897
:109730007047D4F8041341F40001C4F80413AFE7F0
:1097400006494B6843F400034B60DEE7981601209E
:1097500000200140007AF01F803801000023014002
:10976000704700BF014837F06FBD00BFA01F012048
:10977000084810B4D0F80839D0F83C4999691A68FB
:109780002CB1234600F608105DF8044B18475DF82D
:10979000044B704798160120014837F055BD00BFB3
:1097A00000200120084810B4D0F86839D0F89C494E
:1097B00099691A682CB1234600F668105DF8044BCD
:1097C00018475DF8044B704798160120014837F0A0
:1097D0003BBD00BF60200120084810B4D0F8C83954
:1097E000D0F8FC4999691A682CB1234600F6C810D4
:1097F0005DF8044B18475DF8044B7047981601203C
:10980000F0B506688C680F68B569002F56D02E4BEE
:109810003B40B3F1005F4FD007F01F0C04F11F0372
:1098200027F01F029C442CF01F0CBFF34F8FBCF19C
:10983000000F0BDD944402F12003DFF890E0634554
:10984000CEF868221A4603F12003F8D1BFF34F8FF8
:10985000BFF36F8F02684FF480636B6153696F6071
:109860002C6243B34B68F56963B31E46164B334015
:10987000B3F1005F1AD006F01F0226F01F011F325D
:10988000224422F01F02BFF34F8F002A0ADD0A4450
:1098900001F120030D489342C0F87012194603F1FC
:1098A0002003F8D1BFF34F8FBFF36F8F4FF4806366
:1098B0006E606B612C62F0BD3246CCE73B463246AF
:1098C000034FCAE7034EF3E70000FFFF00ED00E09F
:1098D00000000020040000202DE9F0410468D4E9D4
:1098E00004351A7DD3E90061002D4DD01F2AA861EF
:1098F00038D820202F6800FA02F242F01802B26035
:109900002A7D1F2A39D9203A202000FA02F242F09B
:109910001802FA606A68002008601060304611681A
:1099200041F01001116093F80880A269414640F0AF
:10993000A9FF2D7AE2693846294640F0A3FF274B5C
:10994000626813F80800595D335843F0010333503F
:109950007B5843F001037B50536843F0030353608B
:10996000BDE8F081203A20202F6800FA02F242F090
:109970001802F2602A7D1F2AC5D8202000FA02F2C0
:1099800042F01802BA60C5E71F2A98611ED820204D
:1099900000FA02F242F01802B260002230460A6079
:1099A0000A6842F010020A601D7AA269294640F056
:1099B00069FF0A4B6268595D735843F001037350A5
:1099C000536843F002035360BDE8F081203A202041
:1099D00000FA02F242F01802F260DEE75C8A050843
:1099E00018B1838802681B0493617047D3B2012BBE
:1099F0001DD802EB42020F4B10B54FEA820E03F561
:109A0000287C0EF1080402E01C3363450DD01A785F
:109A10008242F9D15A788A42F6D11A59002AF3D0F3
:109A20000EF1040E03EB0E0010BD002010BD00204F
:109A3000704700BF801C050810B40C4C002304F6CE
:109A4000742C01E0152B0CD003EB430201331CF8FE
:109A500002108142F6D1144494F9760A5DF8044B61
:109A600070474FF0FF305DF8044B704798160120A7
:109A7000D3B2022B21D802EB420270B54FEA820E1C
:109A80000F4C002223460EF10C0503E001322C336B
:109A9000172A10D01E68B042F8D193F804C08C4544
:109AA000F4D15E59002EF1D02C210EF1080301FBF8
:109AB0000233E01870BD002070BD0020704700BF69
:109AC000F8170508002838D0002330B51B4D90F852
:109AD00004C005F6742401E0152B2CD003EB4302DF
:109AE0000133A15C6145F7D11544046890F805E0A5
:109AF00095F9763ADAB2022A1DD803EB43031048EF
:109B000000224FEA830C03460CF10C0503E00132FE
:109B10002C33172A0FD019688C42F8D11979714566
:109B2000F5D159590029F2D02C210CF1080301FB81
:109B30000233184430BD002030BD70479816012014
:109B4000F8170508024843690BB1043018477047FD
:109B5000000001200248836B0BB128301847704782
:109B6000000001200248C36D0BB14C30184770470C
:109B7000000001200348D0F880300BB17030184746
:109B8000704700BF000001200348D0F8A4300BB19B
:109B900094301847704700BF000001200348D0F8F8
:109BA000C8300BB1B8301847704700BF0000012023
:109BB0000348D0F8EC300BB1DC301847704700BFD9
:109BC000000001200348D0F8103113B100F5807077
:109BD00018477047000001200348D0F8343113B112
:109BE00000F5927018477047000001200348D0F834
:109BF000583113B100F5A4701847704700000120D8
:109C00000348D0F87C3113B100F5B670184770479F
:109C1000000001200348D0F8A03113B100F5C8704E
:109C200018477047000001200348D0F8C43113B131
:109C300000F5DA7018477047000001200348D0F89B
:109C4000E83113B100F5EC701847704700000120AF
:109C50000348D0F80C3213B100F5FE701847704776
:109C6000000001200348D0F8303213B100F508702D
:109C7000184770470000012001380D4B0D4A00EBDA
:109C8000C000116B03EB800310B45B6883B00A4C17
:109C9000A34214BF4FF480034FF400131943116320
:109CA000126B13400193019B03B05DF8044B7047A6
:109CB0000000012000380240006002400138F8B581
:109CC00000EBC000104C1D46104B04EB80041746FF
:109CD0000E466068984214BF962095203EF0B2FF71
:109CE00094F91900B9096661E5613EF07FFF94F9C6
:109CF0001930002B07DB03F01F0001225B09044928
:109D0000824041F82320F8BD00000120006002409D
:109D100000E100E0800AA0F58010522808D8054B29
:109D2000034493F8F4330D2B02D8034AD0567047FE
:109D300000207047F8170508488A05080120FFF73A
:109D400049B900BF0220FFF745B900BF0420FFF763
:109D500041B900BF0820FFF73DB900BF1020FFF751
:109D600039B900BF4FF47870FFF734B94FF47C4035
:109D7000FFF730B930B1036882881B691A4214BFFB
:109D800001200020704700BF2DE9F04F0E4683B040
:109D900004461546002800F0C7800268644B13444F
:109DA0009B0A644AC6F34119134493F828073EF00E
:109DB00049FFC6F38103B4F804E006F00301246808
:109DC00001939EFAAEF0B0FA80F001F1FF383EFA4E
:109DD00000F367D001220327009603E001303EFA2A
:109DE00000F35ED002FA00F313EA0E03F6D0D4F8C3
:109DF00000C093FAA3FBBBFA8BFB93FAA3FABAFA5F
:109E00008AFA4FEA4B0BB8F1010F4FEA4A0A07FAF8
:109E10000BFB01FA0AFA2CEA0B0C4CEA0A0CC4F808
:109E200000C04ED9D4F80CC093FAA3FBBBFA8BFB4D
:109E300093FAA3FABAFA8AFA4FEA4B0B02294FEACD
:109E40004A0A07FA0BFB09FA0AFA2CEA0B0C4CEA4D
:109E50000A0CC4F80CC0C1D193FAA3FABAFA8AFA70
:109E60004FEA132CBAF1070F45DCD4F820C093FA5F
:109E7000A3FABAFA8AFA93FAA3F34FF00F0BB3FAE4
:109E800083F34FEA8A0A01309B000BFA0AFA05FABB
:109E900003F32CEA0A0C4CEA030323623EFA00F3B4
:109EA000A0D1009EB8F1010F08D86268C6F3001374
:109EB00022EA0E020EFB03F31343636003B0BDE816
:109EC000F08FD4F808C093FAA3FBBBFA8BFB93FA8C
:109ED000A3FABAFA8AFA4FEA4B0B019E4FEA4A0AF2
:109EE00007FA0BFB06FA0AFA2CEA0B0C4CEA0A0CEE
:109EF000C4F808C096E7D4F824A09CFAACFBBBFADF
:109F00008BFB9CFAACF34FF00F0CB3FA83F34FEAE0
:109F10008B0B9B000CFA0BFC05FA03F32AEA0C0AE4
:109F20004AEA0303636259E74FF0FF3339E700BFA2
:109F30000000FEBFF817050808B1002224E77047AB
:109F400000B121E770472DE9F84FBB4F602306466B
:109F500003FB0073D3F8F448D3F8FC88D3F8005916
:109F6000002C00F05D81B8F1000F04D098F90630A4
:109F7000002B40F0558125B195F90630002B40F0BB
:109F80004F81731CDBB2B8F1000F04D0152288F8A2
:109F9000073088F8062015B11622EB71AA714FF030
:109FA000600A207E3EF04EFE29460AFB06FA404635
:109FB00044F0EEF8404607EB0A09042240F2145838
:109FC00099F80439002B0CBF4FF01E0B4FF03E0BDD
:109FD0005946FFF7B5FF2846984D04225946554487
:109FE000FFF7AEFF4C220021284646F075F9D9F85C
:109FF000F4389FED937AB0EE084A5B68F7EE003ACA
:10A00000B9F806A94FF0000CC9F808398D4B9FED3F
:10A010008E5A9A688D4BC2F38222134493F83027EC
:10A02000D7F82834D34007EE903AF8EE677AC7EEB7
:10A03000275A07EE90AA9FED867AF8EEE77AC7EEE8
:10A04000274ADFED847AB0EE007AE5EE877AA5EE56
:10A05000875A25EE844A37EE856A74EEE72ABAF508
:10A06000C87F0CF1010ED5BF4FF49672782264239D
:10A07000322307EE90EAD8BF4FF416791344A2F1C9
:10A080003202F8EEE76AC8BF4FF4827907EE903AE1
:10A09000D4BF41464FF4FA7166EEA56AB8EEE77A8E
:10A0A000C7EE267A07EE102A01EB0902B8EEC77A4E
:10A0B00037EE447A77EEE37AFCEEE77A17EE903AE1
:10A0C000C7EE267AFCEEE77A17EE900A07EE909A32
:10A0D000B8EEE73A07EE902AF8EEE77A23EE243A54
:10A0E00083EE277A37EE453A32EEC77AC3EE267A08
:10A0F00077EEE37AFCEEE77A17EE901AC7EE267A4F
:10A1000077EEE37AFCEEE77A17EE902A02F1020985
:10A1100009EB010BB0EE467A07EE90BAF8EE677ADB
:10A12000A6EEA77AF4EEC74AF1EE10FA7CDC43EA19
:10A1300000095FFA89F9B9F10F0F77D841EA0209EE
:10A140001FFA89F9B9F1FF0F70D81B05000403F05D
:10A150007F6392B200F47F0003433F4843EA0C73ED
:10A1600000EA01210B4313436022284602FB0676D6
:10A170000027C6F80C390123C6F81079C6F814393F
:10A18000C6F81879C6F81C79C6F82479C6F8287973
:10A1900040F016FE96F84939202BD9B21AD196F81C
:10A1A0004839012B16D0242386F84939D6F80839C6
:10A1B0001A6822F001021A601A6822F480521A60AA
:10A1C0001A681A601A6842F001021A6086F8491982
:10A1D00086F84879002194F91A003EF007FD94F9B9
:10A1E0001A20A37E002A08DB5909012203F01F036D
:10A1F00002FA03F3194A42F82130002194F91900B8
:10A200003EF0F4FC94F91920637E002A08DB59091A
:10A21000012203F01F0302FA03F3104A42F821302F
:10A22000BDE8F88FF4461AE7013171E7BEF10F0F70
:10A23000F8D1002398E700BF98160120A01F012045
:10A24000286B6E4E0038024000001643F8170508D0
:10A25000002474490000704200FFFF0000E100E0AC
:10A2600070B50E4C94F8F865AEB104F5876400251E
:10A2700003E001352034B5420DD0237F002BF8D008
:10A28000E06800220028F4D00135217DFFF77CFD35
:10A290002034B542F1D1012070BD00BF4C00002038
:10A2A00070B590F8B2311C09013C052C0FD81A4E3C
:10A2B000054603F00F0306EB4402B2F8380740FAF4
:10A2C00003F2D20703D595F8B521012A01D0012068
:10A2D00070BD9A402644013A104046F019FB96F8AA
:10A2E00044370E4A034402EBC30452F83320A388D8
:10A2F00010691840ECD0002395F8B32102212046C4
:10A3000085F8B531FFF740FDD5F82021136843F0FB
:10A3100008031360DBE700BFF81705084C21012094
:10A32000014B43F82010704750280040204B214833
:10A33000196C214A41F0805130B4196482B0196C13
:10A34000FF2401F0805101910199016841F480716D
:10A350000160CA20196C41F480611964196C01F420
:10A36000806100915321009D5462506251625B6F85
:10A37000DB0013D4114B00221149C3F85428C3F851
:10A380005828C3F85C28C3F86028C3F86428C3F8C9
:10A390006828C3F8501802B030BC7047A2F50062BC
:10A3A000074BD2F850289A42E4D102B030BC704733
:10A3B00000380240007000400028004000200040AB
:10A3C000316665422DE9F84FD0F894700446524B3F
:10A3D00000F16406FDB227F0FF09826800F1180A57
:10A3E000103D4846D2F80080A3FB05352D092946CB
:10A3F00040F090FA626D0023B2F5807F84F8583007
:10A400007ED00DD8102A00F083805CD8012A45D078
:10A41000042A16BF6FF400616FF008013C230EE0C0
:10A42000B2F5805F70D0B2F5803F3AD0B2F5806F60
:10A4300015BF6FF400616FF008013C23042332461E
:10A4400008F11806404656F803C001EA0C01F15025
:10A45000D4F854B059463FF085FFBBF5807F2DD02E
:10A4600023D8BBF1100F3ED036D8BBF1010F02D07C
:10A47000BBF1040F33D14FF0080C33685246294624
:10A48000484643EA0C0333604023236240F0FAF964
:10A490003B6843F010033B60BDE8F88F6FF00801A4
:10A4A000CDE76FF008013C23C9E7BBF5805F22D000
:10A4B000BBF5803F1AD0BBF5806F10D108F11C06A8
:10A4C0004FF0080CD9E7402A15BF6FF400616FF018
:10A4D00008013C230023B2E7BBF1400FCBD03C3650
:10A4E0004FF4006CC9E74FF4006CC6E708F154065E
:10A4F0004FF0080CC1E708F11C064FF4006CBCE7F4
:10A500006FF0080104239AE76FF40061042396E7D3
:10A510006FF4006193E700BFABAAAAAA4A1C4FF4EC
:10A52000003310B418BF4FF0450C484C08BF4FF033
:10A53000800C00E00BB3626B013B12EA0C0FF9D008
:10A54000002925DD626B54071ED4032920D03F4B20
:10A550005A6BD20720D402291CD01A69D2B2824287
:10A560001ED101295B691DD0062913D113F4604F58
:10A5700044D1374AC2F8B43D0CE0002904DD636BD6
:10A580005B0701D40329E2D103205DF8044B704737
:10A59000002BF9D00020F8E701205DF8044B70474C
:10A5A0001020F2E72B4A1A40002AF3D0002B31DBAF
:10A5B0005C002DD4980031D4D9002DD41A0131D4A7
:10A5C0005C012DD4D80137D419021DD45A02E7D426
:10A5D0009C022DD4D80229D4190317D45A0323D4AA
:10A5E0009C0331D4D8032DD4190429D45A0425D47A
:10A5F0009C041FD41807CDD51A20C6E7990405D4AA
:10A600005A04CDD41B04C5D50F20BEE71320BCE7E8
:10A610000920BAE71C20B8E70B20B6E70A20B4E708
:10A620000D20B2E70C20B0E71420AEE71220ACE713
:10A630001120AAE71920A8E70E20A6E71820A4E712
:10A640001720A2E71620A0E715209EE7002C014066
:10A650009816012008E0FFFDF8B5154DAB6A93B1DF
:10A66000296B0446012914D0124B40F2FF500021FF
:10A67000DA6A22F00802DA629863A962236823F09A
:10A6800001032360F8BD0B4AD36B43F48073D3639B
:10A69000F8BD084E40F2FF5700230C20B763B360AB
:10A6A00040F24C43F360FFF739FFB763DCE700BFCC
:10A6B00098160120002C01402F4B1A68910102D5F9
:10A6C0009A6D52074BD42C4B1A68500202D5DA6EA1
:10A6D00011063CD4284B1A68D20102D59A6D900716
:10A6E0002DD4254B1A68510102D59A6D120717D443
:10A6F000214B1A68120112D59A6DD0060FD59A6DAA
:10A70000510334D49A6DD20503D49A6D22F010020D
:10A710009A65194B4FF0006218489A609CE77047A1
:10A720009A6D500307D49A6DD10503D49A6D22F027
:10A7300008029A65104B4FF080629A60D8E79A6DD4
:10A740004FF0807122F002029A659960C9E7DA6ED3
:10A750004FF4800122F08002DA669960BAE79A6DC0
:10A760004FF0007122F004029A659960ABE74FF058
:10A7700000629A60704700BF006402405864024063
:10A78000384B5A68110303D5D3F8A02052075BD485
:10A79000344B5A68D00303D5D3F8B420110649D4FA
:10A7A000304B5A68520303D5D3F8A020900737D412
:10A7B0002C4B5A68D10203D5D3F8A02012071CD421
:10A7C000284B5A68920217D5D3F8A020D00613D58B
:10A7D000D3F8A020510341D4D3F8A020D20505D44A
:10A7E000D3F8A02022F01002C3F8A0201D4B4FF494
:10A7F00000121D48DA602FE77047D3F8A0205003FD
:10A800000AD4D3F8A020D10505D4D3F8A02022F093
:10A810000802C3F8A020134B4FF48012DA60CFE790
:10A82000D3F8A0204FF4802122F00202C3F8A02028
:10A83000D960BDE7D3F8B4204FF4803122F0800214
:10A84000C3F8B420D960ABE7D3F8A0204FF40021BF
:10A8500022F00402C3F8A020D96099E74FF4001257
:10A86000DA60704700640240A06402402DE9F041C4
:10A87000564E82B096F89030022B00F29380544DE1
:10A880006B6913F0007303D00E2002B0BDE8F081B5
:10A89000009340F2FF574FF48A634FF00808AF630C
:10A8A0000446C5F8088001211020EB60FFF736FE52
:10A8B000AF630028E9D1AF630121D6F8B43D37205A
:10A8C000AB6040F27743EB60FFF728FEAF630028F0
:10A8D000DBD1404A40F2734301216A62C5F8288007
:10A8E000EA6A42F03302EA62AF63A8603320EB60A9
:10A8F000FFF714FEAF630028C7D1694640F22A4231
:10A9000001E09B0254D46B6B13426B6BF9D01F07B1
:10A9100053D46B6B980752D46B6B990651D46B6B05
:10A920009B0250D4B4F5006F009B18BF4FF48032E7
:10A930001BBA08BF4FF480221A4237D0D6F8B42D84
:10A9400040F27743224D40F2FF5601213720AE639B
:10A95000AA60EB60FFF7E2FDAE63002895D1A4F595
:10A96000006340F24642AE630121B3FA83F306204E
:10A970005B095B00AB60EA60FFF7D0FDAE630028C7
:10A9800083D16B6803F400639C423FF47EAF124AAC
:10A990006B68134023436B606B6803F40063A3424E
:10A9A000F6D172E7282002B0BDE8F08126206CE7DE
:10A9B000D5F8803041F8043BA5E7042065E7022084
:10A9C00063E7062061E722205FE700BF98160120B9
:10A9D000002C014000E1F5050081FFFF0E4A012136
:10A9E0000D20D2F8B42D38B50C4C40F2FF5540F292
:10A9F0004D43A563A260E360FFF790FDA56340B9F6
:10AA00006069C0F34320A0F10400B0FA80F040096F
:10AA100038BD002038BD00BF98160120002C014031
:10AA200070B5174D40F2FF56164C40F24D43D5F825
:10AA3000B42D0121A6630D20A260E360FFF76EFD37
:10AA4000A66320B96369C3F34323042B02D04FF0FC
:10AA5000FF3070BDD5F87C030028FAD0026895F865
:10AA600079338088126910402BB9003818BF012053
:10AA7000013840B270BDB0FA80F04009F8E700BF7D
:10AA800098160120002C014070B51A4D10460A4658
:10AA9000D5F87C433CB12668A1883469214095F8FB
:10AAA000794314B319BB00213DF05EF9F8B9AB6AE4
:10AAB000002BFCD1104C40F2FF56D5F8B42D40F2DB
:10AAC0004D43A6630121A2600D20E360FFF726FD40
:10AAD000A6630028F1D16369C3F34323042BECD1AF
:10AAE000D5F82034C5F8243470BD0029DBD14FF0EF
:10AAF000FF3070BD98160120002C014070B51A4D32
:10AB000010460A46D5F87C433CB12668A1883469D2
:10AB1000214095F8794314B319BB00213DF0C0F8EA
:10AB2000F8B9EB6A002BFCD1104C40F2FF56D5F877
:10AB3000B42D40F24D43A6630121A2600D20E360D5
:10AB4000FFF7ECFCA6630028F1D16369C3F343234C
:10AB5000042BECD1D5F82034C5F8243470BD00297D
:10AB6000DBD14FF0FF3070BD98160120002C014062
:10AB700070B5154C002394F81A24C4F848330AB170
:10AB8000C4F8B83D114D40F2FF56D4F8B42D40F250
:10AB90004D43AE630121AA600D20EB60FFF7BEFCC0
:10ABA000AE6320B96B69C3F34323042B08D0D4F8F8
:10ABB000202409230020C4F83C2384F84C3370BDC2
:10ABC000022084F84C3370BD98160120002C0140FF
:10ABD00070B50D4D04460E4695F84C33042B0BD042
:10ABE000082B07D1D5F8443383420AD0FFF7C0FFC2
:10ABF000022801D0012070BD0823C5E9D14685F89F
:10AC00004C33022070BD00BF9816012038B50409EE
:10AC1000013C052C1AD80F4D00F00F0305EB440240
:10AC2000B2F8380740FA03F212F0010210D0012204
:10AC3000254402FA03F3013B184045F069FE95F8FC
:10AC40004437054A034402EBC30038BD002038BD39
:10AC5000104638BDF81705084C2101202DE9F041B8
:10AC600091F80380B8F1000F03D100263046BDE80B
:10AC7000F08100F110050F4604468978284635F02A
:10AC8000CFFA06460028F0D04046FFF7BFFFA0618C
:10AC90003B7880460133DBB258B1C37122230022D6
:10ACA0000D218371FFF770F8D8F80030B8F8042050
:10ACB0009A61244FD7F82034632BFBD9D7F8283476
:10ACC00021499A08B1EB930F4FF0020306D25208C4
:10ACD0005B008A429BB201D9FF2BF8D9DFF8708064
:10ACE0001A4AA38202E058F8042F8AB128469047F6
:10ACF0000028F8D0236984F8D8001B78012B1AD0DB
:10AD0000022BB3D197F8BC3D013387F8BC3DADE7CA
:10AD1000A469002CA9D0D7F8C03D412120460133B9
:10AD2000A1712021E371C7F8C03DFFF72DF823681A
:10AD3000A2889A6199E797F8BD3D013387F8BD3D38
:10AD400094E700BF9816012040420F005D060408FA
:10AD5000441F050870B586B00024054600F5847EC2
:10AD60000DF1040CC0F8044144F23B360594C0E9EF
:10AD70003D44C0E93F44CDE90144CDE90344BCE88A
:10AD80000F00AEE80F00CEF8004095F82101A5F8BD
:10AD90004C6108B906B070BDFFF738FF294604467C
:10ADA00090B126220C4BC28041F80C3F40F07AF95A
:10ADB000A2880A494FF00043B2FA82F20868D340F1
:10ADC00003430B6006B070BD034B41F80C3F06B067
:10ADD000BDE8704040F066B9C98B0008003C0140F6
:10ADE0002DE9F84F6D4EC0EB001306EBC303D3F80B
:10ADF000C44D002C00F08A8093F8348E054607017C
:10AE000040463DF01FFF01224FEA581308F01F088B
:10AE1000013B02FA08F2032B08D8DFE803F0ADB3D8
:10AE200002B95F490B6A23EA02030B627B1B05F13F
:10AE3000010B06EBC3035FFA8BFB93F8C80DFFF71A
:10AE4000E5FE804618B1122380F807B083717B1BA2
:10AE500006EBC30393F8C90DFFF7D8FE824618B17D
:10AE6000132380F807B083717B1B06EBC30393F8B1
:10AE7000CA0DFFF7CBFE814618B1142380F807B046
:10AE800083717F1B50462E2106EBC70696F8CC2D0A
:10AE9000FFF756F896F8CD2D48460E21FFF750F8EB
:10AEA00096F8CB2D2E214046FFF74AF823683D4AFD
:10AEB00023F04003944223602AD03B4B9C4231D183
:10AEC00003F500331A6A42F480421A621A6A22F4C5
:10AED00080421A62636843F48053636023685B06B0
:10AEE0000CD4206840F217323049314B01400A43FC
:10AEF00022606268134043F4E0636360E36923F413
:10AF00000063E361236843F040032360BDE8F88FEA
:10AF1000234B5A6A42F480525A625A6A22F480528F
:10AF20005A62D7E7234B9C421BD0234B9C420DD047
:10AF3000224B9C42CED103F568435A6A42F48012F8
:10AF40005A625A6A22F480125A62C3E703F58233C6
:10AF50005A6A42F400525A625A6A22F400525A6201
:10AF6000B8E703F5FE331A6A42F400421A621A6A1D
:10AF700022F400421A62ADE709494B6923EA020351
:10AF80004B6153E706494B6A23EA02034B624DE7E4
:10AF900003490B6923EA02030B6147E79816012076
:10AFA0000038024000300140003800404000FFFF00
:10AFB000FBF0FFFF003C0040003401400050014026
:10AFC00008B51D20FFF722FE10B190F9063053B1ED
:10AFD0001E20FFF71BFE10B190F9063003B108BD2B
:10AFE0005523C38008BD5523C380F1E72DE9F04FF9
:10AFF000002391B0A24E0293A24BA6F6540ADFF8AA
:10B000008C9293F8B6EFA04D0EF1FF37CDF80CE01F
:10B01000FBB20193DFF88CB2DBF80070BB0AA3F53A
:10B020008013522B00F2CF80534493F8F4330D2B4E
:10B0300000F2C98015F90380039B012B00F01681F3
:10B04000039B022B02D1B8F1080F3AD1002421460C
:10B05000404612F031F912F0B7F990F900C0BCF196
:10B06000000F18BFBCF1540F14BF4FF0010C4FF08C
:10B07000000C40F0F1800434A4B2102CE7D1029B04
:10B08000002B00F0AB80814A0CE0534493F8F4337A
:10B090000D2B0ED8EB5643450ED002F586724A456D
:10B0A00000F0988091680B689B0AA3F58013522BDF
:10B0B000EBD900234345F0D14B799BF80510994219
:10B0C000EBD10BF11C0B5E45A6D1029B09F58679ED
:10B0D0000133042B02939DD16D4A4FF0010B92F87E
:10B0E000F83502F5876A01330493049B5B4567D00A
:10B0F000644BDAF80C7093F8CA2F9AF81030019369
:10B10000002F5DD062493B684D686248B988002DC8
:10B110001844039302914FEA902040F3C8805B49A2
:10B12000002405E0013401F58671AC4200F0BC80DA
:10B130000B688342F6D1554B4FF48672029D02FB99
:10B140000434019B0322CAF80C708AF81030029B69
:10B15000CAF81840B3FA83F6C6F11F035800CAF8BC
:10B160000430BA7187F807B002FA00F7A16C012227
:10B17000D4F854C0394302FA00F002FA03F3A16490
:10B18000216D0143D4F8AC00216541490F7899B293
:10B19000002F00F0708143EA0C036365039B9D61FF
:10B1A000FCF7FCFF0BF1010B2046FCF7CBFF0AF18B
:10B1B000200A40F20113BBF1090F2AF8043C94D194
:10B1C00011B0BDE8F08F019B012B7FF67AAF4FF0F5
:10B1D00000083BE7BCF1000F7FF473AF5846FCF763
:10B1E00077FF9BF805E0C3B2022B00F2958300F1D4
:10B1F000010C294A0CEB4C0C02F57D704FEA8C0CCB
:10B2000003E02C32904200F0878313689F42F8D10C
:10B2100013797345F5D152F80C30002BF1D01F484B
:10B22000002142689A4207D00131243010293FF4AE
:10B2300048AF42689A42F7D14B1C194ADBB2013B36
:10B2400003EBC30302EB830393F92030002B7FF45D
:10B2500038AFC9F808B038E7029B002B7FF413AF72
:10B260000BF11C0B5E457FF4D7AE2EE7B8F1010F52
:10B270003FF4ECAE0BF11C0B5E457FF4CDAE24E742
:10B280004C20050898160120488A05085400002023
:10B290004C0000200000FEBFF81705080400012044
:10B2A00000000120501F0508042C00F0F2804FF42C
:10B2B0008671B54B01FB053319690691002900F031
:10B2C000FB829860013054210792C4B2AE4A83F8E1
:10B2D000101183F811416B1C5360069B18461E68C1
:10B2E0005B790593FCF7F4FEC3B2022B00F21483E2
:10B2F00000F1010EA5494FF0000C079A0EEB4E0E1F
:10B30000DDF814904FEA8E0E06E00CF1010C2C31A2
:10B31000BCF1170F00F000830B689E42F5D10B794A
:10B320004B45F2D151F80E30002BEED098462C232D
:10B3300000EB4000954903FB0CF3DFF8809203EB30
:10B34000800391480B4419694FF4867303FB05038E
:10B350004846C3E9078143680021434507D00131CE
:10B36000243010293FF42CAF43684345F7D14B1CE0
:10B370008749DBB2013B03EBC30301EB830393F982
:10B38000201000297FF41CAF4FF48671814883F8A8
:10B3900021404FF08C0C01FB05F17B4C062A0791F4
:10B3A0004FEAA10100FB01F17B4800F54C7E0798B4
:10B3B0002044039CC0F800C10CFB01FC01EB4101DF
:10B3C000C46001EB0111744C0EEB4C0E04EB8104D4
:10B3D0004FF05401C0F8FCE083F820104FF0330325
:10B3E0000799C0F8B8306D4BC0F8B44003EB0104C6
:10B3F0006B4BD3F8281400F04D82072A694B6A483A
:10B400006A4A18BF1A466A4B18BF03465E48B1FB2A
:10B41000F3F3B1FBF2F2013B4FF48671013A01FB09
:10B4200005019BB2A1F8BC20A1F874302366079BEC
:10B4300003F1580100F10803304619440023A4F831
:10B4400058306366E3653FF0D5F83368059A43F0FA
:10B45000800333600C2A23D8DFE812F0C3012200F6
:10B4600022002200A101220022002200E30122008A
:10B47000220022007D01C6F12F062D0402FA06F3F8
:10B480003A4643EA0C036365039B9D61FCF786FE25
:10B4900088E60323424A82F8CB3F11B0BDE8F08F23
:10B4A000394A4FF48673304603FB0523022259695B
:10B4B0003368039123F00103336000230A930D9353
:10B4C0000F93602308934FF480730E930123099325
:10B4D0000A23CDE90B3208AA3EF044FF0399B1F5E7
:10B4E000807F00F0FD8100F2D881102900F00282F7
:10B4F00000F2E981012900F0FA81042915BF4FF417
:10B50000006308233C20002006F118010A58134369
:10B510000B50069B1879002840F0AB81336843F04C
:10B52000010333600023D9F804200133904500F073
:10B530009B81102B09F12409F5D14FF0FF334FF017
:10B540000008134A03EBC30302EB83035868194B4B
:10B55000984214BF962095203DF074FB059B0C2B60
:10B5600000F27F81094A02EB4303B3F854C84FF459
:10B570008673054A104803FB052300F26471A3F8A3
:10B5800018C0002323E000BF4C000020F817050876
:10B59000000001206B4CA40718110020540000206B
:10B5A0009816012044950800D0DD060010552200B1
:10B5B00040771B000060024044110020040001207D
:10B5C000964200F088810133042B00F0A88151F8E5
:10B5D0003320002AF4D1D0F884270132C0F8842720
:10B5E00000EBC300DB00C0F8646719444046234603
:10B5F00090228E884CEA060C0026A1F804C0BF49B0
:10B60000FEF75CFB4FF48673BD4A40214FF4403C8B
:10B61000BC4803FB05280423D8F81C502A6842F0D4
:10B6200010022A602A6842F014022A60C4F8A86056
:10B63000C4E91F66C4E92866D8F82020A1674FF442
:10B640008061C4F898C04FF4804CC4F88410E9B20B
:10B65000C4F89C30C4F8942010390392D8F8B8206C
:10B66000A0FB010125F0FF00C4F890204FF48052A8
:10B67000D8F80C90D940C4F88820079B09F118022B
:10B6800009F11009226703F170029F4B1A44D8F8A0
:10B69000B430C4F88CC06367CDE905013FF0F2F81F
:10B6A000D5F800E0079BC4F820E0D5F814E003F1DA
:10B6B000B802954BC4F824E0D5F804E01A44039B83
:10B6C000C4F828E0D5F808E0C4F82CE0D5F80CE080
:10B6D000C4F8DC300423C4F8C860C4F8E4304FF484
:10B6E0008063C4F8F060C4F8CC304FF40033C4F881
:10B6F00030E0C4F8E030C4E93066C4E93A664FF49B
:10B700000066D8F80031C4F8B890C4F8D0604FF49F
:10B710008046C4F8D830D8F8FC30C4F8D460C4F8F7
:10B72000BC30DDE905013FF0ADF82B6863636B6960
:10B73000A3636B68E363AB682364EB6863642B68A3
:10B7400043F010032B602B6843F014032B603B681D
:10B75000BD880393F5E433684FF4867268494FF06F
:10B76000020E23F00103304602FB05124FF4805114
:10B77000516108AA336000230A930D930F9360234D
:10B7800008934FF480730E93012309930A23CDE9A4
:10B790000B3E3EF0E7FD4FF400630420B4E633684F
:10B7A0004FF486725649022023F0010302FB051272
:10B7B0001021516108AA336000230A930D930F935F
:10B7C000602308934FF480730E93012309930A2397
:10B7D000CDE90B3030463EF0C5FD00204FF400634C
:10B7E00092E633684FF486724549304623F00103F0
:10B7F00002FB0512012151610222336000230991ED
:10B800000A930D930F93602308934FF480730E9364
:10B810000A23CDE90B3208AA3EF0A4FD002008233C
:10B8200072E633684FF486723549022023F0010333
:10B8300002FB05124FF480715161602233600023D6
:10B840000E910A930D930F930123CDE908230A2348
:10B8500008AACDE90B3030463EF084FD08230420D1
:10B8600052E64FF0000C82E65FFA83F808F1FF33EE
:10B8700067E6FFF7CBF9039038B10699CA79022140
:10B88000FEF782FA5423039AD380736C43F4004387
:10B89000736443E61D4A1E4BB8E5B1F5805F22D0C4
:10B8A000B1F5803F19D0B1F5806F15BF4FF400633B
:10B8B00008233C20042027E60223164A82F8CB3FC7
:10B8C00011B0BDE8F08F402915BF4FF40063082385
:10B8D0003C20002018E6DB0087E608233C2013E626
:10B8E0000823042010E64FF4006304200CE6002037
:10B8F000082309E600204FF4006305E6E98100080B
:10B900004C000020ABAAAAAA54000020882A1100EB
:10B91000A0BB0D009816012000235B68FFDE00230A
:10B920009B88FFDE2DE9F04F994C8BB094F8CC7FCB
:10B930001FB900200BB0BDE8F08F00222F21384640
:10B9400011F098FD06460028F3D090F80590D0F845
:10B9500000A0A4F81095FEF7B5F80028E9D0D0E9CA
:10B96000015B002DE5D0DFF860820023424601E054
:10B97000102BDED05168013324328D42F8D1DBB276
:10B98000013B03EBC302834B03EB820292F92010CD
:10B990000029CED12F20C4F8D0A41084D4F82804D4
:10B9A0007D4A904280F0D780000AC4F8D4147B49C5
:10B9B0000022A1FB00017A48C4F8E024C4F8D8248E
:10B9C0000A090909A0FB0202C4F8DC145208A4F811
:10B9D000D02F5200A4F8CE2F94F80D2502F0FF01CD
:10B9E000002A00F0C480022250466E4984F80D25DA
:10B9F00038F068FC0122384684F80D25FFF706F977
:10BA0000644BC4F8D40F30B12F21C1804E21F2799C
:10BA1000FEF7BAF95F4B644A0021C4F8DCBFB9F104
:10BA20000C0FC4F8E41FC4F8F41FC4F8FC1F106B1B
:10BA3000C4F8D85F40F400101063106B00F40010DD
:10BA400000900098106B40F480001063126B574810
:10BA500002F480020192019A4FF04002C4F8E02FF4
:10BA60004FF48062C4F8E82F4FF48052C4F8EC2FF2
:10BA70004FF48042C4F8F02F4FF40032C4F8F82F8E
:10BA80004FF00302C0E90111026073D8484A02EB8B
:10BA90004902B2F87078BA460837DFF830C141463B
:10BAA000002204EB870ECEF8D0C4ACF6083CC0F8F8
:10BAB00010C0486801322431854260D0102AF8D184
:10BAC0004FF0FF3202EBC20203EB82035868394B9E
:10BAD000984214BF962095203DF0B4F80023D8F882
:10BAE0000420013308F12408954246D0102BF6D1EA
:10BAF000002004EB8704534660222F49FEF7DEF84E
:10BB0000D4F8D00435F0F2F900287FF412AFB479FC
:10BB100000276026089063004A4602A9274803F0E0
:10BB200002030493E300CDE9026703F00803002653
:10BB300000270593CDE906673CF082F900287FF4E1
:10BB4000F8AEA30749461D481CD538F0A1FCB0FA51
:10BB500080F04009EEE61A4A1A490244A1FB02218C
:10BB6000890D013989B24A1CB0FBF2F01CE784F858
:10BB70000C1538E78A460F468EE7D8B2B9E7D2B23D
:10BB8000013A9FE738F06EFBB0FA80F04009D1E649
:10BB90009816012000000120006CDC02598B4F0137
:10BBA000ABAAAAAA6C1B01200038024098260120EB
:10BBB000F817050800600240DD910008681B0120AD
:10BBC00000366E01819F5E16040001207026012060
:10BBD000F8B50E4C94F8F8759FB104F5C064C7F140
:10BBE00009070925013D0ED0A6683079FFF70EF848
:10BBF000217DF27908B1FEF7C7F8AF4204F1A00445
:10BC0000F0D10120F8BDAB68FFDE00BF4C00002082
:10BC100010B58078FEF7FAFF90B10A494FF0410C59
:10BC200004460022D1F8C03D80F806C00133C1F8B7
:10BC3000C03D2021C371FEF7A7F82368A2889A614E
:10BC400010BD00BF9816012070B52B4C636BD90551
:10BC50001AD54FF4807240F2FF56284BA263A663B8
:10BC6000E26B274D1340E3632B6B9A071DD401222F
:10BC700000232A626B62204B40F2FF511F4A9963F6
:10BC8000D96B0A40DA6370BD636B980703D51C4B10
:10BC900002225A62EFE7636B190721D4636B9A069D
:10BCA00022D5174B06225A62E5E7164B53F8C02CF3
:10BCB000136823F0010313600022E36A23F00803F2
:10BCC000E362EA622B6BDB07D1D540F24C43A663FB
:10BCD0000121A2600C20E360FEF720FCA663C6E70A
:10BCE000074B04225A62C6E7636BDB06C3D5044BDD
:10BCF00005225A62BFE700BF002C0140C53EFFFF8E
:10BD00009816012090270120D0F8AC312DE9F04F92
:10BD100093F9298083B005790446B8F1000F93F8B0
:10BD2000299005F00205C0F297814FEA5912C64BDF
:10BD300009F01F0153F8226003EB8203CE4006F0A6
:10BD40000106002D40F0598101228A40C3F880206D
:10BD5000BFF34F8FBFF36F8FD4F8A011086820F4A2
:10BD6000F8700860886820F001008860C3F88021BE
:10BD7000BFF34F8FBFF36F8F04F59077D4F820A1F6
:10BD80002423A268C4F89431DAF8003023F00103C8
:10BD9000CAF800300023CAF80030CAF80430CAF8E4
:10BDA0000830C4F89C3184F89031C4F89431C4F858
:10BDB0004031C4F89831C4F82421C4E94D33637983
:10BDC0009A0203F0010102F48052C4F828211A03F8
:10BDD00002F40052C4F82C211A0202F48062C4F862
:10BDE0003021227912F0010B00F0F2800420C4F817
:10BDF000340115B10C20C4F83401002940F003814E
:10BE000094F8B4214AB1D4F8442142F00802C4F8AD
:10BE100044214FF40042C4F8542113F0080FD4F821
:10BE200094314FF024033846C4F89431DAF80030E6
:10BE300023F00103CAF8003000F0268138F04CFBF3
:10BE400001281FD0D4F84431002B40F04781DAF8A4
:10BE5000043023F49043CAF80430DAF8083023F0B1
:10BE60002203CAF80830DAF8083043F00803CAF8A9
:10BE700008303846DAF8003043F00103CAF80030E1
:10BE80003EF072FEBBF1000F64D0D4F8FCA0BAF112
:10BE9000000F00F0C68000234FF4807C04F13C0BBF
:10BEA000C4F83CA0C4E91133C4E91433C4E918331D
:10BEB000C4E91A33D4F80431584623644FF480633C
:10BEC000E3644FF48033C4E916C33FF075FB584672
:10BED00035F00CF8D4F89831C4F88CB1202B676792
:10BEE000019333D1E368626999B27AB3B1FA81F010
:10BEF0004009009051B394F89001012826D0A4F88D
:10BF00007811584600999BB2D4F820B1C4F89C111E
:10BF1000C4F88C102221C4F87421C4F898114B493C
:10BF2000A1674B49E1674B49C4F888100BF1240124
:10BF300035F076F8002800F0D98010230098C4F876
:10BF40009C31019B84F89001C4F89431DAF80430F4
:10BF5000C4F81431A5B3D4F800513DB3002304F163
:10BF60009C0AC4F89C50C4F8A8305046C4F8B830B5
:10BF7000C4E92C33C4E93033C4E93233D4F808318E
:10BF8000C4F8A0304023C4F8A4304FF48063C4F850
:10BF9000AC304FF48033C4F8BC303FF00DFB50465A
:10BFA00034F0A4FF002800F09380FEE7D4F8A0311D
:10BFB0001A6842F080021A601A6842F040021A6061
:10BFC000B8F1000F01DB002E71D103B0BDE8F08F96
:10BFD00015B10820C4F8340100293FF411AF9207CD
:10BFE0007FF50EAFD4F8442142F00102C4F8442199
:10BFF0004FF40032C4F8482102E790F8B251003DF6
:10C0000018BF0125A0E6D4F84411920741F00201BF
:10C01000C4F844114FF48031C4F84C117FF5F0AEF0
:10C02000E0E7D4F8A0311A6842F480721A609A6886
:10C0300042F001029A601A6842F020021A601A68FF
:10C0400042F010021A6085E700E100E031210408A7
:10C050006121040865210408D0F8A03125B190F8C9
:10C06000B251003D18BF01251A6822F4F8721A6017
:10C070009A6822F001029A60BFF34F8FBFF36F8F6F
:10C08000002604F5907779E638F026FA01283FF487
:10C09000F9AED4F844312BBBDAF8043023F49043E2
:10C0A000CAF80430DAF8083023F02A03DFE64FEA52
:10C0B0005911194A09F01F09012302EB810003FA03
:10C0C00009F3C0F8803142F8213003B0BDE8F08FA9
:10C0D000C4F888A1C4F8D470686071E7384638F0B5
:10C0E0006FFBB4E6384638F06BFBD5E784F8900177
:10C0F000DBF8003043F48073CBF80030DBF8083015
:10C1000043F00103CBF80830DBF8083043F040037C
:10C11000CBF808301AE700BF00E100E02DE9F0415C
:10C120000446EFF31185502383F3128803799B07AC
:10C1300002D590F8B2313BB9012384F8A431EDB2B5
:10C1400085F31188BDE8F081D0F800311B6813F049
:10C150000103F4D1D0F89421D0F898110A4302F0E9
:10C160002102212AEBD0D0E909129142E4D090B209
:10C170003ED8194623691B1A9BB2D4F89461A16278
:10C180000021202E84F8A411D9D1A1698918D6D014
:10C19000B3FA83F77F09002BD1D094F89021012ABC
:10C1A000CDD00122D4F88801A4F8723184F890210E
:10C1B0002122C4F89C71D4F82081C4F86C11A4F831
:10C1C0007031C4F89421B0B1114A0765C263114AB5
:10C1D0000264114AC26408F1280234F021FF50B110
:10C1E000102384F89071C4F89C31C4F89461A6E7D8
:10C1F000081A83B2C1E700234022C8F8202084F83F
:10C200009031D8F8083043F08003C8F8083096E73A
:10C21000092104082D210408652104082DE9F843AB
:10C220000379054613F0020604D090F8B261003E8F
:10C2300018BF0126D5F820412768D4F8088017F0E8
:10C24000200958D1FB0540F18880E369DA0701D560
:10C250000123236218F0010F7BD0E3699B0701D50E
:10C2600002232362E369580701D504232362E369AB
:10C2700019076BD4002E5FD07A0628D5E3695E06D5
:10C2800025D54023236295F8B561002E00F09080FB
:10C29000D5F80031002B68D02846FFF73FFF95F80E
:10C2A000A431A3B195F8B5418CB995F8B201FEF768
:10C2B000ADFCD5F820210121136823F00803136099
:10C2C00085F8B51118B122462021FDF75DFDD5F89E
:10C2D0000031002B49D0F9060BD5D5F82031DA69A9
:10C2E000D20606D56A6B12B19047D5F820311022DC
:10C2F0001A62BDE8F883E369980614D5606AEB6AB0
:10C30000C0B2002B48D0296B9847D5F8204123684C
:10C3100023F480732360A36823F00103A360A3695F
:10C3200043F00803A361F9058FD418F0010F94D1ED
:10C33000E36919079ED509E0236823F0C003236051
:10C34000E3695B06C7D540232362C4E70823236261
:10C3500090E7B9F1000F8DD089E718F0010F89D06F
:10C36000E3699B077FF57EAF7AE73C06B3D5D5F846
:10C370002021D3691806AED5D5E909138B422AD0FE
:10C38000A969C95C0133C9B291622A69B3FBF2F1B0
:10C3900002FB1133AB629EE7EB696A69D054EB692B
:10C3A000EA680133B3FBF2F102FB1133EB61ACE756
:10C3B00095F8B201FEF72AFC236823F008032360F6
:10C3C000012385F8B53100283FF462AF32462021C1
:10C3D000FDF7DAFC5CE7136823F0800313607AE76B
:10C3E000BFF34F8F0549064BCA6802F4E06213435E
:10C3F000CB60BFF34F8F00BFFDE700BF00ED00E053
:10C400000400FA0508B572B6FFF7EAFF70B582B00E
:10C41000FDF78CFF354BD3F85C38012B4DD0344CF5
:10C420000025344A0523C4F89850C4F89C50C4F839
:10C43000A020C4F89430BFF34F8FBFF36F8F4FF637
:10C44000FF01E2682C4B0A402C4E13432C4AE36058
:10C45000536F37F07BFC2B4BD4F8FC20A3FB00136D
:10C46000294942F080729B0CC4F8FC2046F8BC3C81
:10C47000264B274AD3F82834A1FB031325499B09EF
:10C48000C2F8B01F5560013B1168B3F1807F41F0E5
:10C490000101116007D34FF0E022136943F0040358
:10C4A000136102B070BD4FF0E022F0215361072309
:10C4B00084F8231095611361EDE702210320FDF755
:10C4C0002FFF0F4B14485A6C144942F480425A64AF
:10C4D0005B6C03F480430193019A02680B6802606D
:10C4E00083F308884B689847FEE700BF00200040B0
:10C4F00000ED00E01B0000060005FA059027012072
:10C500000038024083DE1B43D34D62109816012091
:10C51000001000E055CEACC5003801400000F01F0F
:10C52000800AA0F5801052281CD80F4B034493F8C2
:10C53000F4330D2B16D8013910B40C4C04EB831CCA
:10C54000D4F828448BB2DCF814050CF5A361CCF8C0
:10C550002035B4FBF2F2013A5DF8044BCCF8182513
:10C5600037F0B0BE704700BFF817050898160120D5
:10C5700070B50468A30AA3F58013522B05D82D4E7D
:10C58000334493F8F4530D2D00D970BD2046FCF7C9
:10C5900063FE294BA801022203EB8515D5F814157B
:10C5A00085F85125254A8D682A40062A06D0B2F51D
:10C5B000803F03D00A6842F001020A601A18012184
:10C5C000002382F851151E4951F8332094420AD0B5
:10C5D00001330E2BF8D1012100203CF007FB194B51
:10C5E00001221A6070BD06EBC306012196F991483D
:10C5F00096F8915820463CF0F9FA002CC5DB05F07E
:10C600001F0201216B090F4C01FA02F21B2D44F8A5
:10C61000232006D119203CF0E9FA4FF00073236083
:10C6200070BD2E2DB1D12C203CF0E0FA4FF4805398
:10C63000636070BDF8170508981601200700010017
:10C640008420050800E100E003689B0AA3F580133D
:10C65000522B55D8F0B5364C234493F8F4330D2BB8
:10C660004DD840790225334C4FEA831C20FA05F758
:10C6700003EB830004EB831603EB4000BD40D6F8C8
:10C680001465BE463844F76800293FD03D4304EBAB
:10C690008007C7F89810C7F8A820F560EFF3118558
:10C6A000502282F312882C2101FB0340D0F8942001
:10C6B0003AB3111DC0F8B8201F4A03EB83001F4E88
:10C6C00003EB4000800006441030024452F8040F8F
:10C6D00008B10860011DB242F8D10022EDB20A6033
:10C6E00085F311882C2202FB0343D3F8B830BBB189
:10C6F000A444DCF81425D36843F00103D360F0BDF3
:10C7000070470D4A01FB03212431D6E727EA0505CE
:10C71000F56004EB8005C5F89810C5F8A820BDE7C2
:10C720006444D4F81425D36823F00103D360F0BD2A
:10C73000F8170508981601202C1701204C17012026
:10C7400003689B0AA3F58013522B00D970470F4A48
:10C75000134493F8F4330D2BF8D8022210B40C4C88
:10C76000407904EB831C20FA02F3DCF8140502FA8A
:10C7700003F3C26829B922EA03035DF8044BC360DE
:10C78000704713435DF8044BC3607047F817050802
:10C790009816012003689B0AA3F58013522B10D82A
:10C7A000084A134493F8F4230D2A0AD84079022347
:10C7B0000549D84001EB82128340D2F81425DB43AF
:10C7C00013617047F81705089816012001490248BF
:10C7D000FCF71EBC2C1701200000014010B5064CD0
:10C7E000064804F19401FCF713FC04F508710448B1
:10C7F000BDE81040FCF70CBC981601200000014079
:10C800000044014002494FF08040FCF701BC00BFEA
:10C810005817012001490248FCF7FABB8417012090
:10C820000004004001490248FCF7F2BBB0170120A8
:10C830000008004001490248FCF7EABBDC17012070
:10C84000000C0040F8B5164D164E2A69EB681A40E8
:10C850004FF00040B2FA82F3EAB120FA03F3012A62
:10C860006FEA030302EA03012B610A46F2D1D6F80C
:10C8700098718FB1013F0023BFB2C6F89831D6F846
:10C88000944134B123682046394698476468002CA7
:10C89000F8D10022DCE7F8BDEF6ABFB2EFE700BFD6
:10C8A000001000409816012001490248FCF7B0BB77
:10C8B000601801200004014010B5064C064804F53C
:10C8C000E471FCF7A5FB04F529710448BDE81040AC
:10C8D000FCF79EBB9816012000040140001C00409C
:10C8E00001490248FCF794BB8C180120004001402C
:10C8F00001490248FCF78CBBE418012000480140C4
:10C9000001490248FCF784BB1019012000180040BF
:10C910002DE9F0414FF425728EB000215E4843F0BE
:10C92000DBFC5E4B5E4D4FF000085A6C40F2222754
:10C93000A5F6FC06A5F1700442F001025A645A6C97
:10C9400002F001020092009A1A6C42F001021A648D
:10C950001A6C02F001020192019A1A6C42F0020272
:10C960001A641A6C02F002020292029A1A6C42F0E5
:10C9700004021A641A6C02F004020392039A1A6CFD
:10C9800042F008021A641A6C02F008020492049A37
:10C990001A6C42F010021A641A6C02F0100205922E
:10C9A000059A1A6C42F020021A641A6C02F02002F6
:10C9B0000692069A5A6C42F002025A645A6C02F0CD
:10C9C00002020792079A5A6C42F480325A645A6CF7
:10C9D00002F480320892089A5A6C42F400325A6487
:10C9E0005A6C02F400320992099A5A6C42F480227D
:10C9F0005A645A6C02F480220A920A9A1A6C42F023
:10CA000040021A641A6C02F040020B920B9A1A6CE4
:10CA100042F080021A641A6C02F080020C920C9AA6
:10CA20001A6C42F480721A641B6C03F480730D93C9
:10CA30000D9B55F82810002354F83320914226D03E
:10CA400001330E2BF8D1002008F107083CF0FAF86A
:10CA5000B845EED14FF0000840F2222755F82810D3
:10CA6000002354F8332091420CD001330E2BF8D11F
:10CA7000002008F107083CF0E5F8B845EED10EB00B
:10CA8000BDE8F08106EBC30393F89008F1E706EBED
:10CA9000C30393F89008D7E72C1701200038024011
:10CAA000F4200508800AA0F5801052280ED8084B03
:10CAB000034493F8F4230D2A08D8064B03EB8213A2
:10CAC000D3F81425136843F001031360704700BFC7
:10CAD000F81705089816012037B590F8673804460E
:10CAE000032B2FD10023204D8DF807309DF8073000
:10CAF00094F868289A4201D803B030BD9DF80730F9
:10CB000005EBC30313F8B43C8BB181F0010383B18F
:10CB10009DF8073005EBC30353F8B80CFCF744FD50
:10CB20009DF807300133DBB28DF80730DEE70B46A6
:10CB3000EDE79DF8073005EBC30353F8B80CFCF79D
:10CB40004FFFEDE7D0E910039B7903F00103994211
:10CB500004D003B0BDE83040FCF726BD03B0BDE80B
:10CB60003040FCF73DBF00BF9027012038B5044698
:10CB700000790D4650B1FEF749F808B10323C38090
:10CB8000E2792946BDE83840FDF7DAB938BD10B57D
:10CB900004462221FFF7EAFF2046FFF7FBFD20466F
:10CBA0000121BDE81040CBE510B504460121FFF797
:10CBB000DDFF00212046BDE81040C1E538B510F882
:10CBC000133CA0F66C041BBB94F858388BBBD4E91B
:10CBD00009239A421CD05A1CA169A262CB5C21692C
:10CBE0005B008A4228BF002243F40073A262A4F8CB
:10CBF0005C380A2384F85A38012384F8583894F8AA
:10CC00006738012B01D0042B02D1606CFFF7CCFFF9
:10CC100094F85438002B6DD194F855380133DBB2B9
:10CC2000092B84F8553825D12046BDE83840FBF75C
:10CC3000E3BC94F95A586DB1B4F85C18013D204634
:10CC40004B0801F00101A4F85C38FFF745FF84F8B8
:10CC50005A58DDE7D4E9092384F858589A42D7D1C5
:10CC600094F86738012B01D0042BD1D1606CFFF709
:10CC70008EFFCDE70A2B3DD194F857382BB9B4F885
:10CC80005E3843F00103A4F85E382379D9070AD54A
:10CC9000B4F85E08820501D4C30718D4B4F8643828
:10CCA0000133A4F864380122002384F8542894F84E
:10CCB000572884F85538012A1CD16179606C84F8B2
:10CCC000573801F00101BDE838403AF025BDE36A6C
:10CCD000C0F3470013B1216B9847E4E7E369626949
:10CCE000D054E369E2680133B3FBF2F102FB113384
:10CCF000E361D8E738BD00BF2DE9F041A34CA4B0F3
:10CD0000D4F85C38022B00F03582A148A14AA24930
:10CD1000121A42F0F3FDA148A14AA249121A42F0A8
:10CD2000EDFDD4F85838012B00F2C18003EB43032A
:10CD30009D4A9E4D02EB430032F8132041888388C0
:10CD4000C5E99121C5F84C32994C9A4E9A4BB2FBE9
:10CD5000F1F29A4901FB02F20021C6F82824D4F826
:10CD6000882042F47002C4F888201A6842F0010258
:10CD70001A609960924A1868024092481A60C0F39B
:10CD80000807914A5A601A6822F480221A60D96012
:10CD900007B1FEE78D49A0604FF6FF000A688C4B93
:10CDA00042F400720A60E26802401343E3603CF020
:10CDB00039FABFF34F8FBFF36F8FC4F85072BFF3D0
:10CDC0004F8FBFF36F8F636943F400336361BFF329
:10CDD0004F8FBFF36F8FC4F88470BFF34F8FD4F8B9
:10CDE000803043F6E07CC3F3C90EC3F34E335801E1
:10CDF00000EA0C01734641EA8372013BC4F86022E9
:10CE00005A1CF8D1203810F1200FF1D1BFF34F8F09
:10CE1000636943F480336361BFF34F8FBFF36F8F58
:10CE20006A49654B0A6842F480720A60196C694A63
:10CE300041F080511964196C01F0805102910299FE
:10CE4000116841F4404111601268D5F8447202F44F
:10CE500040420192019A9A6802F00C02042AD5E934
:10CE6000928100F08D809A6802F00C02082A00F08E
:10CE70008380514A584C136843F48033136054F84C
:10CE8000780C04E054F8783C1B1A642B73D81368B0
:10CE90009D03F7D5484A936803F00C03082B6AD02A
:10CEA000136823F08073136054F8780C08E03F4D4A
:10CEB000D5E9912148E754F8783C1B1A022B5AD83F
:10CEC00013689B01F7D40B064FEA580143EA871316
:10CED000013943EA0143414919435160136843F062
:10CEE00080731360344A54F8781C04E054F8783C9A
:10CEF0005B1A022B3FD813689D01F7D5136C43F0E2
:10CF000080531364136C334A03F080530393039BE1
:10CF1000136843F48033136054F8781C05E054F828
:10CF2000783C5B1AB3F57A7F2ED85368D803F6D5D0
:10CF3000136843F400331360264A54F8781C05E064
:10CF400054F8783C5B1AB3F57A7F1DD853689B037D
:10CF5000F6D54FF400134FF4C07204A804934FF0B9
:10CF6000006321930723CDE9082303230A9336F0B6
:10CF700021FFA8B3FEE7FEE75B685B027FF579AFB0
:10CF80000D4B154C1B6885E7FEE700BF00200040F5
:10CF900000000000383600009C1106080000002048
:10CFA0004C000020A06806087C290508000001202C
:10CFB00000ED00E0981601200038024040420F00CA
:10CFC000FFFFF6FE0000000810300024003C024085
:10CFD0000003FA050070004090270120080040205F
:10CFE000674A136803F00F03062B0AD8136823F06F
:10CFF0000F0343F007031360136803F00F03072BBD
:10D0000063D1604B9A6842F4E0529A609A6842F4A5
:10D0100060429A609A6822F0F0029A601A68900161
:10D0200053D59A6841F2883022F0030242F002029E
:10D030009A6054F8781C04E054F8782C521A824212
:10D0400043D89A6802F00C02082AF5D14C4A1368BA
:10D0500019070AD5136823F00F0343F00703136081
:10D06000136803F00F03072B2FD1464D464CAB68D6
:10D0700023F4E05343F4A053AB60AB6823F4604364
:10D0800043F40043AB6036F061FEAB68C3F30313B7
:10D09000234493F8983020FA03F3C6F828343CF080
:10D0A000C1F8002304A8CDE91333CDE91533CDE948
:10D0B0001733CDE91933CDE91B33CDE91D33334B9C
:10D0C000049336F077FE08B1FEE7FEE702234FF047
:10D0D000007204A8CDE90633D823CDE90423012347
:10D0E0000B9336F067FE00B1FEE7D5F88C3023F0E5
:10D0F0008073C5F88C30D5F88C3043F08073C5F858
:10D100008C30AB6803F00C03042B2ED0082B12D00C
:10D110001F4B2049B7FBF8F201FB02F2194989685D
:10D12000C1F303110C4494F89810CB409A42C6F80E
:10D1300028341CD0FEE76B686A6813F4800F6B68B4
:10D1400002F03F0218BF1449C3F3881308BF104907
:10D15000B1FBF2F202FB03F30A4A5268C2F3014246
:10D1600001325200B3FBF2F3D3E70B4BD1E724B00B
:10D17000BDE8F08100210320FDF7D2F8FFF730F978
:10D18000003C024000380240F0280508C0FF0300C0
:10D190000024F40040420F0000127A0030B4EFF394
:10D1A0001182102383F312880C4C4FF0E0200C4BBB
:10D1B0000025D4F82014D2B20131C4F820148169BA
:10D1C00043F8741C43F8705C016982F3118853F8CA
:10D1D000782C013230BC43F8782C70479816012027
:10D1E0009027012010B4EFF31183102282F31288EC
:10D1F0004FF0E0229469116911F4803F0E4903D089
:10D20000012041F8700C94690C4ADBB2D2F820047A
:10D2100051F8702C83F31188024451F8BC1C4FF470
:10D220007A7000FB01F31B1B5DF8044BB3FBF1F3B9
:10D2300000FB0230704700BF9027012098160120A4
:10D24000134B5B68C3F308030BBBEFF31183F3B914
:10D25000104A4FF0E02C10B40F4CD2F82034DCF818
:10D260001800D2F820148B42F7D154F8741C88426D
:10D27000F3D854F8BC4C4FF47A7101FB04F2121A43
:10D28000B2FBF4F25DF8044B01FB03207047A9E701
:10D2900000ED00E098160120902701202DE9F04FC5
:10D2A000384C83B023781BB9012003B0BDE8F08F60
:10D2B000354B04F58764DFF8D8B04FF0000AD3F897
:10D2C00020344FF6FF7894F8C0910BF53875ABF524
:10D2D000F1662E4F019314E0B0F5606F43D0A88142
:10D2E000B0EB0801019A584618BF01210DF090FCDF
:10D2F0000AF1010A0BF15C0B20341435BAF1080F66
:10D300002AD0CA4528D0A0696268D0E93D0144F01E
:10D3100017FA4FF6FE7317F86B2C984214D0542A64
:10D3200004D137F8682C013227F8682CD6F8702A17
:10D33000404502F10102C6F8702ACDD1D6F86C2A18
:10D340000132C6F86C2ACBE7542AD1D137F8662CC3
:10D35000013227F8662CCBE70123012086F86C3BCD
:10D3600003B0BDE8F08F084B93F8CC2402EB4202E7
:10D3700003EBC202524492F879240D2AAFD18022E5
:10D38000AA77ADE74C0000209816012090270120D5
:10D39000CC18002070B544F003FA80B31A484568F1
:10D3A000002D10DD002410F8086B16B1037F012B4F
:10D3B0001FD04269013400F586701368AC4243F017
:10D3C00001031360F1D1FFF73BFF104BD3F8844703
:10D3D000002C0DDD03F2647303EBC40419680833F9
:10D3E00033F8042CC868A34242EA0002CA60F5D1AF
:10D3F00070BD002380F8FC30FAF7A4FED9E740F0B6
:10D40000ABFF0028CAD170BD4C00002044110020A1
:10D410002DE9F04F894C87B023781BB9012007B064
:10D42000BDE8F08F864BD3F820340493FFF708FF54
:10D4300094F8F8250192002A00F0F880814A04F55A
:10D44000C0640027D2F8783B02F5F16B02F6682A37
:10D450002646A0EB03080594B8F1000F03DBF36D3B
:10D46000434500F3C98007EB8703744A02EB43137B
:10D4700093F8583603F0FF0E002B00F08780D6F8A3
:10D480009410B36870481A68CBB221F0FF01103BCA
:10D49000A0FB03036D481B09C35C0B44B1895C68A6
:10D4A000D368A4B223EA0103C4F11604D360072CA5
:10D4B0006CD9644A0121D2F8703A89460133C2F826
:10D4C000703A0022D6F89C30154618689C46CDE983
:10D4D00002E715E0142D1EDC17F1080E48BF07F116
:10D4E000170E4FEA2E1705EB2E1507F1FF3E0131FF
:10D4F00002FA07F709FA0EFE8C424EEA07020AD337
:10D5000007468C425CF8040FA0EB0707E2D8C5F190
:10D5100015071525E9E7152DDDE902E762D14C4C29
:10D52000C2F38421C2F3441004EB810104EB8000B8
:10D53000D1F82811D0F82801090241EA001102F0BF
:10D540001F00C2F3C43204EB800004EB8202D0F867
:10D550002801D2F82821014341EA023282EA12214D
:10D5600081EA111101F00F010F293BD1C2F30F1213
:10D570004FF6FF718A4235D0B2F5606F40D0AAF8FD
:10D580000C207146049A58460DF042FB3046013794
:10D59000FCF718FF019BA0360BF15C0BBB420AF1B4
:10D5A000140A7FF459AF019B0121059C002203EB73
:10D5B0008303244804EB431380F86C1BC0F8782BDA
:10D5C000A268A03414F8901C126854F84C0C11F0A6
:10D5D000020F116A14BF41EA80010143A3421162A4
:10D5E000EED11BE71749D1F86C2A0132C1F86C2A39
:10D5F000B7B14FF0000EC4E7002007B0BDE8F08FD0
:10D600000F4991F8CC3403EB430301EBC3033B44D4
:10D6100093F879340D2BB2D180238AF81E30B0E70D
:10D62000194658220B4842F069F9E2E7054B0122FE
:10D63000019983F86C2BC3F8781BEFE64C000020AF
:10D640009816012044110020ABAAAAAA5C8A0508FA
:10D65000F0280508581C00202DE9F84FDFF8C88095
:10D66000FFF7EEFDDFF8C4B08146D8F80470002063
:10D670002B4C2C4E002F47DD00234FF486711D46A6
:10D6800001FB0382013392F805219F4245EA02051E
:10D69000F6D128435FFA80FADBF80430C3F30803BD
:10D6A0007BBBEFF3118363BB4FF0E020D4F8203451
:10D6B0008169D4F820249342F8D156F8742C914211
:10D6C000F4D856F8BCCC4FF47A7202FB0CF0401A36
:10D6D000B0FBFCF002FB0300A0EB0903B3F5FA6F0B
:10D6E000CCBF002005F001000028C3D1BAF1000F23
:10D6F00004D00C4B13F86B2C542A08D05046BDE8CC
:10D70000F88FFFF76FFDE7E782460025C4E733F89F
:10D71000642C5046013223F8642CBDE8F88F00BF1A
:10D7200098160120902701204C00002000ED00E019
:10D730002DE9F04F8C4C83B00646D4F8D8B894F855
:10D74000E0380091BBF1000F0BD083F00202BBF870
:10D750000410C2F34002120101FA02F2DBF80010D9
:10D760008A61D4F8D4783FB103F00103BA881B0171
:10D7700002FA03F33A689361013E7C4DDFF8F0A1B1
:10D78000F6B2BBF1000F08D0DBF80020BBF8043084
:10D7900051690B4218BF1B049361002F00F0DC801D
:10D7A0003A680120BB8851690B4218BF1B04936182
:10D7B0000FF072F8DDF80080019646466B68C3F3FF
:10D7C0000803002B40F0C480EFF31183002B40F0DE
:10D7D000BF804FF0E02CD4F82034DCF81800D4F8E7
:10D7E00020249342F7D15AF8742C9042F3D85AF877
:10D7F000BC2C4FF47A7101FB02F8A8EB0008B8FBCF
:10D80000F2F801FB03884FF0E0296B68C3F30803CB
:10D81000002B40F09680EFF31183002B40F09180B5
:10D82000D4F82034D9F81810D4F820249342F7D132
:10D830005AF8742C9142F3D85AF8BCCC4FF47A724F
:10D8400002FB0CF0401AB0FBFCF002FB0300A0EB63
:10D850000803B3F57A7FD8D3013EAFD1019EBBF167
:10D86000000F08D0DBF80020BBF8043051690B42F0
:10D8700018BF1B049361002F72D03A680020BB8848
:10D8800051690B4218BF1B0493610FF005F8DDF8D6
:10D890000080019646466B68C3F30803002B53D102
:10D8A000EFF31183002B4FD14FF0E02CD4F820344C
:10D8B000DCF81800D4F820249342F7D15AF8742CDD
:10D8C0009042F3D85AF8BC2C4FF47A7101FB02F85D
:10D8D000A8EB0008B8FBF2F801FB03884FF0E02941
:10D8E0006B68C3F308034BBBEFF3118333BBD4F86E
:10D8F0002034D9F81810D4F820249342F7D15AF8DC
