:020000040800F2
:10000000F8FF012015800908B1800908F9410508A9
:10001000B1800908B1800908B1800908000000001A
:10002000000000000000000000000000B18009088E
:10003000B180090800000000B1800908FD600408D3
:10004000B1800908B1800908B1800908B1800908A8
:10005000B1800908B1800908ED1C0408151D0408C9
:100060003D1D0408651D04088D1D0408490300009A
:100070005D03000071030000850300009903000088
:10008000AD030000C1030000B1800908B180090878
:10009000B1800908B1800908B1800908B51D0408BC
:1000A000B18009089D430408B18009088D43040804
:1000B000AD430408BD430408CD4304086514040897
:1000C00059140408991404088D140408B18009080F
:1000D000B1800908CD3D0000953F00007941000046
:1000E000F51D0408B18009080000000089440408D7
:1000F000614404089944040851440408D5030000ED
:10010000B180090875280408DD430408B180090896
:100110006143000049450000ED430408717B080875
:10012000E9030000FD0300001104000025040000A5
:1001300039040000B1800908B1800908B1800908BC
:1001400000000000000000000000000000000000AF
:100150004D040000610400007504000031470000F8
:10016000CD140408C1140408B1800908B18009083D
:10017000B1800908B1800908B180090800000000B9
:10018000B1800908B180090819490000014B00003D
:10019000B1800908B1800908B1800908B180090857
:1001A000B1800908B1800908B1800908B180090847
:1001B000B1800908B1800908B18009080115040857
:1001C000F5140408B1800908B1800908B180090854
:1001D000B1800908B1710808B1800908B180090827
:1001E000B1800908B1800908B1800908B180090807
:1001F000B1800908B1800908B1800908B1800908F7
:10020000B1800908B1800908B1800908B1800908E6
:10021000A9440408B9440408C9440408B180090881
:10022000B1800908B1800908B18009080000000008
:1002300079280408B180090800000000B18009088D
:10024000B1800908B1800908B1800908B1800908A6
:10025000B1800908B1800908B1800908B180090896
:10026000B1800908B1800908B1800908B180090886
:10027000B1800908B1800908E94C000000000000C5
:10028000B180090800000000B180090800000000EA
:0802900000000000B180090824
:020000040804EE
:10000000114A037A0168D35C10B4CC58CA1824F0A2
:100010000104CC501368DB07FCD4037D1F2B09D9E6
:10002000203B20225DF8044B02FA03F343F018034F
:10003000CB60704720225DF8044B02FA03F343F0D3
:1000400018038B60704700BF34030A084368426D91
:1000500030B49A61EFF31182502383F31288416820
:10006000D2B2856C0B68046D23EA050323430B6051
:1000700082F31188436981681A68096822F00102D5
:10008000D0E908541A60826A1D605C615A60D0E948
:100090000B429C60DA600023B0F86C2030BCCA626E
:1000A00003777047002A4FEA014C034630B508BF7A
:1000B000E64600F1C00514BF8E468C460024196840
:1000C0000C3353F8042C43F8084C41EA0C0142EA83
:1000D0000E02AB4243F80C1C43F8042CEFD1D0F8CD
:1000E000C03043EA0E03C0E93144C0F8C03030BD2F
:1000F00010B40C4C6368002B11DD002004F1080CD7
:100100000146DCF8AC3003F1C00259600C33934275
:10011000FBD1013063680CF5867C8342F1DC5DF82D
:10012000044B704704000020F0B5404C04EB401332
:1001300093F8543403B9F0BD3D4B42011D7893F858
:1001400001C065450CD00CEB4C0E03EBCE0E9EF8B7
:1001500004604FEA4C0E771E012F5AD9032E52D05D
:100160002244A2F83814EFF31181902383F312880C
:1001700092F83A34C9B2B2F8380443EA4003002096
:100180009BB282F83A0481F311881909207881EA38
:1001900013215940D8B1C9431B01D2F8505401244E
:1001A000D2F83C049BB201F00F01D5F8AC2084409A
:1001B0000B4302F1C000590013F4004F8BB202D17F
:1001C0005168214351600C329042F4D1F0BDD2F815
:1001D0003C041B01D2F8502401F00F0110309BB2F7
:1001E0000124D2F8AC200B43844002F1C000590036
:1001F00013F4004F8BB202D15168214351600C328D
:100200009042F4D1F0BD0CF1010606F00306AE42B7
:10021000A6D0E64403EBCE030344597C00299FD0CB
:10022000A318012083F83A049AE700BF04000020D5
:10023000C0180024704700BF024B03EB401393F833
:100240005504704704000020C34BD3E9191270B560
:100250008C0F93F8F050100EC2F3072C83F89840DF
:10026000C1F383640001012D83F89940C1F3016457
:1002700083F89A40C1F3074483F89B40C1F30724F5
:10028000C9B283F89C40C2F3035483F89D10A3F8CD
:100290009E00C2F3C030B3F89E1089B241EA040157
:1002A000C2F30344A3F89E10C2F3403183F8A04088
:1002B000C2F3803483F8A1004FF0000083F8A2401D
:1002C00083F8A310C2F3003183F8A410D96E83F829
:1002D000A50040F2EB80022D00F0BF802A204FEAFB
:1002E0004C0C83F8B140C1F3C01201F07F010CF057
:1002F0007E0C83F8B2C04FF0010C93F8B240144367
:100300001A6F83F8B240D40F83F8B310910D83F8BD
:10031000B440C2F3417401F00C01C2F3815583F87B
:10032000B540C2F3826483F8B64083F8B71093F8FF
:10033000B7105C6F294383F8B710C2F3405183F8BC
:10034000B810002183F8B910C2F3004183F8BA1045
:10035000C2F3C03183F8BB10C2F3803183F8BC1004
:10036000C2F3403183F8BD10C2F3003183F8BE10F0
:10037000C2F3812183F8BF10C2F30121C2F3460208
:1003800083F8C010C4F3074183F8C120220E09028C
:1003900083F8C2C083F8C420C4F30722A3F8C610B0
:1003A0002406B3F8C61089B21143A3F8C610996F9A
:1003B000C3F8C8400C0ED3F8C82042EA0442C3F880
:1003C000C8200A0AD3F8C84002F47F422243C1F38E
:1003D0000724C9B2C3F8C820D3F8C850DA6F2C4339
:1003E000C3F8C84083F8CC10110E83F8CD10110C5F
:1003F0000906C3F8D0101102D3F8D0400A4601F420
:100400007F01214392B2D3F88040C3F8D010D3F8D3
:10041000D0100A43C3F8D020C4F30352D3F8D0104D
:1004200041EA1461C3F8D01093F8D4101143C4F317
:10043000072283F8D410210A01F47061A3F8D610C2
:10044000B3F8D61089B21143C4F34602A3F8D6100C
:1004500083F8D82083F8D9C070BD1204C1F3072CEB
:100460000D0E02F47C12C3F8A820C1F30742D3F8A2
:10047000A84044EA0524C3F8A840D3F8A840224382
:100480004FF40074C3F8A820D3F8A820C3F8E840BC
:10049000013240F10004A40244EA92549202C3F8EB
:1004A000E440C1F38034C3F8E02018E74FEA8C2C15
:1004B000C1F3C26594000CF44062C1F3072C04F44C
:1004C0007F74C3F8A820D3F8A8201443CA0BC3F83C
:1004D000A84002F00602D3F8A84044EA9174C3F899
:1004E000A840C1F3026483F8AC50012583F8AD4005
:1004F000C1F3425483F8AE40C1F3824483F8AF4065
:10050000C1F3C03483F8B02093F8B020224383F8BD
:10051000B020D3F8A84093F8B02093F8A06002323E
:1005200005FA02F2B540D617A2FB052EC3F8E85033
:1005300005FB06EE04FB0EEE0134A2FB0424A644E8
:10054000520AC1F3803442EACE52C3F8E0204FEAA7
:100550005E22C3F8E420C2E6C0180024D0E90920D6
:10056000131A58425841704790F8573830B53BB984
:1005700090F85518012490F85638DAB2914200D814
:1005800030BD04FA03F2B0F85E5801332A43A0F8F4
:100590005E28F2E70379024613F0010006D0D2E9A3
:1005A0000731D2685B1A013A03EA0200704710B5BE
:1005B0000379044613F001030ED0FFF7EBFF034667
:1005C00050B1226A6369E1689B5C0132B2FBF1F0D1
:1005D000DBB201FB10222262184610BD03799B0793
:1005E0000AD5436A8269D154436A02690133B3FB75
:1005F000F2F102FB1133436270477047017170479B
:100600000379014613F0020007D00B69D1E90921F3
:10061000013B521A1A40D2B2981A704710B584465C
:100620004FEA810E102312F4004F4FEA420214BF2A
:100630000E240724013B92B2CCF80040F444F2D1DE
:1006400000EB81128C010351122042F8213010BDC1
:1006500010B584464FEA810E0424130B013C4FEA87
:10066000021203EB430392B203F11803CCF80030FB
:10067000F444F2D100EB01130A018450062043F840
:10068000214010BD704700BF704700BF00EB400025
:10069000024B03EBC00393F84905704704000020A8
:1006A000064B93F8F825824206D900EB400003EB95
:1006B000C003D3F84C0570470020704704000020A9
:1006C0001D4B93F8FC25AAB3D3F8381509B10020C7
:1006D0000860012A2ED0D3F8501509B10020086017
:1006E000022A27D0D3F8681509B100200860032A30
:1006F00020D0D3F8801509B100200860042A19D051
:10070000D3F8981509B100200860052A12D0D3F853
:10071000B01509B100200860062A0BD0D3F8C8151F
:1007200009B100200860072A04D0D3F8E0350BB1E6
:1007300000221A60704700BF040000201D4B93F890
:10074000FC25AAB3D3F8381509B100200860012AA6
:100750002ED0D3F8501509B100200860022A27D006
:10076000D3F8681509B100200860032A20D0D3F817
:10077000801509B100200860042A19D0D3F8981513
:1007800009B100200860052A12D0D3F8B01509B1CC
:1007900000200860062A0BD0D3F8C81509B1002044
:1007A0000860072A04D0D3F8E0350BB100221A60A4
:1007B000704700BF04000020C34B1B78002B40F0A3
:1007C0004D81C24B93F8FC25002A00F0478193F835
:1007D000481530B500294ED1D3F838150020012A2C
:1007E000086047D993F86015002966D1D3F85015F1
:1007F0000020022A08603DD993F87815002940F0BE
:10080000C980D3F868150020032A086032D993F80C
:100810009015002940F0E080D3F880150020042ACC
:10082000086027D993F8A815002940F0F680D3F87E
:1008300098150020052A08601CD993F8C0150029D6
:1008400040F00D81D3F8B0150020062A086011D9B8
:1008500093F8D815002959D1D3F8C8150020072AD4
:10086000086007D993F8F025002A72D1D3F8E03553
:1008700000221A6030BDD3F83C25910AA1F5801101
:10088000522940F20D814FF0FE0CEFF31181502000
:1008900080F312888E4C4FF02C0E556AC9B2506905
:1008A0000EFB0C4C013540F00100CCF81C5150619E
:1008B00081F3118893F8FC258EE7D3F85425910A2B
:1008C000A1F58011522940F2EF804FF0FE0CEFF3BA
:1008D0001181502080F312884FF02C0E556A7C4C09
:1008E000C9B2506901350EFB0C4440F00100C4F858
:1008F0001C51506181F3118893F8FC250020D3F836
:100900005015022A08603FF677AFB3E7D3F8CC253D
:10091000910AA1F58011522900F2E2806D4810F889
:1009200001C0EFF31181502080F312884FF02C0E9C
:10093000556A674CC9B2506901350EFB0C4440F052
:100940000100C4F81C51506181F3118893F8FC2513
:1009500082E7D3F8E425910AA1F58011522900F22B
:10096000C2805C4810F801C0EFF31181502080F381
:1009700012884FF02C0E556A554CC9B2506901359A
:100980000EFB0C4440F00100C4F81C51506181F38F
:1009900011886BE7D3F86C25910AA1F580115229D3
:1009A00040F286804FF0FE0EEFF31181502080F36D
:1009B00012884FF02C0C556A454CC9B2506901356C
:1009C0000CFB0E4440F00100C4F81C51506181F34F
:1009D000118893F8FC2514E7D3F88425910AA1F532
:1009E0008011522968D94FF0FE0CEFF3118150208D
:1009F00080F312884FF02C0E556A354CC9B25069FD
:100A000001350EFB0C4440F00100C4F81C5150614C
:100A100081F3118893F8FC25FEE6D3F89C25910A12
:100A2000A1F5801152294BD94FF0FE0CEFF3118143
:100A3000502080F312884FF02C0E556A244CC9B216
:100A4000506901350EFB0C4440F00100C4F81C5104
:100A5000506181F3118893F8FC25E8E67047D3F8DC
:100A6000B425910AA1F58011522935D94FF0FE0C19
:100A7000EFF31181502080F312884FF02C0E556A4D
:100A8000134CC9B2506901350EFB0C4440F0010013
:100A9000C4F81C51506181F3118893F8FC25D1E60C
:100AA0000C4810F801C0F0E60A4810F801C00EE743
:100AB000084810F801E077E7064810F801C094E70D
:100AC000044810F801C0B1E7000000240400002031
:100AD000C0180024108B0908044810F801C0C7E7AB
:100AE0004FF0FE0C1DE74FF0FE0C3DE7108B0908A0
:100AF00000EE100AB8EE400A704700BFBCEEC00A14
:100B000010EE103A98B2704707280AD84FF4B47222
:100B1000054B02FB0033B3F80006B0FA80F0400941
:100B200070470020704700BF04000020072807D846
:100B3000044B4FF4B471012201FB003383F8022609
:100B4000704700BF04000020072808D8044B03EBBF
:100B5000401393F8542412B1012283F83A247047C9
:100B600004000020072808D8054B03EB4013B3F816
:100B70003804B0FA80F0400970470020704700BF89
:100B800004000020054B93F8F825824204D903EBBA
:100B90004013D3F84404704700207047040000203D
:100BA00038B5074B14460D46D3F888331B6A98476F
:100BB00002464FF40073002012682A60238038BD7B
:100BC000C018002408B5064BD3F8883323B15B69FD
:100BD0009847013840B208BD4FF0FF3008BD00BF54
:100BE000C0180024002070472DE9F04113B31646C9
:100BF0000F4603EB0208134CD4F888530023394600
:100C00003046AD681A46A8470028F5D0D4F8883396
:100C1000002BFBD05B6998470028F7D0013607F519
:100C20000077B045E8D1D4F88C330020C4F8903375
:100C3000BDE8F081034C0020D4F88C33C4F8903325
:100C4000BDE8F081C01800242DE9F04143B31646F9
:100C50000F4603EB0208164C04E0D4F8881319B1D0
:100C60004B699847D4F8881300230D6930463946FC
:100C70001A46A8470028F0D1D4F88833002BFBD0BF
:100C80005B6998470028F7D0013607F50077B04533
:100C9000E8D1D4F88C330020C4F89033BDE8F0815B
:100CA000034C0020D4F88C33C4F89033BDE8F081B5
:100CB000C01800240020704770B50E4E0D46144633
:100CC000D6F8E8333BB11A689B881269134096F84E
:100CD000E52352B15BB9FFF7B7FA4FF40073D6F8CA
:100CE000E02000202A60238070BD002BF3D14FF05C
:100CF000FF3070BDC01800240020704700207047EE
:100D0000034B93F8B803003818BF0120704700BFA9
:100D1000C0180024816D03460A6A52681278FF2ABF
:100D200009D090F8F020013A52B2002A80F8F02061
:100D300006DD012070470822002083F8F02070476C
:100D40000B6A002202205B681A707047836D1B6A71
:100D50005B681B78FF2B0AD190F9F030002B03F170
:100D6000FF3280F8F020D4BF02200120704700201D
:100D7000704700BF836D1B6A5B681B78FE2B0CD02D
:100D8000FF2B08D190F9F0305A1E002B80F8F0208C
:100D900001DD01207047022070470020704700BF2E
:100DA000034B93F8B803032894BF00200120704739
:100DB000C0180024004870477C1C0024034B93F8A3
:100DC000B803003818BF0120704700BFC0180024C6
:100DD00010B5044655F094FA0146204689B2BDE8A4
:100DE0001040FFF7A1B900BF38B50B4D00EB400034
:100DF00005F5A763C40003EBC003254493ED027A15
:100E0000D3ED037AE7EE007AB0EE670A55F078FA90
:100E1000D5F83835186038BD0400002002692DE986
:100E2000F843C36812EA030828D005460E464FF07F
:100E30000047B8FA88F327FA03F21B3BD24308EACB
:100E400002082A61042B16D8DFE803F03B30251A8C
:100E50000300B36A002B3FD003F1FF3900231FFAD0
:100E600089F9B362746A34B12368204649469847C9
:100E70006468002CF8D1B8F1000FDAD1BDE8F8832E
:100E800070680028F7D0696B036889B29847B8F199
:100E9000000FCED1F2E7B0680028ECD0A96B036850
:100EA00089B29847B8F1000FC3D1E7E7F06800288E
:100EB000E1D0E96B036889B29847B8F1000FB8D167
:100EC000DCE730690028D6D0296C036889B29847DE
:100ED000B8F1000FADD1D1E7EB6A1FFA83F9C1E792
:100EE0008069B43040F0DABDF8B5A0F50764237925
:100EF000DB0725D5657994F8543805F001073D46A0
:100F0000FBB1D4F848341A68D36A5B08536294F88A
:100F1000583823B1B4F862380133A4F8623885F048
:100F20000101606C4AF098FA012384F857380023D5
:100F300084F8553884F85638A4F85E3884F8543864
:100F4000F8BD94F85768012E03D194F8553884F809
:100F500056382046FFF708FB4EB9012385EA030106
:100F600084F85738606CBDE8F8404AF075BA002341
:100F7000394684F85738F5E738B545F093F90D4907
:100F80000D4CD1F8FC20A4FB00400C4D42F08072C7
:100F90000B4B800CC1F8FC204FF060420949C5F8AA
:100FA000D804C2F8B01F00225A601A6842F0010249
:100FB0001A6038BD00ED00E083DE1B43C01800243A
:100FC000001000E055CEACC570B505460A26084CA9
:100FD000013E00D170BD94F9000015F089FE031E9A
:100FE00004DB6178EA185172A278EA540434EFE71E
:100FF000638B090810B50F4CD4F8DC344BB194F86E
:10100000E8249988186802F001031B0101FA03F330
:10101000836149F023FCD4F88833002BFBD05B6953
:1010200098470028F7D0D4F88C330020C4F89033C8
:1010300010BD00BFC01800242DE9F041284D08461E
:1010400011461A46D5F8E8433CB12668A3883469AE
:10105000234095F8E54384B38BBBC3062FD101230E
:10106000C5F8EC04C5F8F424C5F884304FF40073D7
:10107000C5F8F0344AF0D0FE08BBD5F88430002B18
:10108000FBD1D5F83C6541F20D17D5F8F844DFF8EF
:1010900054803604A66041F28832E3680D21204670
:1010A00003EA08033B43E36045F096FF58B1D5F8E7
:1010B0002C350343C5F82C35ECE7002BCDD14FF090
:1010C000FF30BDE8F081636903F4F053B3F5006FBE
:1010D000E0D1D5F88C33C5F89033BDE8F08100BF7E
:1010E000C0180024C0E0FEFF2DE9F041214D10465C
:1010F0000A46D5F8E8433CB12668A1883469214006
:1011000095F8E54384B389BB00214AF001FF68BB31
:10111000D5F88830002BFBD1D5F83C6541F20D178E
:10112000D5F8F844DFF850803604A66041F28832E2
:10113000E3680D21204603EA08033B43E36045F0E2
:101140004BFF28B1D5F82C350343C5F82C35ECE717
:10115000636903F4F053B3F5006FE6D1D5F88C332F
:10116000C5F89033BDE8F0810029CDD14FF0FF30B4
:10117000BDE8F081C0180024C0E0FEFF30B50022B9
:1011800099B00446952513468DF80C108DF80D5036
:1011900044F040050493012065F307028DF81C30EC
:1011A0000A938DF830308DF84430159317931D4D08
:1011B000069010908DF8580002A8CDE90D33CDE9C6
:1011C00013330B0E099005F57B7063F30F220B0CA4
:1011D000090A63F317420DF10703059361F31F62D8
:1011E000114B029208930623104A0DEB03010B9357
:1011F000082312920F9104A985F884343FF090FDE2
:10120000D5F8EC23136A002BFCD19DF80730FF2B97
:1012100000D01CB99DF8060019B030BD4FF0FF306A
:10122000FAE700BFC0180024150D04084D0D04088E
:1012300030B597B000231E4C0DF107020890084608
:1012400008218DF8143007938DF828300B938DF812
:101250003C301593174D84F884146944099004F5C3
:101260007B7006959FED107BCDE90232CDE91033FE
:101270000122CDE91233022304928DF850200E93FF
:101280008DED0C7B3FF04CFDD4F8EC33186A002850
:10129000FCD19DF80730FE2B03D0FF2B0CBF0120A3
:1012A000022017B030BD00BF0000000000000000A9
:1012B000C0180024750D040830B52C4C9DB0FD25D8
:1012C00000230122002000218DF8065004F57B75D3
:1012D000C4F8B4338DF83C3010938DF8503015932A
:1012E00018931A930E928DF86420CDE912320DF105
:1012F0000603CDE90C01CDE916010CA9284611938E
:101300003FF00EFDD4F8EC23136A002BFCD10DF155
:101310000701012228468DF8143009930B9304929B
:101320008DF8282084F88424CDE9023110490691F3
:1013300002A9CDE907333FF0F3FCD4F8EC33186A87
:101340000028FCD19DF80730FF2B08D0D4F88C235F
:101350000923C4F8A82384F8B8331DB030BD042392
:10136000022084F8B8331DB030BD00BFC01800247F
:101370004D0D04082DE9F041224C074688461646DB
:1013800094F8B8C31D46BCF1040F09D0BCF1080F96
:1013900002D00020BDE8F081FFF78EFF0228F8D1CF
:1013A00094F8AE33BBB139461120FFF7E7FEC0B267
:1013B000C0B90522D4F88C330120C4F89483C4F852
:1013C0009873C4F8A063C4F8A45384F8B823C4F88D
:1013D000A833BDE8F08179021120FFF7CFFEC0B23B
:1013E0000028E6D0D4F8EC23136A002BFCD14BF094
:1013F00031FBD4F8F433002BCBD01A6800209B8843
:101400009361C7E7C018002430B40D4CBFF34F8F71
:101410000C4BC3F85C42BFF34F8FBFF36F8F0A4B87
:101420000A4D03F13000DA792AB1597934F81120E4
:1014300092B225F811200C338342F4D130BC7047AE
:10144000A0E4002400ED00E0341E002460CE00245F
:1014500000207047704700BF014844F0DFBB00BF69
:10146000A01E0024084810B4D0F8E035D0F8144687
:1014700099691A682CB1234600F5BC605DF8044BED
:1014800018475DF8044B7047C0180024014844F029
:10149000C5BB00BF041F0024084810B4D0F8443670
:1014A000D0F8784699691A682CB1234600F2446056
:1014B0005DF8044B18475DF8044B7047C0180024D2
:1014C000014844F0ABBB00BF681F0024084810B4BB
:1014D000D0F8A836D0F8DC4699691A682CB12346B2
:1014E00000F5D5605DF8044B18475DF8044B704774
:1014F000C0180024014844F091BB00BFCC1F002459
:10150000084810B4D0F80C37D0F8404799691A68E9
:101510002CB1234600F20C705DF8044B18475DF8BF
:10152000044B7047C0180024B0F1FF3F00F0628206
:1015300003282DE9F04F054683B000F32B8164208A
:10154000BE4C05FB00F004EB000CDCF8E0050CF5EC
:10155000BC6B002800F01E81FF2A4FEA41077ED0B5
:101560009CF82116202940F00F819CF820160129B3
:1015700000F00A810121D4F858878CF8201606E083
:10158000D4F85817A1EB0801192900F207818169E5
:1015900011F40049F4D14FF0640A0C99CDF80080A1
:1015A00058460AFB054ACAF804162221CAF81496BE
:1015B0008AF8211640218AF822163946CAF824965C
:1015C000AAF80A360A234BF081F9002840F002817C
:1015D000BAF80A369BB2FF2B40F2E581DAF8E01543
:1015E000FF239748AAF808364B68964A03403B43C6
:1015F0001A434A604FF0640909FB054906E0D4F834
:101600005837A3EB08030A2B00F23C818A6912F0D9
:101610000402F4D04A6AD9F804361A70B9F80A36C6
:10162000D9F80426013B01329BB2C9F80426A9F877
:101630000A36B9F80836B9F80A26013B92B29BB2CD
:10164000A9F8083612B1002B00F05481B9F80A3617
:101650009BB2002B00F0B981D9F8E015D6E79CF8D1
:101660002126202A40F090809CF82026012A00F0B4
:101670008B8001228CF82026D4F858C706E0D4F8D5
:101680005827A2EB0C02192A00F28880826912F412
:101690000042F4D164214FF0220E0C9E01FB054163
:1016A00081F821E64FF0100EC1F8046681F822E6B9
:1016B000C1F82426A1F80A36B1F80A36C1F8142672
:1016C0009BB2FF2B7BD8B1F80A3642689BB2A1F8D7
:1016D0000836DBB25A4947EA03430A4013435A4AE1
:1016E0001A4342604FF0640808FB0548B8F80A3610
:1016F0009BB2002B00F03B81D8F8E0150BE08B6922
:1017000013F0200340F0CE80D4F85827A2EB0C024F
:101710000A2A00F2E1808B695B076ED48B69DB06D5
:10172000EDD58B6913F0200309D1D4F85827A2EB2B
:101730000C020A2A51D88B6913F02003F5D020231C
:101740001022CA61CB618B699E0701D500238B6291
:101750008B69D80703D48B6943F001038B614A6816
:1017600064233A4E002003FB0543324020264A60A2
:10177000D3F8242683F8200642F00402C3F8242676
:1017800083F8216683F82206B4F85C3701339BB2F4
:10179000A4F85C37002003B0BDE8F08F642320205C
:1017A000002103FB0543D3F8242683F820160243C7
:1017B000C3F8242683F8210683F82216E4E7436859
:1017C0001F4A13401F4A3B431A43FF23A1F8083620
:1017D000426087E78AF82096D6E76422202002FB41
:1017E0000542D2F8241682F820360143C2F82416A6
:1017F00082F8210682F82236C6E74A6AD8F804360B
:101800001A70B8F80A36D8F80426013B01329BB2A8
:10181000C8F80426A8F80A36B8F80836B8F80A2630
:10182000013B92B29BB2A8F80836002A3FF45EAFA3
:10183000002B7FF45BAFD8F8E0150FE0C018002450
:10184000009800FC0024FF810024008200E800FED4
:10185000D4F85837A3EB0C030A2B13D88A6912F07B
:101860008002F5D0B8F80A369BB2FF2B5FD94B68DF
:10187000614A1340614A3B431A43FF23A8F80836E4
:101880004A6033E76423202003FB0543D3F8241682
:1018900083F820260143C3F8241683F8210683F831
:1018A000222671E78B695A0703D5B8F80836002B52
:1018B000A3D12020524AC8614B68134000224B60DC
:1018C000642303FB0543C3F8242683F8202683F80A
:1018D000210683F8222657E76422202002FB0542D6
:1018E000D2F8241682F820360143C2F8241682F872
:1018F000210649E7D9F8E01505E0D4F85837A3EBFD
:1019000008030A2BBED88A6912F08002F5D0B9F814
:101910000A369BB2FF2B1AD94B68374A1340374A15
:101920003B431A43FF23A9F808364A608EE6B8F80D
:101930000A3631489BB24A68A8F80836DBB2024042
:1019400047EA0343134343F000734B60CEE6B9F814
:101950000A3629489BB24A68A9F80836DBB2024029
:1019600047EA0343134343F000734B606EE661465E
:1019700058464AF0E3FF034600287FF405AFD8F845
:10198000E02520201E4ED06151683140516088F81A
:10199000210688F8223664220023012002FB054438
:1019A00084F82036F7E6BAF80A36DAF8E0159BB282
:1019B00014484A68AAF80836DBB2024047EA0343F3
:1019C0001343114A1A434A6014E6414658464AF006
:1019D000B5FF034600287FF4D7AED9F8E0252020D4
:1019E000074ED06151683140516089F8210689F86D
:1019F0002236D0E700207047009C00FC0000FF0169
:101A000000E800FE009800FC002400822DE9F0416F
:101A10000468D4E90435A8611A7D1F681F2A49D9D2
:101A2000203A20212E6801FA02F242F01802FA60F0
:101A30002A7D1F2A48D9203A202101FA02F242F0D9
:101A40001802F2606A680021586801603846116027
:101A5000116841F01001116093F80880A2694146B5
:101A60004EF086FD2D7AE269304629464EF080FD23
:101A7000226A63689468184A12F80800515D5A682F
:101A80006FF30F0222435A603A5842F001023A5073
:101A9000725842F0010272509A6842F440429A60D1
:101AA0001A6842F001021A601A6842F400721A6061
:101AB000BDE8F08120212E6801FA02F242F01802FE
:101AC000BA602A7D1F2AB6D8202101FA02F242F01C
:101AD0001802B260B6E700BF34030A08D3B20F2B76
:101AE0001FD8114B00B503F17E0E02E0033373459E
:101AF00014D093F800C08445F8D193F801C08C4508
:101B0000F4D102EB42020948997800EB82030430D9
:101B1000D96000EB820019715DF804FB00205DF8CC
:101B200004FB0020704700BF888B090800000024D8
:101B300010B40C4C002304F5EC6C01E0152B0CD018
:101B400003EB430201331CF802108142F6D1144426
:101B500094F962075DF8044B70474FF0FF305DF871
:101B6000044B7047C018002430B5114D002305F117
:101B7000F80C02E001331A2B18D05CF83340844291
:101B8000F8D10CEBC30EDC009EF804E08E45F1D1D9
:101B900002EB4202074B254403EB8201043395F824
:101BA000FD4003EB8200CC600C7130BD002030BDE5
:101BB000108B090800000024F0B1002310B5044682
:101BC0000E4894F804E000F5EC6C01E0152B11D000
:101BD00003EB430201331CF802107145F6D1831860
:101BE0006179206893F96227D3B20F2B02D8BDE840
:101BF0001040B9E7002010BD00207047C018002435
:101C000001380E4B0E4A00EBC000D2F8D81003EB9F
:101C1000800310B4D3F8C43083B00A4CA34214BF7D
:101C2000022301231943C2F8D810D2F8D820134058
:101C30000193019B03B05DF8044B70470000002442
:101C400000440258000002400138F8B500EBC00023
:101C5000124C1D46124B04EB800417460E46D4F876
:101C6000C400984214BFA120A0204AF007FFB4F995
:101C7000DA00B909C4F8D460C4F8DC504AF0FAFDBF
:101C8000B4F9DA30002B07DB03F01F0001225B09F7
:101C90000449824041F82320F8BD00BF0000002421
:101CA0000000024000E100E0800AA0F58010522808
:101CB00006D8044B1B5C0D2B02D8034AD056704744
:101CC00000207047108B090824030A0860B182883D
:101CD0004FF0B0414FF00043B2FA82F2D1F88000E9
:101CE000D3400343C1F88030704700BF4FF0B0428B
:101CF000D2F88030D2F888100B4003F00103C2F80C
:101D0000883023B1024BD3F8A00703681847704707
:101D1000C01800244FF0B042D2F88030D2F88810BA
:101D20000B4003F00203C2F8883023B1024BD3F812
:101D3000A407036818477047C01800244FF0B0424A
:101D4000D2F88030D2F888100B4003F00403C2F8B8
:101D5000883023B1024BD3F8A807036818477047AF
:101D6000C01800244FF0B042D2F88030D2F888106A
:101D70000B4003F00803C2F8883023B1024BD3F8BC
:101D8000AC07036818477047C01800244FF0B042F2
:101D9000D2F88030D2F888100B4003F01003C2F85C
:101DA000883023B1024BD3F8B00703681847704757
:101DB000C0180024F8B54FF0B043D3F88050D3F8E2
:101DC0008820154005F47875C3F888507DB1084F18
:101DD0000126B5FA85F4C4F11F0407EB840306FA63
:101DE00004F4D3F8A00703689847A543F1D1F8BDE0
:101DF000C0180024F8B54FF0B043D3F88050D3F8A2
:101E00008820154005F47C45C3F888507DB1084F03
:101E10000126B5FA85F4C4F11F0407EB840306FA22
:101E200004F4D3F8A00703689847A543F1D1F8BD9F
:101E3000C018002430B1036882881B691A4214BF9D
:101E400001200020704700BF10B1036882889A61AA
:101E5000704700BF18B1838802681B049361704704
:101E600070B50D4682B00446164640B101680C4B71
:101E70000C4A0B449B0A02EB4303B3F8C8014AF037
:101E8000FDFDC5F38101C5F3411305F01302CDE952
:101E90000016A18820684FF0A9FB02B070BD00BFFA
:101EA0000000FEA7108B090800B1D9E770472DE9A3
:101EB000F84FC44F6423044603FB0073D3F8C8658E
:101EC000002E00F06981D3F8D085B8F1000F04D05E
:101ED00098F90630002B40F05F81642303FB047304
:101EE000D3F8D45525B195F90630002B40F0548134
:101EF000631CDBB2B8F1000F04D0152288F807305C
:101F000088F8062015B11622EB71AA714FF0640A09
:101F1000308D4AF0B3FD29460AFB04FA404652F0E0
:101F20009DFF404607EB0A09DFF8BC8299F8DA35D5
:101F300099F8D825002B0CBF4FF01E0B4FF03E0B2D
:101F40005946FFF7B1FF28469F4D594699F8D925C4
:101F50005544FFF7A9FF4C220021284655F0BCFB51
:101F6000D9F8C835994A5B689342C9F8E035DFF87B
:101F70007C9240F0138144F0B7F9D9F82030C3F3D4
:101F80000213434493F8DC3103F01F039FED907A72
:101F90009FED905AB0EE084AD8406423F7EE003A1D
:101FA0004FF0000C07EE900A03FB047340F2145844
:101FB000F8EE677AB3F8DCA5C7EE275A07EE90AAC9
:101FC0009FED857AF8EEE77AC7EE274ADFED837A50
:101FD000B0EE007AE5EE877AA5EE875A25EE844AC0
:101FE00037EE856A74EEE72ABAF5C87F0CF1010E68
:101FF000D5BF4FF4967278226423322307EE90EA1D
:10200000D8BF4FF416791344A2F13202F8EEE76A12
:10201000C8BF4FF4827907EE903AD4BF41464FF4DF
:10202000FA7166EEA56AB8EEE77AC7EE267A07EE91
:10203000102A01EB0902B8EEC77A37EE447A77EE40
:10204000E37AFCEEE77A17EE903AC7EE267AFCEEDA
:10205000E77A17EE900A07EE909AB8EEE73A07EEA5
:10206000902AF8EEE77A23EE243A83EE277A37EEC9
:10207000453A32EEC77AC3EE267A77EEE37AFCEE83
:10208000E77A17EE901AC7EE267A77EEE37AFCEE3F
:10209000E77A17EE902A02F1020909EB010BB0EE84
:1020A000467A07EE90BAF8EE677AA6EEA77AF4EED3
:1020B000C74AF1EE10FA7DDC43EA00095FFA89F9BC
:1020C000B9F10F0F78D841EA02091FFA89F9B9F17D
:1020D000FF0F71D81B05000403F07F6392B200F478
:1020E0007F0003433E4843EA0C7300EA01210B439F
:1020F00013436422284602FB04740027C4F8E43525
:102100000123C4F8E875C4F8EC35C4F8F075C4F8D8
:10211000F475C4F8FC75C4F800764FF019FA94F819
:102120002136202BD9B21AD194F82036012B16D0A3
:10213000242384F82136D4F8E0351A6822F001020D
:102140001A601A6822F480521A601A681A601A68B3
:1021500042F001021A6084F8211684F820760021EA
:1021600096F82B004AF086FB96F82B3001241D4D83
:102170005A0903F01F03002104FA03F345F8223043
:1021800096F82A004AF076FB96F82A305A0903F0AE
:102190001F039C4045F82240BDE8F88F44F0A4F8A6
:1021A000D9F81C30C3F30213984498F8DC31EBE6FD
:1021B000F44619E7013170E7BEF10F0FF8D10023A3
:1021C00097E700BFC0180024A01E0024001C005880
:1021D000286B6E4E000016430024744900007042C4
:1021E00000FFFF0000E100E0108B090800440258E6
:1021F00008B1002234E6704770B50E4C94F8F865CB
:10220000AEB104F58764002503E001352034B54202
:102210000DD0237F002BF8D0E06800220028F4D0F6
:102220000135217DFFF71CFE2034B542F1D101209C
:1022300070BD00BF0400002070B590F8EE311C099D
:10224000013C082C0FD81A4E054603F00F0306EB8D
:102250004402B2F8EC0140FA03F2D20703D595F834
:10226000F121012A01D0012070BD9A402644013A93
:10227000104055F04DFD96F800320E4A034402EB33
:10228000C30452F83320A38810691840ECD000230F
:1022900095F8EF210221204685F8F131FFF7E0FDA6
:1022A000D5F85021136843F008031360DBE700BF43
:1022B000108B0908A020002438B5BFF34F8F6A4A5D
:1022C0006A49A2F58653C1F8683220339342FAD1A5
:1022D000BFF34F8FBFF36F8F654C94F8C524B4F8EC
:1022E000D434022A11D094F8C524012A00F08D803C
:1022F000D4F888540C2B0CD8DFE803F0110B0B0B2F
:10230000300B0B0B4D0B0B0B6A00002384F8D634FB
:1023100038BD00236B62012384F8C53438BDD4F87E
:10232000AC04544B544AC36490F83430C263012B5C
:1023300000F09780012290F83530934280F83420E5
:1023400000F0858000234FF4006280F8343042654D
:102350006B62EB6843F40073EB60DCE7D4F8B00425
:10236000444B454AC36490F83430C263012B61D0BA
:10237000012290F83530934280F8342053D0002366
:102380004FF4006280F8343042656B62EB6843F4CE
:102390008063EB60BFE7D4F8B404364B364AC364BD
:1023A00090F83430C263012B4ED0012290F83530C2
:1023B000934280F8342040D000234FF4006280F82C
:1023C000343042656B62EB6843F40063EB60A2E774
:1023D000D4F8B804274B284AC36490F83430C26359
:1023E000012B1DD0012290F83530934280F8342023
:1023F0000FD000234FF4006280F8343042656B62E6
:10240000EB6843F48053EB6085E7022284F8C5242F
:102410006EE740F22A4305F14002184942F0A0FF5E
:1024200000236B62ECE740F22A4305F138021349BE
:1024300042F096FF00236B62A8E740F22A4305F1C1
:102440003C020E4942F08CFF00236B62BBE740F276
:102450002A4305F13402094942F082FF00236B62EE
:1024600077E700236B6274E7403F012400ED00E052
:10247000C0180024C12E0808192F0808802E012436
:10248000014B43F8201070475040005819481A4B30
:1024900001681A4A41F4807130B4016082B0D3F807
:1024A000F410FF24CA2041F48031C3F8F410D3F8AB
:1024B000F41001F4803101915321019D5462506266
:1024C0005162D3F8D030DB010CD40C4B00220C4904
:1024D0005A659A65DA651A665A669A66196502B08F
:1024E00030BC7047126D064B9A42EED102B030BC40
:1024F000704700BF0048025800440258004000588E
:10250000316665422DE9F84FD0F85C710446534BB3
:1025100000F59676FDB227F0FF09826800F1E00A27
:10252000103D4846D2F80080A3FB05352D09294609
:102530004EF07AF8D4F81C210023B2F5807F84F89D
:1025400020317FD00DD8102A00F084805DD8012A78
:1025500046D0042A16BF6FF400616FF008013C23D7
:102560000EE0B2F5805F71D0B2F5803F3BD0B2F59E
:10257000806F15BF6FF400616FF008013C230423E6
:10258000324608F11806404656F803C001EA0C012D
:10259000F150D4F81CB159464DF0F4FCBBF5807FE6
:1025A0002ED024D8BBF1100F3FD037D8BBF1010F8C
:1025B00002D0BBF1040F34D14FF0080C33685246FF
:1025C0002946484643EA0C0333604023C4F8E83008
:1025D0004DF0CEFF3B6843F010033B60BDE8F88F41
:1025E0006FF00801CCE76FF008013C23C8E7BBF5AA
:1025F000805F22D0BBF5803F1AD0BBF5806F10D131
:1026000008F11C064FF0080CD8E7402A15BF6FF4FC
:1026100000616FF008013C230023B1E7BBF1400FDC
:10262000CAD03C364FF4006CC8E74FF4006CC5E7E5
:1026300008F154064FF0080CC0E708F11C064FF4EF
:10264000006CBBE76FF00801042399E76FF40061A9
:10265000042395E76FF4006192E700BFABAAAAAA32
:10266000464A92F8641C013949B24B1C00F0848040
:10267000434B480103EB411100B5C2F8681C811DB2
:1026800013F801E003EB010C92F86C1C8E455BD053
:102690009CF802E08E4555D000F10A0113F801E0E4
:1026A00003EB010C92F86D1C8E4546D09CF802E0BD
:1026B0008E4540D000F10E0113F801E003EB010C50
:1026C00092F86E1C8E4531D09CF802E08E452BD0DE
:1026D00092F8621C31B300F1120113F801E003EB30
:1026E000010C92F86F1C8E4535D09CF802E08E45A7
:1026F0002FD000F1160113F801E003EB010C92F862
:10270000701C8E4533D09CF802E08E452DD01A30D7
:1027100092F8711C13F800C003448C4521D09878BE
:1027200088421DD05DF804FB0CF1020CBCF80010CF
:10273000A2F8741CCCE70CF1020CBCF80010A2F853
:102740007E1CB7E70CF1020CBCF80010A2F87C1C50
:10275000A2E70CF1020CBCF80010A2F8761CC8E746
:1027600002331B88A2F87A3CDCE70CF1020CBCF8BF
:102770000010A2F8781CCAE7704700BFC0180024F8
:102780001C8D09080120704738B5134D41F20D1317
:10279000124941F28832D5F83C05D5F8F8440004D6
:1027A000A060E068014020460B430D21E36044F047
:1027B00013FC38B1D5F82C25034600201343C5F887
:1027C0002C3538BD606900F4F050A0F50060B0FA17
:1027D00080F0400938BD00BFC0180024C0E0FEFFF3
:1027E00008B5FFF7D1FFA0B10B4BD3F8E80358B100
:1027F000026893F8E5338088126910402BB90038DD
:1028000018BF0120013840B208BDB0FA80F040097D
:10281000F8E74FF0FF3008BDC018002470B5144C25
:1028200005460E4694F8B833042B10D0082B1CD163
:10283000D4F8B03383420FD0002394F88624C4F830
:10284000B4330AB1C4F8803CFFF79EFF30B10823CF
:10285000C4E9EC5684F8B833022070BD0922D4F8DC
:102860008C3384F8B823C4F8A833012070BD00BFAE
:10287000C018002449F0F2B849F0F0B8D0F8E831B7
:102880002DE9F04F93F8323085B0DFF878B3044685
:102890004FEA531A03F01F0306795BF82A200BEB6B
:1028A0008A0916F0020622FA03F202F001020292ED
:1028B00004D090F8EE61003E18BF012601279F402A
:1028C000C9F88070BFF34F8FBFF36F8FD4F8DC313E
:1028D0001A6822F4F8721A609A6822F001029A606B
:1028E000C9F88071BFF34F8FBFF36F8F2423D4F8E3
:1028F0005051A168C4F8D03100232A6822F00102A7
:102900002A6004F5A8722B606B60AB60C4F8D83104
:1029100084F8CC31C4F8D031C4F87031C4F8D43163
:102920000192C4F85411B349C4E9593363798D4213
:102930004FEA832202F48052C4F858214FEA03324E
:1029400002F40052C4F85C214FEA032202F48062D0
:10295000C4F8602100F0BC81227903F00101D007A6
:1029600000F1588116B10820C4F86401002940F034
:10297000628194F8F0214AB1D4F8782142F008023B
:10298000C4F878214FF40042C4F8882113F0080FEE
:10299000D4F8D0314FF024030198C4F8D0312B681B
:1029A00023F001032B6000F0838144F0C5F8012877
:1029B00017D0D4F87831002B40F08E816B6823F467
:1029C00090436B60AB6823F02203AB60AB6843F0CD
:1029D0000803AB602B68019843F001032B604DF0B6
:1029E000E5FE2379DB0775D5D4F82C81B8F1000F0B
:1029F00000F04B8100234FF4807CC4F83C802366B8
:102A0000E366C4E91133C4E91433C4E91933D4F8D3
:102A10003431C4F8B8304FF48063E3644FF480334A
:102A2000C4E916C304F13C03184603934EF02AFF91
:102A300003983FF07FFB039BC4F8C831019B636799
:102A4000D4F8D431202B41D1E368626998B2EAB35B
:102A5000B0FA80F14909C8B394F8CCC1BCF1010FB8
:102A600034D04FF0220CC4F8D811A4F8AC010120E6
:102A7000C4F8D4C1DFF890C1C4F8A821C4F878C064
:102A8000DFF888C1C4F88C10C4F87CC0DFF880C1BE
:102A900084F8CC01C4F888C094F870C084450CD088
:102AA00084F8700094F87100012800F01D814FF443
:102AB000006384F87010C4F890301023C4F8D83143
:102AC000002384F8CC312023C4F8D031D8F8043066
:102AD000C4F84431002E00F08780D4F83061002E15
:102AE00000F0BF80002304F1B405C4F8B460C4F85A
:102AF000C0302846C4F8D030C4E93233C4E9363394
:102B0000C4E93833D4F83831C4F8B8304023C4F8B5
:102B1000BC304FF48063C4F8C4304FF48033C4F841
:102B2000D4304EF0AFFE28463FF004FB002840F0C2
:102B30009080019B304AC4F8EC30304BC4F8C4514B
:102B4000964218BF9E4202F118020CBF01230023D7
:102B5000964208BF43F001031832964208BF43F083
:102B600001031832964208BF43F00103183296421F
:102B700008BF43F001031832964208BF43F0010337
:102B80001832964208BF43F0010302F5567296428E
:102B900008BF43F001031832964208BF43F0010317
:102BA0001832964208BF43F001031832964208BF1C
:102BB00043F001031832964208BF43F00103183274
:102BC000964208BF43F001031832964208BF43F013
:102BD00001033BB90A4BF31AB3FA83F35B09002BE9
:102BE00000F09A8000237360029B002B46D105B051
:102BF000BDE8F08F000C0058280002401000024091
:102C0000B804024000E100E0A12F0808D52F080811
:102C1000D92F08080420C4F86401DEB900293FF464
:102C2000A8AED4F8781141F00201C4F878114FF43D
:102C30008031C4F8801192077FF59BAED4F87821DB
:102C400042F00102C4F878214FF40032C4F87C212C
:102C50008FE6FEE70C20C4F8640100293FF489AE3A
:102C6000DFE7D4F8DC311A6842F080021A601A6893
:102C700042F040021A60029B002BB8D0C9F8807164
:102C80004BF82A7005B0BDE8F08FD4F8DC311A6833
:102C900042F480721A609A6842F001029A601A68DF
:102CA00042F020021A601A6842F010021A6011E71E
:102CB00043F042FF01283FF494AED4F878317BB959
:102CC0006B6823F490436B60AB6823F02A0380E6C3
:102CD0000422C4F874213FE6019844F025F96DE61A
:102CE000019844F021F9EBE79BB2039805F1240128
:102CF00042F036FB00287FF4E0AE84F8CC012B686C
:102D000043F480732B60AB6843F00103AB60AB68A6
:102D100043F04003AB60D9E6736065E738B504095A
:102D2000013C082C1AD80F4D00F00F0305EB4402AC
:102D3000B2F8EC0140FA03F212F0010210D00122C5
:102D4000254402FA03F3013B184054F0E1FF95F8E3
:102D50000032054A034402EBC30038BD002038BDF1
:102D6000104638BD108B0908A02000242DE9F0473B
:102D7000984D05EB0013D3F8844C002C00F08F80A5
:102D8000B3F88E7C06464FEA0019384649F076FEC5
:102D900001227B0907F01F07023BBA40082B0FD81E
:102DA000DFE813F0BF00C700CF00D700DF00090045
:102DB000E700EF00B7008849CB6F23EA0203CB6737
:102DC00005EB0903013693F8880CF6B2FFF7A6FF6E
:102DD000074610B11223C671837105EB090393F8FE
:102DE000890CFFF79BFF824610B11323C6718371D4
:102DF00005EB090393F88A0CFFF790FF804610B1AA
:102E00001423C67183714D4450462E2195F88C2CA5
:102E1000FFF74AF895F88D2C40460E21FFF744F84D
:102E200095F88B2C2E213846FFF73EF823686B4A25
:102E300023F001039442236033D0694B9C423ED17E
:102E4000654BD3F8902042F48042C3F89020D3F829
:102E5000902022F48042C3F89020E36843F00043BE
:102E6000E360A36823F4F073A3602368DA0716D441
:102E7000A1685C4A5C4B0A401343A360E368DB0033
:102E800042D5E268594B134043F0E863E36023689E
:102E900023F400632360236D23F001032365BDE861
:102EA000F0874D4BD3F8982042F48052C3F8982015
:102EB000D3F8982022F48052C3F89820CDE74C4BE9
:102EC0009C4213D04B4B9C4263D04B4B9C426ED1E7
:102ED000414BD3F8982042F48012C3F89820D3F8DD
:102EE000982022F48012C3F89820B6E73A4BD3F822
:102EF000902042F40042C3F89020D3F8902022F4AE
:102F00000042C3F89020A8E7236843F4805323606D
:102F1000B7E73149D1F89C3023EA0203C1F89C306D
:102F20004EE72D49D1F8983023EA0203C1F89830D2
:102F300046E72949D1F8903023EA0203C1F89030DE
:102F40003EE72549D1F8943023EA0203C1F89430D2
:102F500036E72149D1F8803023EA0203C1F88030F6
:102F60002EE71D49D1F8843023EA0203C1F88430EA
:102F700026E71949D1F88C3023EA0203C1F88C30D6
:102F80001EE71549D1F8883023EA0203C1F88830DA
:102F900016E7114BD3F8982042F40052C3F898205A
:102FA000D3F8982022F40052C3F8982055E7134B29
:102FB0009C427FF452AF03F50C33D3F89C2042F0CF
:102FC0002002C3F89C20D3F89C2022F02002C3F8F2
:102FD0009C2042E7C0180024004402580030014001
:102FE00000380040E0FFBF8F07000020FFFF39D806
:102FF000003C0040003401400050014000140058E3
:1030000008B51D20FFF78AFE10B190F9063053B1C4
:103010001E20FFF783FE10B190F9063003B108BD02
:103020005523C38008BD5523C380F1E72DE9F04F38
:10303000DFF8D0A29BB09AF8E41C31B1A74B93F80B
:10304000044320461BB0BDE8F08F01247C220AF522
:103050009F608AF8E44C54F03FFBDAF8685C4FF468
:1030600080529AF8626C2C68CAF80025CAF8F844B5
:103070001EB14FF48042CAF80425994A4FF4003734
:103080000121C2E902719AF82825002A00F09781EF
:103090000322944F8AF82825FA6CD60340F1348134
:1030A0000AA843F05BF90C988F4A010AA2FB0121A0
:1030B00009094D006668A8428C4A02EA060242EA03
:1030C00001026260226842F00302226080F0F88010
:1030D000DAF85817DAF85827521A022AFAD90022D1
:1030E00083497E4E0492A260E2681140D6F808231C
:1030F00041F48051E1607F49A1FB021B41F288321B
:103100004FEA5B2B02FB0BFB5A46002A00F0BE8005
:10311000616B013A0806F8D5774A7549A2634FF406
:10312000D572A260E268114041F208120A43E260DF
:10313000BBF1000F09D05A46616B11F0450F02D068
:10314000890440F18881013AF6D10022CAF8342579
:10315000A260674AE1680A4042F48052E2605A463F
:10316000002A00F09380616B013A0D06F8D5624A9F
:103170000025A26304994FF6FE72914200F2B481D9
:10318000DFF86C915D4FDFF8708100222046A2606D
:1031900041F23712E16801EA09010A433721E2608E
:1031A00041F2883243F018FF002871D1A76041F244
:1031B0002912E16801EA09010A43E260BBF1000F4C
:1031C00008D05A46616B11F0450F01D0880404D530
:1031D000013AF7D14FF080505AE0626B510700F18D
:1031E0000F83C4F838806169049A002902F1010252
:1031F0000492049A03DB4FF6FE708242C5D904980C
:103200004FF6FE72904200F291834A0040F17081C5
:10321000226801279307CAF8307500F0F98200226E
:10322000DFF8CC802046A26041F20232E16801EA78
:1032300008010A43E26043F071FF48BB626904F190
:10324000180304F11C09CAF86425A2690193CAF89D
:103250006825E269CAF86C25226ACAF8702541F22D
:103260000312A060E16801EA080104F120080A43A2
:10327000E260BBF1000F09D0626B12F0450F02D083
:10328000910440F15683BBF1010BF5D14FF00040A2
:1032900001228AF82825DAF82C250243CAF82C25C1
:1032A0002A24204686F804431BB0BDE8F08F6168ED
:1032B00005460E4A0A406260226842F0030222601C
:1032C0000F49B0FBF5F5B1FBF5F1DAF8580702311B
:1032D000DAF85827121A9142FAD800E700000024C1
:1032E000C01D002400440258598B4F01002CC0FF20
:1032F000C0E0FEFFD34D6210C5002000000010C1E9
:1033000010210100C0180024BD6AB96AFE6A11F4D8
:103310007C7F7A6BC1F30510C9D0C2F3CC0206F0F2
:10332000010605F0030507EE900A06FB02F2012DE7
:10333000F8EEE76A07EE102ABAEEE97A00F0898221
:10334000022D00F0AD80002D40F083823A68950692
:1033500040F1F9843968B7EE006A3A6BC1F3C101F4
:10336000C2F30803584A07EE903ACA40F8EEE77AEB
:1033700077EE867A37EE877A07EE902AB8EEE76A1C
:10338000C6EE267A67EE877A5049F7EE006A504D0E
:103390000A6B0A6B096BC2F3064307EE103AB8EEEC
:1033A000C77A37EE267AC7EE876AFCEEE67A17EE22
:1033B000900A010AA5FB015109094D007AE6454A28
:1033C000944200F06982444A944200F081829AF863
:1033D0007C0CFFF7A3FC83469AF87E0CFFF79EFC5B
:1033E00007469AF8740CFFF799FC9AF8763C044665
:1033F0009AF8789C9AF87A8C0193BBF1000F05D06B
:1034000058469AF87D2C0E21FEF72AFD2FB138463A
:103410009AF87F2C0E21FEF723FD2CB120469AF856
:10342000752C0E21FEF71CFD002E40F0F4810021CA
:10343000B5F9040049F01EFAB5F90420002A07DBAB
:1034400002F01F04012152092448A14040F8221033
:10345000DAF8F8441CE6626B520700F1AA82626B4C
:10346000D3071AD4626B570601D54022A26300220B
:1034700001251B492046CAF83455A260E268114074
:1034800041F237120A433721E26041F2883243F0B9
:10349000A3FD00283FF46EAE9CE60122A26354E631
:1034A000DFED107A87EEA66A3A6BC2F3080307EEE7
:1034B000903AF7EE005AF8EEE77A77EEA57A77EED3
:1034C000877A67EE867A5FE70090D003004402585F
:1034D000598B4F01007000520024024800E100E0C7
:1034E000C0E0FEFF0024F44A0499914200F21E82DB
:1034F0002268900700F08C81DAF83075032F7FF492
:103500008EAEDAF85415DAF85825A069000DCAF81D
:103510003805880F8DF82800C1F383608DF82900E5
:10352000C1F301608DF82A00C1F307408DF82B002C
:10353000C1F30720C9B28DF82C008DF82D10110DA4
:10354000ADF82E10C2F303418DF83010C2F3C03134
:103550008DF83110C2F380318DF83210C2F3403152
:103560008DF83310C2F300318DF8341000218DF83E
:103570003510002F40F07A8140F6FC7101EA82029A
:10358000DAF85C1542EA91720E92C1F3C2628DF8CC
:103590003C20C1F302628DF83D20C1F342528DF808
:1035A0003E20C1F382428DF83F20C1F3C2328DF834
:1035B000402001220E989DF840C010440CF0070CEA
:1035C0000CF1020C00FA0CF09DF830C00CF00F0C5E
:1035D000CAF8400502FA0CF2CAF84425520A00FB68
:1035E00002F2CAF84825DAF83C054FF4007BDAF815
:1035F00060254FF001094FEA0048C1F38030CAF856
:103600004CB58DF84100C1F3C61001F07F018DF873
:10361000420020468DF84310D10F8DF84410C2F3BC
:1036200041718DF84510C2F382618DF84610C2F3E6
:1036300083518DF84710C2F340518DF84810002196
:103640008DF84910C2F300418DF84A10C2F3C03121
:103650008DF84B10C2F380318DF84C10C2F340311D
:103660008DF84D10C2F300318DF84E10C2F3812158
:103670008DF84F10C2F30121C2F346028DF85010AD
:103680008DF8512041F207128DF85290C4F808804D
:10369000E16821F48F3121F49F7121F001010A4387
:1036A0000721E26041F2883243F096FC00287FF463
:1036B000EFADC4F808B041F2101BE26810212046BB
:1036C00022F48F3222F49F7222F0010242EA0B02AE
:1036D000E26041F2883243F07FFC002840F0BC8079
:1036E000DAF858976269910100F18F804023102128
:1036F0002046A360E26822F48F3222F49F7222F007
:10370000010242EA0B02E26041F2883243F064FCBB
:1037100000284CD1C4F8088041F23712E1682046F5
:1037200021F48F3121F49F7121F001010A433721E7
:10373000E26041F2883243F04FFC002837D14FF06D
:10374000FF3240236262A36201301F28FCD9E26A83
:103750002046A14922F0FF0242F06302E262002209
:10376000A260E268114041F20D120A430D21E260AD
:1037700041F2883243F030FCC8B90AA806E0DAF812
:103780005827A2EB0902013200F01781626B12F494
:10379000957F626B40F014811204F0D500F1200196
:1037A000D4F8802040F8042B8142F9D1E7E7DAF819
:1037B0002C25CAF82C25894A0121A263DAF82C2588
:1037C00002432046CAF82C258AF828154FF40071C8
:1037D000814AA160E1680A4041F21011114341F2AF
:1037E0008832E160102143F0F7FB00283FF458AD28
:1037F0007A4AA2630122CAF82C058AF828254FE5E7
:1038000004224FF08050A26342E54FF40060D2E7FB
:103810004FF080603CE50198FFF780FA20B19AF8FC
:10382000772C0E21FEF71CFB4846FFF777FA20B1F4
:103830009AF8792C0E21FEF713FB4046FFF76EFA3B
:103840009AF87B2C00283FF4F2AD0E21FEF708FB1E
:10385000EDE5DFED637A25E6604AA263DAF82C2510
:103860000243CAF82C258AF8289519E5012F4FD173
:103870001204DAF85C1502F47C1242EA11420E924C
:103880004FF40072CAF844250E9A01329202CAF827
:103890004025CAF84825A6E6524AD2F8D41021F4A9
:1038A0008031C2F8D410D16F41F48031D167D16F2B
:1038B00021F48031D167D2F8D41041F48031C2F8BC
:1038C000D410D2F8D42002F480320392039A7EE519
:1038D000444AD2F8DC1021F40071C2F8DC10D2F8AE
:1038E000841041F40071C2F88410D2F8841021F4DD
:1038F0000071C2F88410D2F8DC1041F40071C2F8F3
:10390000DC10D2F8DC2002F400720292029A5EE52A
:10391000324A01214FF08050A263DAF82C2542F0A0
:103920008052CAF82C258AF82815B1E44FF080702F
:10393000AEE4626B520700F10F82626BD30700F1B5
:1039400006822269D2B2032A40F00382264AA26389
:10395000626912F4604F0AD0540400F10B8212F431
:10396000004F14BF4FF480504FF4803090E4120C9D
:1039700019492046CAF83C251204A260E2681140A9
:1039800041F209320A43E26043F0C8FB00287FF4A9
:103990007FAC6169019BCAF854151A68CAF85825AA
:1039A000D9F80000CAF85C05D8F80000CAF860052C
:1039B000ABE50422A263FFF7C8BB4FF00040FAE674
:1039C000130700F1D581626B910700F1CF81626B23
:1039D000920615D5C8E100BFC0E0FEFFFF0FE01F53
:1039E0000024744A00440258C5002000D4F8801016
:1039F000DAF8582740F8041BA2EB09020132DCD0A8
:103A0000626BD304F2D4DDE90C120A984FF4007B08
:103A10004FEA11490B9B5FFA82FE4FEA102C29F006
:103A2000FF091BBA49EA0E092CF0FF0CDFF860E32E
:103A30004CEA106CC4F838E0C0F3811EC0F34010AB
:103A40001FFA8CFC8DF814E08DF81500C8B2ADF8A3
:103A500016C006938DF81C00C1F30720C1F3035173
:103A60008DF81D0020468DF81E10C2F38521ADF89B
:103A700020908DF82210C2F301218DF82310C2F39B
:103A8000031102F00F028DF824108DF825209DF807
:103A90003B20BA498DF82620C4F808B0E2681140EE
:103AA00041F210120A431021E26041F2883243F0E1
:103AB00093FA00287FF49CAE9DF82420012F9DF8F6
:103AC0002510D2B2DAF80495C9B200F0B58003220D
:103AD000CAF850058AF82825B9F5004F00F0C580CE
:103AE000B9F5804F00F00581B9F1000F00F0C480F6
:103AF000DAF82C2542F00062CAF82C25DAF82C25D9
:103B000002B39F494FF400722046A163A2609B4A12
:103B1000E1680A4041F21011114341F28832E1603C
:103B2000102143F059FA002800F0DE80944AA26385
:103B30000122DAF82C150843CAF82C058AF8282542
:103B4000FFF7AEBBDAF80C05DAF8FC240328DAF844
:103B50000035DAF8081509D8DAF850E5BEF5007F27
:103B600004D0BEF5807F14BF042002201A4363688E
:103B70000A43844919400A4342EA0902DFF8FC91EA
:103B80000243204662604FF40072A26041F21012BC
:103B9000E16801EA09010A431021E26041F288323A
:103BA00043F01AFA0028C1D1012241F20D1B8AF814
:103BB0002825DAF8583701930AE0DAF82C25024371
:103BC000CAF82C25DAF85827019BD21A013243D0C3
:103BD000C4F808800D21E268204602EA090242EAA0
:103BE0000B02E26041F2883243F0F6F90028E4D19A
:103BF000626902F4F052B2F5006FE3D1002F624F18
:103C00004FF00101CAF82C0507F59E6218BF022586
:103C1000CAF82405044607F5A06C8AF828158AF826
:103C2000F05007F110050FCA87E80F009CE80F005D
:103C300085E80F00FFF735BB0A4305D00322CAF819
:103C400050B58AF8282547E74FF48072CAF8502506
:103C500003228AF828253FE74FF000410122CAF8E5
:103C60002C158AF82825FFF71BBBDAF82C2542F023
:103C70008052CAF82C2541E7626900200021920198
:103C8000CDE90A015CD40AA848F0D8F9024628BB5D
:103C90000B9AD30365D5C4F8088041F23712E16866
:103CA0002046DFF8D8B001EA0B010A433721E26071
:103CB00041F2883243F090F9024678B9C4F808908E
:103CC000E16841F20612204601EA0B010A4306218F
:103CD000E26041F2883243F07FF90246DAF82C15AF
:103CE0000A43CAF82C2509E701228AF82825FFF79C
:103CF000D7BA002062690021CDE90A0190011FD4E2
:103D00000AA848F09BF902460028E7D10B9A510314
:103D100027D5C4F8088041F23712E1682046DFF861
:103D20005CB001EA0B010A433721E26041F28832BC
:103D300043F052F902460028D0D10222A260BFE728
:103D40004FF40062CAE7DFED117AFFF7ABBB012247
:103D5000A2630120FFF79CBA04221046A263FFF77A
:103D600097BA4FF08062B9E7202024E5022022E5CF
:103D7000082020E54FF40050FFF78ABAC0E0FEFFAC
:103D8000FF0FE01F002CC0FF241900240024744CF6
:103D90003A0F001810B50379194C002B14BF0122FB
:103DA000002284F8E42327D094F8613CD4F8E82377
:103DB000003B18BF012384F8863492B111689388C0
:103DC000096994F8E5230B404AB153B194F8AC3338
:103DD0000022013384F8B82384F8AC3310BD002BE3
:103DE000F4D0FFF723F90028F0D1D4F88C23012375
:103DF00084F8AC03C4F8A82384F8B83310BD00BF1E
:103E0000C01800242DE9F047344C94F87C0CFEF7E0
:103E100085FF064694F87E0CFEF780FF054694F871
:103E2000740CFEF77BFF94F8628C074694F878AC2C
:103E300094F8760C94F87A4C0EB11823F3800DB1F7
:103E40001923EB800FB11A23FB80B8F1000F15D1B5
:103E500038460121FDF7F8FFFEF7CAF93046012187
:103E6000FDF7F2FF2846FDF7EFFF3046FEF7C0F9F9
:103E700028460121BDE8F047FEF7BAB9FEF74EFF2C
:103E8000814608B11B23C3805046FEF747FF80469A
:103E900008B11C23C3802046FEF740FF0446384685
:103EA0000CB11D23E3800121FDF7CEFFFEF7A0F941
:103EB0004846FDF7C9FF4046FDF7C6FF2046FDF71F
:103EC000C3FF01214846FEF793F940460121FEF762
:103ED0008FF901212046FEF78BF9BFE7C0180024B7
:103EE000F8B50E4C94F8F875A7B104F5C064C7F1A5
:103EF00009070925013D0FD0A6683079FEF70EFFAE
:103F000094F8DC10F27908B1FDF7AAFFAF4204F58E
:103F1000B474EFD10120F8BDAB68FFDE04000020CF
:103F200010B51C4C94F8E90CFEF7F8FE28B11F21DF
:103F30000022C1802021FDF793FFD4F8DC344BB17F
:103F400094F8E8249988186802F001031B0101FA2B
:103F500003F3836194F9632C00210320FDF7BEFD78
:103F600050B1D4F8E8335BB1196894F8E5239B8825
:103F700009690B4012B91BB9012010BD002BFBD100
:103F8000FFF754F80028F7D1D4F88C33C4F89033F5
:103F900010BD00BFC018002410B58078FEF7BEFE2B
:103FA00090B10A494FF0410C04460022D1F8F03C90
:103FB00080F806C00133C1F8F03C2021C371FDF741
:103FC0004FFF2368A2889A6110BD00BFC01800246B
:103FD000F8B50446EFF31185502383F31288037973
:103FE0009B0702D590F8EE3133B9012384F8E03114
:103FF000EDB285F31188F8BDD0F830311B6803F0BD
:104000000103002BF4D1D0F8D021D0F8D4110A4309
:1040100002F02102212AEBD0D0E909129142E4D02A
:1040200090B24BD8194623691B1A9BB2A16200219A
:1040300084F8E011D4F8D0112029D9D1A1698918C8
:10404000D6D0B3FA83F25209002BD1D094F8CC0128
:104050000128CDD02120A4F8A6314FF0010CC4F8DE
:10406000D821C4F8D001D4F8C401D4F85061C4F800
:10407000A011A4F8A43184F8CCC140B3194F90F832
:1040800034E0C763184FE64502650764174FC764FD
:104090000AD090F8357080F834C0674511D04FF4DD
:1040A000006380F834204365102100222023C4F8E7
:1040B000D81184F8CC21C4F8D03199E7081A83B21A
:1040C000B4E706F1280241F04BF90028ECD10023B7
:1040D0004022326284F8CC31B36843F08003B3608D
:1040E00086E700BF792F08089D2F0808D92F0808F8
:1040F000BFF34F8F0549064BCA6802F4E0621343D1
:10410000CB60BFF34F8F00BFFDE700BF00ED00E0C5
:104110000400FA0519484FF6FF0C194A84B0C1682B
:10412000184B01EA0C010A43C260D3F8D020D3F83F
:10413000DC2042F00052C3F8DC20D3F8DC2002F08F
:1041400000520192019AD3F8DC2042F08042C3F879
:10415000DC20D3F8DC2002F080420292029AD3F8ED
:10416000DC2042F00042C3F8DC20D3F8DC3003F05E
:1041700000430393039B04B0FCF7FEBE00ED00E098
:104180000005FA050044025808B51D480023C0F890
:104190008430BFF34F8F436923F480334361BFF30F
:1041A0004F8FD0F8803043F6E074C3F34E3CC3F336
:1041B000C90E4FEA4C1C0CEA0401734641EA8372B3
:1041C000013BC0F874225A1CF8D1ACF1200C1CF150
:1041D000200FF0D1BFF34F8FBFF36F8FBFF34F8F1F
:1041E000BFF36F8F4369002223F400334361C0F8AB
:1041F0005022BFF34F8FBFF36F8F72B6FFF778FF78
:1042000000ED00E003689B0AA3F58013522B56D8FB
:1042100070B5384C14F803C0BCF10D0F4ED843797B
:104220004FF04C0E344802249E080EFB0C0E0CEB93
:104230008C03B440DEF8F45C0CEB4303B646334425
:10424000EE68002941D0344300EB8306C6F8F8102D
:10425000C6F80821EC60EFF31185502383F3128830
:104260002C2202FB0C01D1F8F4304BB31A1DC1F81B
:104270001831224B0CEB8C01214C0CEB41018900D5
:104280000C4410310B4453F8041F09B111600A1D8E
:10429000A342F8D10023EDB2136085F311882C23DB
:1042A00003FB0C03D3F81831CBB14C2303FB0C03F5
:1042B000D3F8F42CD36843F00103D36070BD70478A
:1042C0000E4B02FB0C322432D4E726EA0404EC60E5
:1042D00000EB8304C4F8F810C4F80821BBE74C23B2
:1042E00003FB0C00D0F8F42CD36823F00103D36057
:1042F00070BD00BF108B0908C0180024B419002439
:10430000D419002403689B0AA3F58013522B00D90B
:1043100070470E4AD35C0D2BFAD84FF04C0C10B4FA
:104320000B4C42790CFB03400223D0F8F40CDA402A
:104330009340C26829B922EA03035DF8044BC360C5
:10434000704713435DF8044BC3607047108B090836
:10435000C018002403689B0AA3F58013522B10D8C1
:10436000084AD25C0D2A0CD84079022306494FF046
:104370004C0CD8400CFB02128340D2F8F42CDB43E7
:1043800013617047108B0908C018002401490248C6
:10439000FCF744BDB4190024000001400149024863
:1043A000FCF73CBDB41900240000014002494FF065
:1043B0008040FCF733BD00BFE019002401490248EA
:1043C000FCF72CBD0C1A00240004004001490248EF
:1043D000FCF724BD381A00240008004001490248B7
:1043E000FCF71CBD641A0024000C0040F8B5164D03
:1043F000164E2A69EB681A404FF00040B2FA82F379
:10440000EAB120FA03F3012A6FEA030302EA030187
:104410002B610A46F2D1D6F8F8718FB1013F002323
:10442000BFB2C6F8F831D6F8F44134B1236820465B
:10443000394698476468002CF8D10022DCE7F8BDC3
:10444000EF6ABFB2EFE700BF00100040C0180024C1
:1044500001490248FCF7E2BCE81A002400040140CC
:1044600010B5064C064804F50A71FCF7D7FC04F5B4
:1044700020710448BDE81040FCF7D0BCC0180024EF
:1044800000040140001C004001490248FCF7C6BC82
:10449000141B00240018004001490248FCF7BEBC70
:1044A0006C1B00240020004001490248FCF7B6BC08
:1044B000981B00240040014001490248FCF7AEBCB3
:1044C000C41B00240044014001490248FCF7A6BC7B
:1044D000F01B0024004801402DE9F0414FF4257203
:1044E0008EB00021734853F0F7F8734B734D4FF0C3
:1044F0000008D3F8F02040F27D27A5F51B7605F6DD
:10450000F41442F00102C3F8F020D3F8F02002F0D6
:1045100001020092009AD3F8E82042F00102C3F8A9
:10452000E820D3F8E82002F001020192019AD3F8C2
:10453000E82042F00202C3F8E820D3F8E82002F0B5
:1045400002020292029AD3F8E82042F00402C3F871
:10455000E820D3F8E82002F004020392039AD3F88B
:10456000E82042F00802C3F8E820D3F8E82002F07F
:1045700008020492049AD3F8E82042F01002C3F82B
:10458000E820D3F8E82002F010020592059AD3F84B
:10459000E82042F02002C3F8E820D3F8E82002F037
:1045A00020020692069AD3F8F02042F00202C3F8E5
:1045B000F020D3F8F02002F002020792079AD3F815
:1045C000E82042F04002C3F8E820D3F8E82002F0E7
:1045D00040020892089AD3F8E82042F08002C3F81B
:1045E000E820D3F8E82002F080020992099AD3F873
:1045F000E82042F48072C3F8E820D3F8E82002F4FF
:1046000080720A920A9AD3F8F02042F48032C3F8FA
:10461000F020D3F8F02002F480320B920B9AD3F8FA
:10462000F02042F40032C3F8F020D3F8F02002F476
:1046300000320C920C9AD3F8F02042F48022C3F896
:10464000F020D3F8F03003F480230D930D9B55F840
:104650002810002354F83320914226D001330E2B2A
:10466000F8D1002008F1070848F008FAB845EED163
:104670004FF0000840F27D2755F82810002354F829
:10468000332091420CD001330E2BF8D1002008F1D9
:10469000070848F0F3F9B845EED10EB0BDE8F08157
:1046A00006EBC303B3F8640CF1E706EBC303B3F8FE
:1046B000640CD7E7B4190024004402587C8D090823
:1046C000800AA0F5801052280DD8074B1A5C0D2ADD
:1046D00009D8064B4C2101FB0233D3F8F42C1368A4
:1046E00043F0010313607047108B0908C0180024C1
:1046F0001F4B984210B50ED003F5806398420AD044
:104700001C4A03F58043984218BF904203D003F53A
:10471000806398421BD141F0E7FD174B1749DC69D4
:10472000DA69C4F3022CC2F3022201EB0C0393F802
:10473000DC3103F01F03D8400F4B11491B69C3F351
:10474000C03342EAC303CB5C03FB00F010BD41F071
:10475000CBFD094B0949DC69DA69C4F30214C2F3E1
:1047600002120B1993F8DC3103F01F03D840E3E782
:10477000000001400040014000440258108B09082D
:1047800010030A082DE9F04F002391B0AD4C0093BF
:10479000AD4BAE4FA3F54D66AB4D4FF00009AC4BA2
:1047A000D5F800A093F882204FEA9A23A3F580134E
:1047B000522B00F2CE80F35C0D2B00F2CA80012A4E
:1047C00017F903B000F01081022A02D1BBF1080FE3
:1047D0003BD14FF00008414658460EF03FFF0EF027
:1047E000C5FF90F900C0BCF1000F18BFBCF1540F19
:1047F00014BF4FF0010C4FF0000C40F0E98008F1BD
:1048000004081FFA88F8B8F1100FE4D1009B002BC0
:1048100000F0AA808B4A0AE0F35C0D2B0ED8FB5601
:104820005B450ED002F58672944200F09980916843
:104830000B689B0AA3F58013522BEDD900235B452F
:10484000F0D14B7969799942ECD109F101091C3514
:10485000B9F1080FA3D1009B04F586740133042B32
:10486000009399D17B4A4FF0010B92F8F83502F58D
:10487000876901330393039B5B4567D0744B99F8B9
:104880001020D9F80C6093F896300092002E5DD07D
:10489000704AD6F800A055686F48B288002D504481
:1048A00001924FEA902040F3AE80664A002405E072
:1048B000013402F58672AC4200F0A2801168814298
:1048C000F6D1604B4FF48672019D02FB0434009BCD
:1048D0000322C9F80C6089F81030019BC9F8184010
:1048E000B3FA83F7C7F11F035800C9F80430B27157
:1048F00086F807B002FA00F6A16C0122D4F854C081
:10490000314302FA00F002FA03F3A164216D01437E
:10491000D4F8AC0021654F490E7899B2002E00F012
:104920004E8143EA0C036365CAF81850FBF7BAFBE3
:104930000BF1010B2046FBF789FB09F1200940F23E
:104940000113BBF1090F29F8043C94D111B0BDE863
:10495000F08F013A012A7FF678AF4FF0000B38E76D
:10496000BCF1000F7FF471AFA86800223B4904E05E
:1049700001320C31102A00F088834B689842F7D13D
:1049800052B269795046FDF7EFF8354A4068002386
:1049900051680133884208D0102B02F124023FF401
:1049A00054AF516801338842F6D1DBB22D4A013B46
:1049B00003EBC30302EB830393F9E030002B7FF496
:1049C00044AFC9EBC909204B03EB8903A36042E75D
:1049D000009B002B7FF41EAF09F101091C35B9F1D2
:1049E000080F7FF4DCAE36E7BBF1010F3FF4F1AE08
:1049F00009F101091C35B9F1080F7FF4D0AE2AE79F
:104A0000042C00F049824FF48671124A01FB052202
:104A100011690491002900F00483906001304FF087
:104A200054019C46C4B20D4882F8101182F811411D
:104A30006A1C08494A60049A116897680291517982
:104A4000002216E00C000020E097090824030A0861
:104A5000B8290024040000200000FEA70400002460
:104A6000C40000240000002401320C30102A00F0A1
:104A70000C8343689F42F7D152B20298CDF814C01C
:104A8000FDF772F8944B4FF48672DFF87C8202FBDC
:104A900005310022059B0132D0E90170C1E90770A0
:104AA00041464868874208D0102A01F124013FF4AA
:104AB0004DAF486801328742F6D1D2B28749013AF8
:104AC00002EBC20201EB820292F9E01000297FF4AE
:104AD0003DAF4FF4867182F8E1400693542401FB08
:104AE00005F37F4882F8E0409A107E49059300FB69
:104AF00002F201F560747848C2EBC20C02EBC2020C
:104B0000184401EB4C1104EB4212C0F80CA0C0F8A1
:104B1000B410C0F8FC203322C0F8B8208C22C0F8B2
:104B20000021714A0298D418FFF7E2FD069B062B7C
:104B300000F0B981072B6D496D4B6E4A18BF1A46BC
:104B40006D4B18BF0B464FF48671DDF808A0B0FB23
:104B5000F3F3B0FBF2F2013B5F48013A01FB0501C0
:104B60009BB2A1F8BC20A1F874302366059B03F129
:104B7000580100F10803504619440023A4F85830A6
:104B80006366E3654BF07CFBDAF8003043F08003AA
:104B9000CAF80030049B5B791A4606930C2A1CD88D
:104BA000DFE812F003021B001B001B00DD011B00ED
:104BB0001B001B00BB011B001B001B009601C7F163
:104BC0002F072D0402FA07F3324643EA0C0363650C
:104BD000CAF81850FBF766FAAAE63F4A4FF4867304
:104BE00002984FF0000A03FB05230222CDF828A00B
:104BF00059690368079123F00103CDF834A0CDF87B
:104C00003CA00360602308934FF480730E9301234C
:104C100009930A23CDE90B3208AA4BF0B3F907999F
:104C2000B1F5807F00F0288240F24081B1F5805FCD
:104C300000F00E82B1F5803F00F00482B1F5806F84
:104C400015BF4FF4006308234FF03C0A4FF0040AED
:104C5000029A183252F80A100B4342F80A30049BA9
:104C60001879002840F0CB81029A136843F00103C1
:104C700013600023D8F804200133974200F0BC8170
:104C8000102B08F12408F5D14FF0FF330027134A09
:104C900003EBC30302EB8303D3F8C400174B984222
:104CA00014BFA120A02047F0E9FE069A0C2A00F2CA
:104CB000A081134B03EB4203B3F8B0CD4FF48673DE
:104CC000054A104803FB0523DDF808E000F23471C3
:104CD000A3F818C0002320E00400002000000024F6
:104CE0006B4CA407802601240C000020D0DD0600B8
:104CF000449508001055220040771B000000024038
:104D0000108B0908FC100020C4000024964500F018
:104D10009D810133042B00F0BB8151F83320002A20
:104D2000F4D1D0F854270132C0F8542700EBC30067
:104D3000029ADB00C0F834271944384623469022F3
:104D40008F884CEA070C0027A1F804C0C349FCF780
:104D50007BFF4FF48673C24A40214FF4403CC14868
:104D600003FB052A4FF48052DAF81C502B6843F0FD
:104D700010032B602B6843F014032B60C4E91F77EA
:104D8000C4E92777C4E92977DAF82030A167E9B2C6
:104D9000C4F89430069310394FF48063C4F898C077
:104DA000A0FB01014FF4804CC4F88430DAF8B8005D
:104DB0000909059BC4F8900025F0FF00DAF80C8083
:104DC000C4F8882008F118020491029008F1100834
:104DD000226703F17002A44B1A44DAF8B430C4F825
:104DE0008CC063674BF0C4FBD5F800C0059BC4F8CA
:104DF00020C0D5F814C003F1B8029B4BC4F824C0FE
:104E0000D5F804C01A44069BC4F828C0D5F808C0D9
:104E10000499C4F82CC0D5F80CC0C4F8DC304FF4A9
:104E20008063C4F8C870C4F8CC304FF40033C4F8C1
:104E300030C0C4F8E0300298C4E93077C4E939776B
:104E4000C4E93B774FF40067DAF80031C4F8B88062
:104E5000C4F8D0704FF48047C4F8D830DAF8FC308A
:104E6000C4F8D470C4F8BC304BF082FB2B68D6F881
:104E700000A063636B69A3636B68E363AB6823643F
:104E8000EB6863642B6843F010032B602B6843F0DE
:104E900014032B60B5881AE50323744A82F897300F
:104EA00011B0BDE8F08F724A724B4CE6102900F049
:104EB000E98000F2BD80012900F0E280042915BFDD
:104EC0004FF4006308234FF03C0A4FF0000ABFE69E
:104ED00002984FF4867262494FF0020A036802FB9F
:104EE00005124FF4805123F00103516108AA0360B9
:104EF00000230A930D930F93602308934FF480735C
:104F00000E93012309930A23CDE90B3A4BF03AF8AB
:104F10004FF0040A4FF400639AE602984FF4867249
:104F20004F494FF0020C03684FF0040A02FB0512D0
:104F30004FF4807123F0010351616022036000236C
:104F40000E910A930D930F930123CDE908230A23B1
:104F500008AACDE90B3C4BF015F8082378E6029837
:104F60004FF486723E494FF0000A03684FF0020E7C
:104F700002FB0512102123F00103CDF828A0516196
:104F800008AA03606023CDF834A008934FF480731F
:104F9000CDF83CA00E93012309930A23CDE90B3EE3
:104FA0004AF0F0FF4FF4006352E602984FF4867225
:104FB0002B494FF0000A03684FF0020E02FB051266
:104FC000012123F00103CDF828A0516108AA036054
:104FD0006023099108934FF48073CDF834A00E93A9
:104FE0000A23CDF83CA0CDE90B3E4AF0CBFF0823C5
:104FF0002EE64FF0000C61E6DFB27B1E47E6FDF7C0
:105000008DFE824638B1049B0221DA79FCF728FF35
:105010005423AAF80630029A536C43F400435364B5
:1050200022E60223114A82F8973011B0BDE8F08FD2
:10503000402915BF4FF4006308234FF03C0A4FF09E
:10504000000A05E608234FF03C0A01E6DB0073E6A0
:105050004FF400634FF0040AFAE500BF01000000BE
:1050600004000020ABAAAAAA0C000020B829002442
:10507000882A1100A0BB0D0008234FF0040AE7E5C1
:105080000823E5E54FF40063E2E500235B68FFDEFB
:1050900000239B88FFDE00BF2DE9F04FB04D8FB09D
:1050A00095F89880B8F1000F03D100200FB0BDE84B
:1050B000F08F00222F2140460EF0AEFB064600285E
:1050C000F3D090F80590A74FD0F800A0A7F8D4949B
:1050D000FCF772FD0028E8D0D0E901430193002CD1
:1050E000E3D0DFF8B8B20022594601E0102ADCD044
:1050F0004B68013224319C42F8D1D2B29A4B013A2A
:1051000002EBC20203EB820292F9E030002BCCD119
:105110002F2150460293A2F8E010C7F888A4FFF7A9
:10512000E7FA924A029B904280F0FA801A460123E5
:10513000039350460292FFF7DBFA029A039BC7F8EB
:105140008C248B49B0FBF3F2120A8A48A1FB02219E
:105150000022C7F89824C7F890240A090909A0FB7F
:105160000202C7F894145208A5F89C205200A5F832
:105170009A2097F8C52402F0FF01002A00F0DE8093
:10518000022250467C4987F8C52441F083FB012266
:10519000404687F8D02487F8C62487F8C72487F8C4
:1051A000C82487F8C92487F8CA2487F8CB2487F84D
:1051B000CC2487F8CD2487F8CE2487F8CF2487F82D
:1051C000C524FDF7ABFDC5F8A00028B12F21C18093
:1051D0004E21F279FCF744FE684A0021019B4FF40E
:1051E000806CC5F8B010B9F10C0FC5F8C010C5F847
:1051F000C810C5E92943C5E93411D2F8D80040F0F8
:105200000100C2F8D800D2F8D80000F001000490E4
:105210000498D2F8D80040F00200C2F8D800D2F8C2
:10522000D82002F002020592059A4FF04002C5F81C
:10523000AC204FF48052C5E92DC24FF48042C5F82E
:10524000BC204FF40032C5F8C4204FF00302C5F86B
:10525000CC2076D84A4A02EB4902B2F8CC8DC2463D
:10526000484A08F108084849C5F8DC2007EB8802DD
:10527000C2F88814594600224B68013224319C42FE
:1052800062D0102AF8D14FF0FF32374B02EBC20246
:1052900003EB8202D2F8C4003C4A904214BFA12022
:1052A000A02047F0EBFB0022DBF8043001320BF1C9
:1052B000240B9C424BD0102AF6D1002007EB880724
:1052C000534660223249FCF7BFFCD7F888043CF013
:1052D00031FF00287FF4E9AEB479002760260C90F6
:1052E00063004A4606A9274803F002030893E30037
:1052F000CDE9066703F00803002600270993CDE9EE
:105300000A6746F02BFF00287FF4CFAEA30749467B
:105310001C481ED541F0C6FBB0FA80F04009C5E636
:105320005046FFF7E5F91B4A1B490244A1FB021254
:10533000920D531E9AB2531C0393FAE687F8C414D5
:105340001EE78A4688468BE7D2B2013A9DE7D0B283
:10535000B4E741F013FAB0FA80F04009A6E600BFC6
:10536000B8290024C018002400000024006CDC02CE
:10537000598B4F01ABAAAAAA4C1D00240044025825
:10538000108B0908481D00245C2A002400000240FC
:10539000D502000000366E01819F5E16C400002415
:1053A000830AA3F58013522B00D970472DE9F041F1
:1053B00015460F4AD65C0D2E17D80E4C4FF04C08F0
:1053C000013908FB064789B2C7F8001DFFF790F9BD
:1053D00007F6F841B0FBF5F2013AD7F8F40CC7F83C
:1053E000F82CBDE8F04141F055BABDE8F08100BFAE
:1053F000108B0908C0180024830AA3F58013522BD0
:105400006ED82DE9F0439046714A85B0D65C0D2EDA
:1054100063D84C256F4F044606FB05F507EB0509DD
:10542000D9F8F43C834258D00139C9F8F40C083556
:1054300089B2C9F8001DFFF75BF907F6F4410023B4
:10544000B0FBF8F00D440138C9F8FC3CC9F8F80C81
:10545000C5E9023399F8313D03F0FF02002B40D03B
:105460004C25022305FB061105FB06750431D5F812
:10547000F48C85F8313D404641F00CFA012385F863
:105480003C3D85F8323D85F8333D85F8343D85F85F
:10549000353D85F8363D85F8373D85F8383D85F84A
:1054A000393D85F83A3D85F83B3D85F8313D4A4B1D
:1054B0009C4219D0B4F1804F16D0A3F57C439C4296
:1054C00012D003F580639C420ED003F580639C42AA
:1054D00060D003F578439C425CD005B0BDE8F08312
:1054E000704789F8302DBBE74C2303FB067393F814
:1054F000302D012AF1D0022283F8312D374AD8F815
:1055000008100A40C8F80820012283F8312D002233
:1055100083F8302D00224C232F4903FB067303929E
:105520008845CDE901224FF0020283F8312DD8F8E9
:105530000420D8F8083028D001F58061884524D0AF
:1055400022F07002C8F80420254A90450DD0B8F129
:10555000804F0AD0234902F50062904518BF884564
:1055600003D002F54062904503D123F08003C8F8D0
:1055700008304C230121002203FB067383F8311D00
:1055800083F8302D05B0BDE8F08317491140C8F805
:105590000410EAE74C2303FB067393F8302D012A2D
:1055A0009BD0022283F8312D0C4AD8F808100A400B
:1055B000C8F80820012283F8312D002283F8302D0D
:1055C0000A4B9C42A6D003F578439C42A2D084E7C4
:1055D000108B0908C0180024000001408800CEFF8D
:1055E00000040040000800408FFF0FFF000C004047
:1055F0002DE9F0410468A30AA3F58013522B03D8C8
:105600002C4DEE5C0D2E01D9BDE8F0812046FFF750
:10561000F3FE4C22284B02FB063393F8312D012A6E
:1056200010D00023254951F8332094421CD0013377
:105630000E2BF8D10121002047F01CF9204B01224C
:105640001A60E1E70221D3F8F42C83F8311D1D4BD9
:1056500091680B40062BE4D0B3F5803FE1D013688E
:1056600043F001031360DCE705EBC3050126144F8B
:1056700095F8664C314604F01F05204647F0FAF8CD
:105680001B2C4FEA541806FA05F547F8285009D0A4
:105690002E2CB9D131462C2047F0ECF84FF4805332
:1056A0007B60B1E73146192047F0E4F84FF0007312
:1056B0003B60A9E7108B0908C018002470970908FF
:1056C00000E100E00700010037B590F867380446B4
:1056D000032B2FD10023204D8DF807309DF8073084
:1056E00094F868289A4201D803B030BD9DF807307D
:1056F00005EBC30393F820318BB181F0010383B133
:105700009DF8073005EBC303D3F81C01FCF79CFBA5
:105710009DF807300133DBB28DF80730DEE70B462A
:10572000EDE79DF8073005EBC303D3F81C01FCF748
:1057300091FBEDE7D0E910039B7903F00103994257
:1057400004D003B0BDE83040FCF77EBB03B0BDE839
:105750003040FCF77FBB00BFB829002438B50446B1
:1057600000790D4650B1FDF7D9FA08B10323C38083
:10577000E2792946BDE83840FCF796BB38BD10B544
:1057800004462221FFF7EAFF2046FEF7E3FD20460C
:105790000121BDE81040FEF7B5BD10B5044601215A
:1057A000FFF7DCFF00212046BDE81040FEF7AABD50
:1057B00038B510F8133CA0F66C041BBB94F85838AD
:1057C0008BBBD4E909239A421CD05A1CA169A2625E
:1057D000CB5C21695B008A4228BF002243F400733E
:1057E000A262A4F85C380A2384F85A38012384F8AA
:1057F000583894F86738012B01D0042B02D1606C23
:10580000FFF7CBFF94F85438002B6DD194F855383E
:105810000133DBB2092B84F8553825D12046BDE889
:105820003840FAF7A1BE94F95A586DB1B4F85C1833
:10583000013D20464B0801F00101A4F85C38FFF758
