:020000040800F2
:100000000000012009E40408A5E404084DD5010816
:10001000A1D30108A5E40408A5E404080000000039
:10002000000000000000000000000000A5E404083B
:10003000A5E4040800000000A5E40408D9CD0008E8
:10004000A5E40408A5E40408A5E40408A5E404085C
:10005000A5E40408A5E40408CD9C0008D59C00088C
:10006000DD9C0008E59C0008ED9C0008B99A00089A
:10007000C99A0008D99A0008E99A0008FD9A000870
:10008000119B0008259B0008A5E40408A5E40408CA
:10009000A5E40408A5E40408A5E40408F59C000808
:1000A00015C5000811C4000825C5000801C40008D2
:1000B00039C4000849C4000859C4000865970008FD
:1000C00059970008999700088D970008A5E404083F
:1000D000A5E40408591304086513040871130408FF
:1000E000FD9C0008A5E40408A5E4040835C5000843
:1000F000EDC40008A5E40408DDC40008399B00082D
:10010000A5E404088DB8000869C40008A5E4040843
:100110007D1304088913040879C40008D55B04081A
:100120004D9B0008619B0008759B0008899B000897
:100130009D9B00080000000000000000000000007F
:10014000000000000000000000000000316804080A
:10015000B19B0008C59B0008D99B000895130408B3
:10016000CD970008C1970008A5E40408A5E4040899
:10017000A5E40408A5E40408000000000000000055
:10018000A5E40408A5E40408A5E40408A5E404081B
:10019000A5E40408A5E4040800000000A5E40408A0
:1001A000000000000000000000000000A5E40408BA
:1001B000A5E40408A5E40408000000000000000015
:1001C000000000000000000000000000000000002F
:1001D000000000000000000000000000A5E404088A
:1080000030B40469002341684025E46882690C317A
:10801000546244699560536093631160C2E903330D
:10802000C2E90533C2E90733C2E90A33C2E90C33B6
:1080300094B1C2694FF48030E46811605462906278
:10804000C2E90133C2E90333C2E90533C2E90733A8
:10805000C2E90B33C2E90D3330BC7047114A037AD1
:108060000168D35C10B4CC58CA1824F00104CC5079
:108070001368DB07FCD4037D1F2B09D9203B20228A
:108080005DF8044B02FA03F343F01803CB6070472A
:1080900020225DF8044B02FA03F343F018038B60CF
:1080A000704700BF606105081B4B016803F57D7CCC
:1080B00002E02C3363452BD01A688A42F9D170B59F
:1080C00093F804E0427996450BD02C33634505D0F4
:1080D0001A688A42F4D02C336345F9D14FF0FF304F
:1080E00070BD9E4684680022DEF80C50A54208D080
:1080F00001320EF10C0E032AE7D0DEF80C50A54237
:10810000F6D1DEF81050C668B542F1D150B270BD5C
:108110004FF0FF30704700BF00F004084368426D25
:1081200030B49A61EFF31182502383F312884168CF
:10813000D2B2856C0B68046D23EA050323430B6000
:1081400082F31188436981681A68096822F0010284
:10815000D0E908541A60826A1D605C615A60D0E9F7
:108160000B429C60DA600023B0F86C2030BCCA621D
:1081700003777047002A4FEA014C034630B508BF29
:10818000E64600F1C00514BF8E468C4600241968EF
:108190000C3353F8042C43F8084C41EA0C0142EA32
:1081A0000E02AB4243F80C1C43F8042CEFD1D0F87C
:1081B000C03043EA0E03C0E93144C0F8C03030BDDE
:1081C00083695969B3F810C00A6830B49C6822F01A
:1081D000010224680A60E26822EA0C02E260027D81
:1081E00000681F2A06D9203A0824456894402C428A
:1081F00042D0FEE70824056894402C42F9D120249F
:1082000004FA02F28260254A1278002A32D01A7FDC
:10821000012A36D0D3F800210132C3F80021EFF350
:108220001181502282F312885868C9B29D6C02688D
:10823000DC6C22EA05022243026081F311885A694C
:108240009968D3E90D40096814605061D3E90F4083
:10825000546090605C6CB3F8B400D4600124C862D0
:108260001068204310601A8A1C7783F8FD40CB68A1
:108270001343CB6030BC7047202404FA02F2C26082
:10828000C1E70022D3F8040183F8FD2001300A6819
:10829000C3F8040122F001020A60EBE76400002049
:1082A00010B40C4C6368002B11DD002004F1080CA5
:1082B0000146DCF8AC3003F1C00259600C33934244
:1082C000FBD1013063680CF5867C8342F1DC5DF8FC
:1082D000044B704764000020704700BF024B03EB63
:1082E000401393F85504704764000020B44BD3E961
:1082F000001270B58C0F93F89050100EC2F3072C3B
:1083000083F83840C1F383640001012D83F83940BC
:10831000C1F3016483F83A40C1F3074483F83B405A
:10832000C1F30724C9B283F83C40C2F3035483F875
:108330003D10D887C2F3C030D98F89B241EA040119
:10834000C2F30344D987C2F3403183F84040C2F3FB
:10835000803483F841004FF0000083F8424083F8F6
:108360004310C2F3003183F84410996883F8450044
:1083700040F2D680022D00F0B0802A204FEA4C0C4B
:1083800083F85140C1F3C01201F07F010CF07E0C64
:1083900083F852C04FF0010C93F852401443DA684E
:1083A00083F85240D40F83F85310910D83F8544052
:1083B000C2F3417401F00C01C2F3815583F85540BA
:1083C000C2F3826483F8564083F8571093F857102D
:1083D0001C69294383F85710C2F3405183F85810A1
:1083E000002183F85910C2F3004183F85A10C2F3F8
:1083F000C03183F85B10C2F3803183F85C10C2F3A4
:10840000403183F85D10C2F3003183F85E10C2F38F
:10841000812183F85F10C2F30121C2F3460283F881
:108420006010C4F3074183F86120220E090283F82B
:1084300062C083F86420C4F30722A3F86610240600
:10844000B3F8661089B21143A3F8661059699C66A7
:108450000C0E9A6E42EA04429A660A0A9C6E02F474
:108460007F422243C1F30724C9B29A669D6E9A697E
:108470002C439C6683F86C10110E83F86D10110C60
:108480000906196711021C6F0A4601F47F01214396
:1084900092B2DC691967196F0A431A67C4F3035271
:1084A000196F41EA1461196793F874101143C4F30A
:1084B000072283F87410210A01F47061A3F8761082
:1084C000B3F8761089B21143C4F34602A3F87610CC
:1084D00083F8782083F879C070BD1204C1F3072CAB
:1084E0000D0E02F47C129A64C1F307429C6C44EABC
:1084F00005249C649C6C22434FF400749A649A6C2B
:10850000C3F88840013240F10004A40244EA9254C6
:108510009202C3F88440C1F38034C3F880202DE771
:108520004FEA8C2CC1F3C26594000CF44062C1F395
:10853000072C04F47F749A649A6C1443CA0B9C64ED
:1085400002F006029C6C44EA91749C64C1F30264DC
:1085500083F84C50012583F84D40C1F3425483F811
:108560004E40C1F3824483F84F40C1F3C03483F8D6
:10857000502093F85020224383F850209C6C93F8AD
:10858000502093F84060023205FA02F2B540D61747
:10859000A2FB052EC3F8885005FB06EE04FB0EEE89
:1085A0000134A2FB0424A644520AC1F3803442EAF7
:1085B000CE52C3F880204FEA5E22C3F88420DDE665
:1085C000401601202DE9F0410022794B846982B0E8
:1085D000D3F894600192082204F19C07D4E93D830A
:1085E0009A40D8F80050154205D0D4F89C1008687D
:1085F000400700F1B08001229A40154205D0D4F81E
:108600009C104969080600F19D8004229A40154299
:1086100005D0D4F89C100968890700F18A801022DF
:108620009A40154204D0D4F89C10086800076AD418
:1086300020229A40154218D0D4F89C100868C00631
:1086400013D5C8F8082094F8D120052A39D00B6832
:1086500013F4802F0B6800F09280190340F19D8085
:10866000D4F8D8300BB138469847D4F8F030002B06
:1086700046D0D4F8F030DA071BD54E4BD4F89C2006
:10868000A3FB0636052384F8D130B60A136823F01D
:108690000103136002E01368DB0704D5019B01337B
:1086A0009E420193F7D20022012384F8D02084F85F
:1086B000D130D4F8E8301BB3384602B0BDE8F04101
:1086C00018470A6822F016020A604A6922F08002FE
:1086D0004A61D4F8DC20002A65D00A6822F008023A
:1086E0000A603F22002102FA03F30122C8F8083091
:1086F000D4F8EC3084F8D01084F8D120002BDBD1F2
:1087000002B0BDE8F081C8F808200A6812F4802F92
:108710000A682DD1D20503D40A6822F008020A6043
:10872000D4F8DC20002A83D038469047D4F8F830BB
:108730007EE7C8F80820D4F8F02042F00402C4F81C
:10874000F0206CE7C8F80820D4F8F02042F00202CC
:10875000C4F8F02059E7086820F004000860C8F861
:108760000820D4F8F02042F00102C4F8F02042E7DB
:108770001103D5D5D4F8E420002AD5D158E713F455
:1087800080737FF46DAF0A6822F010020A60012244
:1087900084F8D03084F8D12062E7D4F8E030002BA0
:1087A0007FF461AF61E7D4F8E420002A95D198E71F
:1087B00040160120B5814E1BD0E90920131A5842FA
:1087C0005841704790F8573830B53BB990F8551874
:1087D000012490F85638DAB2914200D830BD04FA3C
:1087E00003F2B0F85E5801332A43A0F85E28F2E79E
:1087F0000379024613F0010006D0D2E90731D268AE
:108800005B1A013A03EA0200704710B50379044687
:1088100013F001030ED0FFF7EBFF034650B1226ABD
:108820006369E1689B5C0132B2FBF1F0DBB201FBF2
:1088300010222262184610BD03799B070AD5436AAD
:108840008269D154436A02690133B3FBF2F102FB3E
:1088500011334362704770470171704703790146D5
:1088600013F0020007D00B69D1E90921013B521A2C
:108870001A40D2B2981A704710B584464FEA810E5A
:10888000102312F4004F4FEA420214BF0E240724B3
:10889000013B92B2CCF80040F444F2D100EB8112DB
:1088A0008C010351122042F8213010BD10B58446CE
:1088B0004FEA810E0424130B013C4FEA021203EB32
:1088C000430392B203F11803CCF80030F444F2D120
:1088D00000EB01130A018450062043F8214010BD2B
:1088E000704700BF704700BF00EB4000024B03EB36
:1088F000C00393F84905704764000020064B93F8C5
:10890000F825824206D900EB400003EBC003D3F800
:108910004C05704700207047640000200B4890F819
:10892000FC1589B101EB4101002300F5A760490066
:1089300010B41C4650F82320063302B114608B4259
:10894000F8D15DF8044B7047704700BF6400002009
:108950000B4890F8FC1589B101EB4101002300F5AB
:10896000A760490010B41C4650F82320063302B11A
:1089700014608B42F8D15DF8044B7047704700BF1C
:1089800064000020214B1B78002B3DD12DE9F043E2
:108990001F4C94F8FC25AAB304F5A7624FF0500EC3
:1089A0001C4F4FF02C0C1C4E1D4607E0013394F871
:1089B000FC1552F8180B8B42056023DA117C002954
:1089C000F4D050684FF0FE08810AA1F580115229B9
:1089D000314498BF91F8F483EFF311818EF312883C
:1089E000D0F824900CFB0878C9B209F10109C8F845
:1089F000C090D0F8148048F00108C0F8148081F3CA
:108A00001188D3E7BDE8F083704700BF0000012064
:108A1000640000204016012000F0040800EE100A57
:108A2000B8EE400A704700BFBCEEC00A10EE103A24
:108A300098B2704707280AD800EB8000054B03EB7B
:108A40004013B3F80006B0FA80F0400970470020E8
:108A5000704700BF64000020072807D8044B00EBD4
:108A60008000012203EB401383F80226704700BF09
:108A700064000020072808D8044B03EB401393F848
:108A8000542412B1012283F83A2470476400002074
:108A9000072808D8054B03EB4013B3F83804B0FAA5
:108AA00080F0400970470020704700BF640000203C
:108AB000054B93F8F825824204D903EB4013D3F811
:108AC00044047047002070476400002070B50E4ECB
:108AD0000D461446D6F880333BB11A689B8812695C
:108AE000134096F87D2352B15BB9FFF7FFFB4FF4BB
:108AF0000073D6F8802000202A60238070BD002BF0
:108B0000F3D14FF0FF3070BD4016012000207047B8
:108B10000020704738B5074B14460D46D3F8203473
:108B20001B6A984702464FF40073002012682A60BF
:108B3000238038BD4016012008B5064BD3F82034F9
:108B400023B15B699847013840B208BD4FF0FF3050
:108B500008BD00BF40160120002070472DE9F041FC
:108B600013B316460F4603EB0208134CD4F82054F7
:108B7000002339463046AD681A46A8470028F5D08C
:108B8000D4F82034002BFBD05B6998470028F7D03D
:108B9000013607F50077B045E8D1D4F82434002039
:108BA000C4F82834BDE8F081034C0020D4F8243404
:108BB000C4F82834BDE8F081401601202DE9F041C9
:108BC00043B316460F4603EB0208164C04E0D4F8F4
:108BD000201419B14B699847D4F8201400230D696B
:108BE000304639461A46A8470028F0D1D4F8203438
:108BF000002BFBD05B6998470028F7D0013607F5BA
:108C00000077B045E8D1D4F824340020C4F82834E3
:108C1000BDE8F081034C0020D4F82434C4F8283493
:108C2000BDE8F0814016012000207047034B93F807
:108C30005003003818BF0120704700BF40160120C4
:108C40001C4AD2F880336BB1186892F87D139B8868
:108C50000069034021B12BB1002382F850337047E3
:108C6000002BF9D092F85033032B0FD892F84433ED
:108C70000133DBB2072B82F84433EDD8D2F8241449
:108C80000123C2F8401382F850337047D2F8943071
:108C900009489908B0EB930F4FF0020306D2490838
:108CA0005B0081429BB201D9FF2BF8D9A2F888332F
:108CB000DCE700BF40160120801A0600816D0346E4
:108CC0000A6A52681278FF2A09D090F8F020013A17
:108CD00052B2002A80F8F02006DD012070470822F9
:108CE000002083F8F02070470B6A002202205B68A6
:108CF0001A707047836D1B6A5B681B78FF2B0AD163
:108D000090F9F030002B03F1FF3280F8F020D4BF4F
:108D10000220012070470020704700BF836D1B6A4E
:108D20005B681B78FE2B0CD0FF2B08D190F9F0303C
:108D30005A1E002B80F8F02001DD01207047022030
:108D400070470020704700BF034B93F8500303287F
:108D500094BF002001207047401601200048704752
:108D600094190120034B93F85003003818BF0120D9
:108D7000704700BF40160120034B93F850030328AF
:108D800094BF002001207047401601200048704722
:108D900094190120184B002030B49C7B14B11D683D
:108DA0008D4205D0013010330B28F6D130BC70470E
:108DB000C2B1124B03EB40218A4201D1022C18D0E0
:108DC0000F4B93F8E42712B9012283F8E4270D4BE7
:108DD00001225A7000F5B170012203EB00139A7161
:108DE00030BC7047074B00F5B17003EB00139A716C
:108DF000DCE7183BEEE700BFA8400120A82A0120CD
:108E0000903A0120902A012030B400231C4C04F534
:108E1000C36084F8D03603E0013310300B2B15D03B
:108E200005688D42F8D190F80EC0BCF1030FF3D164
:108E3000C2B1144901EB4320824209D1A1F11802C9
:108E400003F5B173012102EB0312917130BC70473D
:108E500094F8E42712B9012284F8E4270A4A012190
:108E60005170EDE7D4F8CC1603F5B173064A04202F
:108E7000013102EB0313C4F8CC169871E6E700BF8A
:108E8000903A0120A82A0120902A01202DE9F041E2
:108E9000DFF8B48008EB401797F854340BB9BDE8FD
:108EA000F08104460D46460146F07AF8C0BB2448DE
:108EB000464400EB4410A6F8385446F081F898F880
:108EC0000030D6F85024A3B1D6F83C140124D2F8CF
:108ED000AC308C4003F1C001420010F4004F90B25E
:108EE00002D15A6822435A600C339942F4D1BDE84A
:108EF000F081D6F83C140124D2F8AC3001F1100214
:108F000003F1C0019440420010F4004F90B202D12E
:108F10005A6822435A600C338B42F4D1BDE8F08189
:108F2000084B93F88C2402EB420203EBC203234468
:108F300093F83954002DBAD0012387F83A34B6E7B4
:108F40009C040020401601206400002010B5044657
:108F500043F0C2FB0146204689B2BDE8104095E7C8
:108F600038B50B4D00EB400005F5A763C40003EBDB
:108F7000C003254493ED027AD3ED037AE7EE007A3D
:108F8000B0EE670A43F0A8FBD5F83835186038BD55
:108F900064000020F8B50C4B1D685A691540054067
:108FA0005D617DB1094F0126B5FA85F4C4F11F0456
:108FB00007EB840306FA04F4D3F890040368984797
:108FC000A543F1D1F8BD00BF003C0140401601208F
:108FD00002692DE9F843C36812EA030828D0054660
:108FE0000E464FF00047B8FA88F327FA03F21B3B0E
:108FF000D24308EA02082A61042B16D8DFE803F0FE
:109000003B30251A0300B36A002B3FD003F1FF3930
:1090100000231FFA89F9B362746A34B123682046C9
:10902000494698476468002CF8D1B8F1000FDAD1AE
:10903000BDE8F88370680028F7D0696B036889B2CF
:109040009847B8F1000FCED1F2E7B0680028ECD015
:10905000A96B036889B29847B8F1000FC3D1E7E75D
:10906000F0680028E1D0E96B036889B29847B8F14D
:10907000000FB8D1DCE730690028D6D0296C03682E
:1090800089B29847B8F1000FADD1D1E7EB6A1FFA6A
:1090900083F9C1E7F8B5830AA3F58013522B52D8A0
:1090A00004465748034493F8F4030D284BD8554D14
:1090B000860105EB8013D3F8D074A74243D0013961
:1090C000C3F8D04489B2C3F8DC14D5F89410B1FBCE
:1090D000F2F100220139C3F8E024C3F8D824C3F820
:1090E000E42493F80D25C3F8D41402F0FF015AB319
:1090F00045490223AF1901EB8011204687F80D3551
:10910000043138F0B5FD0123B4F1804F87F80D35F7
:109110003E4BA4EB0303B3FA83F34FEA531316D089
:10912000ABB93B4A944257D002F58062944253D087
:10913000384902F57C42944218BF8C422FD002F588
:10914000705294422BD0F8BD83F80C15D0E7AA19C1
:1091500092F80C150129F6D0022182F80D152E493E
:10916000A06801400020A160012182F80D15AA1914
:10917000022182F80D156268A16803B908B122F4D2
:1091800070022E4422F0700221F0800101200023A1
:109190006260A16086F80D0586F80C35F8BDAA1945
:1091A00092F80C150129CED0022182F80D151A492A
:1091B000A06801401948A1600121201A82F80D150C
:1091C0000021B0FA80F082F80C15124A400994424E
:1091D000CDD00028CBD1F8BDAB1993F80C25012ACE
:1091E000B1D002210C4A83F80D15A0680240A2609C
:1091F000012283F80D2583F80D156268A168C0E788
:1092000000F0040840160120101B0120000001405E
:1092100000040040000C00408800FEFF00040140F4
:10922000F8B5A0F507642379DB0725D5657994F8AF
:10923000543805F001073D46FBB1D4F848341A68AC
:10924000D36A5B08536294F8583823B1B4F8623893
:109250000133A4F8623885F00101606C3EF054FCE3
:10926000012384F85738002384F8553884F8563899
:10927000A4F85E3884F85438F8BD94F85768012E85
:1092800003D194F8553884F856382046FFF79AFAF7
:109290004EB9012385EA030184F85738606CBDE8B4
:1092A000F8403EF031BC0023394684F85738F5E7E2
:1092B00070B505460726084C013E00D170BD94F9F3
:1092C000000016F053FA031E04DB6178EA1891716E
:1092D000A278EA540434EFE747F4040838B5856906
:1092E000002D3DD02C68236A1B7B5BBB204643F0DE
:1092F000D5F8236A5B6803B3236A5A68236A22F0AD
:109300001F025968236A01F01F019B681F3319442B
:1093100021F01F01BFF34F8F00290ADD02F1200366
:10932000114410488B42C0F85C221A4603F1200316
:10933000F8D1BFF34F8FBFF36F8F2846BDE8384099
:1093400037F090BDAB68002BD0D01A6820469B88C0
:10935000936143F0A3F8236A5B68002BCCD1ECE760
:1093600038BD00BF00ED00E038B5846904B938BDF0
:109370002568284643F092F82B6A1B7B23B92046C8
:10938000BDE8384037F06EBDA368002BF7D01A68EF
:1093900020469B889361BDE8384037F063BD00BF2D
:1093A00010B50F4CD4F890384BB194F89C2899889C
:1093B000186802F001031B0101FA03F383613BF01B
:1093C000ABF9D4F82034002BFBD05B699847002818
:1093D000F7D0D4F824340020C4F8283410BD00BFDE
:1093E0004016012030B5002299B004469525134659
:1093F0008DF80C108DF80D5044F0400504930120B9
:1094000065F307028DF81C300A938DF830308DF823
:109410004430159317931D4D069010908DF8580009
:1094200002A8CDE90D33CDE913330B0E099005F5F4
:10943000617063F30F220B0C090A63F317420DF1FD
:109440000703059361F31F62114B029208930623F1
:10945000104A0DEB03010B93082312920F9104A9FC
:1094600085F81C3437F0AAF9D5F88423136A002B49
:10947000FCD19DF80730FF2B00D01CB99DF80600E9
:1094800019B030BD4FF0FF30FAE700BF40160120A1
:10949000BD8C0008F58C000830B597B000231E4C39
:1094A0000DF107020890084608218DF81430079343
:1094B0008DF828300B938DF83C301593174D84F8B8
:1094C0001C146944099004F5617006959FED107BAA
:1094D000CDE90232CDE910330122CDE91233022366
:1094E00004928DF850200E938DED0C7B37F066F9C9
:1094F000D4F88433186A0028FCD19DF80730FE2B7D
:1095000003D0FF2B0CBF0120022017B030BD00BFDD
:109510000000000000000000401601201D8D000822
:1095200030B52C4C9DB0FD250023012200200021E8
:109530008DF8065004F56175C4F84C338DF83C3055
:1095400010938DF85030159318931A930E928DF84E
:109550006420CDE912320DF10603CDE90C01CDE90D
:1095600016010CA92846119337F028F9D4F8842362
:10957000136A002BFCD10DF10701012228468DF85A
:10958000143009930B9304928DF8282084F81C243E
:10959000CDE902311049069102A9CDE9073337F030
:1095A0000DF9D4F88433186A0028FCD19DF80730EF
:1095B000FF2B08D0D4F824240923C4F8402384F8CE
:1095C00050331DB030BD0423022084F850331DB049
:1095D00030BD00BF40160120F58C000810B10368B3
:1095E00082889A61704700BF094B02460220D3F877
:1095F0009410B2EB910F4FEA910307D25B08400041
:109600009A4280B202D2FF28F8D97047704700BF53
:109610004016012010B490F8443000F10801484A87
:10962000012BC2F8A0186DD08368464CD968A342BC
:1096300021F46001D960D96841F46001D960996B67
:1096400021F440119963996B41F480119963996BEE
:1096500021F4F8419963996B41F4884199639968C1
:1096600021F47021996099689960996821F44011FA
:10967000996099689960596821F4806159605968C6
:1096800021F48051596059696FF30B01596159698F
:10969000596148D0D9682B4C21F0E061A342D960D0
:1096A000D96841F0E061D960996B21F44011996368
:1096B000996B41F480119963996B21F47821996336
:1096C000996B41F410219963996821F47021996094
:1096D00099689960996821F4401199609968996036
:1096E000596821F480615960596821F480515960AA
:1096F00099696FF30B019961996999611AD00023F7
:1097000080F844301048114B848DC18D408D091B69
:10971000C2F8A848C2F8A4085DF8044B93FBF1F323
:10972000C2F8AC387047D4F8041341F40001C4F80F
:109730000413AFE706494B6843F400034B60DEE7D0
:109740004016012000200140007AF01F80380100FF
:1097500000230140704700BF014837F071BF00BFD0
:10976000041F0120084810B4D0F8C438D0F8F848D5
:1097700099691A682CB1234600F6C4005DF8044BC1
:1097800018475DF8044B704740160120014837F038
:1097900057BF00BF641F0120084810B4D0F8243917
:1097A000D0F8584999691A682CB1234600F624105C
:1097B0005DF8044B18475DF8044B704740160120D4
:1097C000014837F03DBF00BFC41F0120084810B456
:1097D000D0F88439D0F8B84999691A682CB1234671
:1097E00000F684105DF8044B18475DF8044B704791
:1097F00040160120F0B506688C680F68B569002F27
:1098000056D02E4B3B40B3F1005F4FD007F01F0CFA
:1098100004F11F0327F01F029C442CF01F0CBFF320
:109820004F8FBCF1000F0BDD944402F12003DFF8F1
:1098300090E06345CEF868221A4603F12003F8D180
:10984000BFF34F8FBFF36F8F02684FF480636B617C
:1098500053696F602C6243B34B68F56963B31E466E
:10986000164B3340B3F1005F1AD006F01F0226F00A
:109870001F011F32224422F01F02BFF34F8F002A24
:109880000ADD0A4401F120030D489342C0F870122A
:10989000194603F12003F8D1BFF34F8FBFF36F8F49
:1098A0004FF480636E606B612C62F0BD3246CCE792
:1098B0003B463246034FCAE7034EF3E70000FFFF83
:1098C00000ED00E000000020040000202DE9F04140
:1098D0000468D4E904351A7DD3E90061002D4DD028
:1098E0001F2AA86138D820202F6800FA02F242F01F
:1098F0001802B2602A7D1F2A39D9203A202000FAA6
:1099000002F242F01802FA606A68002008601060F3
:109910003046116841F01001116093F80880A26987
:1099200041463DF0A1FE2D7AE269384629463DF0D8
:109930009BFE274B626813F80800595D335843F0CB
:10994000010333507B5843F001037B50536843F0CD
:1099500003035360BDE8F081203A20202F6800FA0D
:1099600002F242F01802F2602A7D1F2AC5D8202098
:1099700000FA02F242F01802BA60C5E71F2A9861A5
:109980001ED8202000FA02F242F01802B260002233
:1099900030460A600A6842F010020A601D7AA26925
:1099A00029463DF061FE0A4B6268595D735843F0E9
:1099B00001037350536843F002035360BDE8F08124
:1099C000203A202000FA02F242F01802F260DEE7AC
:1099D0006061050818B1838802681B0493617047B1
:1099E000D3B2012B1DD802EB42020F4B10B54FEA48
:1099F000820E03F5287C0EF1080402E01C33634557
:109A00000DD01A788242F9D15A788A42F6D11A5981
:109A1000002AF3D00EF1040E03EB0E0010BD00205F
:109A200010BD0020704700BF60F4040810B40C4C57
:109A3000002304F5236C01E0152B0CD003EB43024B
:109A400001331CF802108142F6D1144494F9320A11
:109A50005DF8044B70474FF0FF305DF8044B7047E2
:109A600040160120D3B2022B21D802EB420270B57E
:109A70004FEA820E0F4C002223460EF10C0503E044
:109A800001322C33172A10D01E68B042F8D193F857
:109A900004C08C45F4D15E59002EF1D02C210EF17A
:109AA000080301FB0233E01870BD002070BD0020E8
:109AB000704700BF00F00408024843690BB104304E
:109AC00018477047000001200248836B0BB1283013
:109AD00018477047000001200248C36D0BB14C309D
:109AE00018477047000001200348D0F880300BB1C0
:109AF00070301847704700BF000001200348D0F8BD
:109B0000A4300BB194301847704700BF000001200B
:109B10000348D0F8C8300BB1B8301847704700BFC1
:109B2000000001200348D0F8EC300BB1DC301847BE
:109B3000704700BF000001200348D0F8103113B176
:109B400000F5807018477047000001200348D0F8E6
:109B5000343113B100F592701847704700000120AE
:109B60000348D0F8583113B100F5A4701847704776
:109B7000000001200348D0F87C3113B100F5B67025
:109B800018477047000001200348D0F8A03113B1F6
:109B900000F5C87018477047000001200348D0F84E
:109BA000C43113B100F5DA70184770470000012086
:109BB0000348D0F8E83113B100F5EC70184770474E
:109BC000000001200348D0F80C3213B100F5FE70FC
:109BD00018477047000001200348D0F8303213B115
:109BE00000F50870184770470000012001380D4B40
:109BF0000D4A00EBC000116B03EB800310B45B68EF
:109C000083B00A4CA34214BF4FF480034FF40013F7
:109C100019431163126B13400193019B03B05DF86C
:109C2000044B7047000001200038024000600240F1
:109C30000138F8B500EBC000104C1D46104B04EB8A
:109C4000800417460E466068984214BF96209520FF
:109C50003BF01EF994F91900B9096661E5613AF023
:109C60007BFF94F91930002B07DB03F01F00012262
:109C70005B090449824041F82320F8BD000001201F
:109C80000060024000E100E0800AA0F58010522848
:109C900008D8054B034493F8F4330D2B02D8034A3C
:109CA000D05670470020704700F004084C6105084A
:109CB00048B182884FF000430349B2FA82F2086843
:109CC000D34003430B607047003C01400120FFF785
:109CD00061B900BF0220FFF75DB900BF0420FFF7A4
:109CE00059B900BF0820FFF755B900BF1020FFF792
:109CF00051B900BF4FF47870FFF74CB94FF47C4076
:109D0000FFF748B930B1036882881B691A4214BF53
:109D100001200020704700BF2DE9F04F0E4683B0B0
:109D200004461546002800F0C7800268644B1344BF
:109D30009B0A644AC6F34119134493F800073BF0A9
:109D4000A7F8C6F38103B4F804E006F00301246821
:109D500001939EFAAEF0B0FA80F001F1FF383EFABE
:109D600000F367D001220327009603E001303EFA9A
:109D700000F35ED002FA00F313EA0E03F6D0D4F833
:109D800000C093FAA3FBBBFA8BFB93FAA3FABAFACF
:109D90008AFA4FEA4B0BB8F1010F4FEA4A0A07FA69
:109DA0000BFB01FA0AFA2CEA0B0C4CEA0A0CC4F879
:109DB00000C04ED9D4F80CC093FAA3FBBBFA8BFBBE
:109DC00093FAA3FABAFA8AFA4FEA4B0B02294FEA3E
:109DD0004A0A07FA0BFB09FA0AFA2CEA0B0C4CEABE
:109DE0000A0CC4F80CC0C1D193FAA3FABAFA8AFAE1
:109DF0004FEA132CBAF1070F45DCD4F820C093FAD0
:109E0000A3FABAFA8AFA93FAA3F34FF00F0BB3FA54
:109E100083F34FEA8A0A01309B000BFA0AFA05FA2B
:109E200003F32CEA0A0C4CEA030323623EFA00F324
:109E3000A0D1009EB8F1010F08D86268C6F30013E4
:109E400022EA0E020EFB03F31343636003B0BDE886
:109E5000F08FD4F808C093FAA3FBBBFA8BFB93FAFC
:109E6000A3FABAFA8AFA4FEA4B0B019E4FEA4A0A62
:109E700007FA0BFB06FA0AFA2CEA0B0C4CEA0A0C5E
:109E8000C4F808C096E7D4F824A09CFAACFBBBFA4F
:109E90008BFB9CFAACF34FF00F0CB3FA83F34FEA51
:109EA0008B0B9B000CFA0BFC05FA03F32AEA0C0A55
:109EB0004AEA0303636259E74FF0FF3339E700BF13
:109EC0000000FEBF00F0040808B1002224E770473C
:109ED00000B121E770472DE9F84FBB4F60230646DC
:109EE00003FB0073D3F8B048D3F8B888D3F8BC5854
:109EF000002C00F05D81B8F1000F04D098F9063015
:109F0000002B40F0558125B195F90630002B40F02B
:109F10004F81731CDBB2B8F1000F04D0152288F812
:109F2000073088F8062015B11622EB71AA714FF0A0
:109F3000600A207E3AF0ACFF29460AFB06FA40464A
:109F400041F05CFD404607EB0A09042240F2145838
:109F500099F8C038002B0CBF4FF01E0B4FF03E0B92
:109F60005946FFF7B5FF2846984D042259465544F7
:109F7000FFF7AEFF4C220021284643F00DFDD9F833
:109F8000B0389FED937AB0EE084A5B68F7EE003A7E
:109F9000B9F8C2A84FF0000CC9F8C4388D4B9FED3A
:109FA0008E5A9A688D4BC2F38222134493F8082785
:109FB000D7F89430D34007EE903AF8EE677AC7EEC0
:109FC000275A07EE90AA9FED867AF8EEE77AC7EE59
:109FD000274ADFED847AB0EE007AE5EE877AA5EEC7
:109FE000875A25EE844A37EE856A74EEE72ABAF579
:109FF000C87F0CF1010ED5BF4FF49672782264230E
:10A00000322307EE90EAD8BF4FF416791344A2F139
:10A010003202F8EEE76AC8BF4FF4827907EE903A51
:10A02000D4BF41464FF4FA7166EEA56AB8EEE77AFE
:10A03000C7EE267A07EE102A01EB0902B8EEC77ABE
:10A0400037EE447A77EEE37AFCEEE77A17EE903A51
:10A05000C7EE267AFCEEE77A17EE900A07EE909AA2
:10A06000B8EEE73A07EE902AF8EEE77A23EE243AC4
:10A0700083EE277A37EE453A32EEC77AC3EE267A78
:10A0800077EEE37AFCEEE77A17EE901AC7EE267ABF
:10A0900077EEE37AFCEEE77A17EE902A02F10209F6
:10A0A00009EB010BB0EE467A07EE90BAF8EE677A4C
:10A0B000A6EEA77AF4EEC74AF1EE10FA7CDC43EA8A
:10A0C00000095FFA89F9B9F10F0F77D841EA02095F
:10A0D0001FFA89F9B9F1FF0F70D81B05000403F0CE
:10A0E0007F6392B200F47F0003433F4843EA0C735E
:10A0F00000EA01210B4313436022284602FB067647
:10A100000027C6F8C8380123C6F8CC78C6F8D0387E
:10A11000C6F8D478C6F8D878C6F8E078C6F8E478F7
:10A120003EF002F896F80539202BD9B21AD196F8EC
:10A130000439012B16D0242386F80539D6F8C43803
:10A140001A6822F001021A601A6822F480521A601A
:10A150001A681A601A6842F001021A6086F8051936
:10A1600086F80479002194F91A003AF0F5FC94F984
:10A170001A20A37E002A08DB5909012203F01F03DD
:10A1800002FA03F3194A42F82130002194F9190028
:10A190003AF0E2FC94F91920637E002A08DB5909A1
:10A1A000012203F01F0302FA03F3104A42F82130A0
:10A1B000BDE8F88FF4461AE7013171E7BEF10F0FE1
:10A1C000F8D1002398E700BF40160120041F0120AA
:10A1D000286B6E4E003802400000164300F0040861
:10A1E000002474490000704200FFFF0000E100E01D
:10A1F00070B50E4C94F8F865AEB104F5876400258F
:10A2000003E001352034B5420DD0237F002BF8D078
:10A21000E06800220028F4D00135217DFFF77CFDA5
:10A220002034B542F1D1012070BD00BF6400002090
:10A2300070B590F8B2311C09013C052C0FD81A4EAC
:10A24000054603F00F0306EB4402B2F8100740FA8C
:10A2500003F2D20703D595F8B521012A01D00120D8
:10A2600070BD9A402644013A104043F04BFF96F8E7
:10A270001C370E4A034402EBC30452F83320A38870
:10A2800010691840ECD0002395F8B3210221204634
:10A2900085F8B531FFF740FDD5F82021136843F06C
:10A2A00008031360DBE700BF00F00408B0200120C2
:10A2B000014B43F82010704750280040204B2148A4
:10A2C000196C214A41F0805130B4196482B0196C84
:10A2D000FF2401F0805101910199016841F48071DE
:10A2E0000160CA20196C41F480611964196C01F491
:10A2F000806100915321009D5462506251625B6FF6
:10A30000DB0013D4114B00221149C3F85428C3F8C1
:10A310005828C3F85C28C3F86028C3F86428C3F839
:10A320006828C3F8501802B030BC7047A2F500622C
:10A33000074BD2F850289A42E4D102B030BC7047A3
:10A34000003802400070004000280040002000401B
:10A35000316665422DE9F84FD0F894700446524BAF
:10A3600000F16406FDB227F0FF09826800F1180AC7
:10A37000103D4846D2F80080A3FB05352D0929463B
:10A380003DF0BAF9626D0023B2F5807F84F8583051
:10A390007ED00DD8102A00F083805CD8012A45D0E9
:10A3A000042A16BF6FF400616FF008013C230EE031
:10A3B000B2F5805F70D0B2F5803F3AD0B2F5806FD1
:10A3C00015BF6FF400616FF008013C23042332468F
:10A3D00008F11806404656F803C001EA0C01F15096
:10A3E000D4F854B059463CF093FFBBF5807F2DD094
:10A3F00023D8BBF1100F3ED036D8BBF1010F02D0ED
:10A40000BBF1040F33D14FF0080C33685246294694
:10A41000484643EA0C033360402323623DF024F9AD
:10A420003B6843F010033B60BDE8F88F6FF0080114
:10A43000CDE76FF008013C23C9E7BBF5805F22D070
:10A44000BBF5803F1AD0BBF5806F10D108F11C0618
:10A450004FF0080CD9E7402A15BF6FF400616FF088
:10A4600008013C230023B2E7BBF1400FCBD03C36C0
:10A470004FF4006CC9E74FF4006CC6E708F15406CE
:10A480004FF0080CC1E708F11C064FF4006CBCE764
:10A490006FF0080104239AE76FF40061042396E744
:10A4A0006FF4006193E700BFABAAAAAA4A1C4FF45D
:10A4B000003310B418BF4FF0450C484C08BF4FF0A4
:10A4C000800C00E00BB3626B013B12EA0C0FF9D079
:10A4D000002925DD626B54071ED4032920D03F4B91
:10A4E0005A6BD20720D402291CD01A69D2B28242F8
:10A4F0001ED101295B691DD0062913D113F4604FC9
:10A5000044D1374AC2F8703D0CE0002904DD636B8A
:10A510005B0701D40329E2D103205DF8044B7047A7
:10A52000002BF9D00020F8E701205DF8044B7047BC
:10A530001020F2E72B4A1A40002AF3D0002B31DB1F
:10A540005C002DD4980031D4D9002DD41A0131D417
:10A550005C012DD4D80137D419021DD45A02E7D496
:10A560009C022DD4D80229D4190317D45A0323D41A
:10A570009C0331D4D8032DD4190429D45A0425D4EA
:10A580009C041FD41807CDD51A20C6E7990405D41A
:10A590005A04CDD41B04C5D50F20BEE71320BCE759
:10A5A0000920BAE71C20B8E70B20B6E70A20B4E779
:10A5B0000D20B2E70C20B0E71420AEE71220ACE784
:10A5C0001120AAE71920A8E70E20A6E71820A4E783
:10A5D0001720A2E71620A0E715209EE7002C0140D7
:10A5E0004016012008E0FFFDF8B5154DAB6A93B1A8
:10A5F000296B0446012914D0124B40F2FF50002170
:10A60000DA6A22F00802DA629863A962236823F00A
:10A6100001032360F8BD0B4AD36B43F48073D3630B
:10A62000F8BD084E40F2FF5700230C20B763B3601B
:10A6300040F24C43F360FFF739FFB763DCE700BF3C
:10A6400040160120002C01402F4B1A68910102D5C1
:10A650009A6D52074BD42C4B1A68500202D5DA6E11
:10A6600011063CD4284B1A68D20102D59A6D900786
:10A670002DD4254B1A68510102D59A6D120717D4B3
:10A68000214B1A68120112D59A6DD0060FD59A6D1A
:10A69000510334D49A6DD20503D49A6D22F010027E
:10A6A0009A65194B4FF0006218489A609CE7704712
:10A6B0009A6D500307D49A6DD10503D49A6D22F098
:10A6C00008029A65104B4FF080629A60D8E79A6D45
:10A6D0004FF0807122F002029A659960C9E7DA6E44
:10A6E0004FF4800122F08002DA669960BAE79A6D31
:10A6F0004FF0007122F004029A659960ABE74FF0C9
:10A7000000629A60704700BF0064024058640240D3
:10A71000384B5A68110303D5D3F8A02052075BD4F5
:10A72000344B5A68D00303D5D3F8B420110649D46A
:10A73000304B5A68520303D5D3F8A020900737D482
:10A740002C4B5A68D10203D5D3F8A02012071CD491
:10A75000284B5A68920217D5D3F8A020D00613D5FB
:10A76000D3F8A020510341D4D3F8A020D20505D4BA
:10A77000D3F8A02022F01002C3F8A0201D4B4FF404
:10A7800000121D48DA602FE77047D3F8A02050036D
:10A790000AD4D3F8A020D10505D4D3F8A02022F004
:10A7A0000802C3F8A020134B4FF48012DA60CFE701
:10A7B000D3F8A0204FF4802122F00202C3F8A02099
:10A7C000D960BDE7D3F8B4204FF4803122F0800285
:10A7D000C3F8B420D960ABE7D3F8A0204FF4002130
:10A7E00022F00402C3F8A020D96099E74FF40012C8
:10A7F000DA60704700640240A06402402DE9F04135
:10A80000564E82B096F89030022B00F29380544D51
:10A810006B6913F0007303D00E2002B0BDE8F08125
:10A82000009340F2FF574FF48A634FF00808AF637C
:10A830000446C5F8088001211020EB60FFF736FEC2
:10A84000AF630028E9D1AF630121D6F8703D37200E
:10A85000AB6040F27743EB60FFF728FEAF63002860
:10A86000DBD1404A40F2734301216A62C5F8288077
:10A87000EA6A42F03302EA62AF63A8603320EB6019
:10A88000FFF714FEAF630028C7D1694640F22A42A1
:10A8900001E09B0254D46B6B13426B6BF9D01F0722
:10A8A00053D46B6B980752D46B6B990651D46B6B76
:10A8B0009B0250D4B4F5006F009B18BF4FF4803258
:10A8C0001BBA08BF4FF480221A4237D0D6F8702D39
:10A8D00040F27743224D40F2FF5601213720AE630C
:10A8E000AA60EB60FFF7E2FDAE63002895D1A4F506
:10A8F000006340F24642AE630121B3FA83F30620BF
:10A900005B095B00AB60EA60FFF7D0FDAE63002837
:10A9100083D16B6803F400639C423FF47EAF124A1C
:10A920006B68134023436B606B6803F40063A342BE
:10A93000F6D172E7282002B0BDE8F08126206CE74E
:10A94000D5F8803041F8043BA5E7042065E70220F4
:10A9500063E7062061E722205FE700BF4016012081
:10A96000002C014000E1F5050081FFFF0E4A0121A6
:10A970000D20D2F8702D38B50C4C40F2FF5540F246
:10A980004D43A563A260E360FFF790FDA56340B966
:10A990006069C0F34320A0F10400B0FA80F04009E0
:10A9A00038BD002038BD00BF40160120002C0140FA
:10A9B00070B5174D40F2FF56164C40F24D43D5F896
:10A9C000702D0121A6630D20A260E360FFF76EFDEC
:10A9D000A66320B96369C3F34323042B02D04FF06D
:10A9E000FF3070BDD5F880030028FAD0026895F8D2
:10A9F0007D338088126910402BB9003818BF0120C0
:10AA0000013840B270BDB0FA80F04009F8E700BFED
:10AA100040160120002C014070B51A4D10460A4620
:10AA2000D5F880433CB12668A1883469214095F867
:10AA30007D4314B319BB002139F0EAFFF8B9AB6AC2
:10AA4000002BFCD1104C40F2FF56D5F8702D40F28F
:10AA50004D43A6630121A2600D20E360FFF726FDB0
:10AA6000A6630028F1D16369C3F34323042BECD11F
:10AA7000D5F82434C5F8283470BD0029DBD14FF057
:10AA8000FF3070BD40160120002C014070B51A4DFA
:10AA900010460A46D5F880433CB12668A18834693F
:10AAA000214095F87D4314B319BB002139F04CFFC8
:10AAB000F8B9EB6A002BFCD1104C40F2FF56D5F8E8
:10AAC000702D40F24D43A6630121A2600D20E3608A
:10AAD000FFF7ECFCA6630028F1D16369C3F34323BD
:10AAE000042BECD1D5F82434C5F8283470BD0029E6
:10AAF000DBD14FF0FF3070BD40160120002C01402B
:10AB000070B5154C002394F81E24C4F84C330AB1D8
:10AB1000C4F8743D114D40F2FF56D4F8702D40F248
:10AB20004D43AE630121AA600D20EB60FFF7BEFC30
:10AB3000AE6320B96B69C3F34323042B08D0D4F868
:10AB4000242409230020C4F8402384F8503370BD26
:10AB5000022084F8503370BD40160120002C0140C3
:10AB600070B50D4D04460E4695F85033042B0BD0AE
:10AB7000082B07D1D5F8483383420AD0FFF7C0FF2E
:10AB8000022801D0012070BD0823C5E9D24685F80E
:10AB90005033022070BD00BF4016012038B50409B3
:10ABA000013C052C1AD80F4D00F00F0305EB4402B1
:10ABB000B2F8100740FA03F212F0010210D001229D
:10ABC000254402FA03F3013B184043F09BFA95F841
:10ABD0001C37054A034402EBC30038BD002038BDD2
:10ABE000104638BD00F00408B02001202DE9F041E6
:10ABF00091F80380B8F1000F03D100263046BDE87C
:10AC0000F08100F110070C4605468978384635F08A
:10AC10009FFD06460028F0D04046FFF7BFFFA86121
:10AC2000237880460133DBB258B1C371222300225E
:10AC30000D218371FFF770F8D8F80030B8F80420C0
:10AC40009A61214CD4F82434632BFBD9D4F8943086
:10AC50001E499A08B1EB930F4FF0020306D2520837
:10AC60005B008A429BB201D9FF2BF8D93846AB82F0
:10AC700035F024FE98B9AD69002DBED0D4F87C3DE6
:10AC80004121024628460133A9712021EB71C4F805
:10AC90007C3DFFF741F82B68AA889A61ADE72B69E4
:10ACA00085F8D8001B78012B07D0022BA6D194F889
:10ACB000783D013384F8783DA0E794F8793D01337D
:10ACC00084F8793D9AE700BF4016012040420F000A
:10ACD0002DE9F84F6D4EC0EB001306EBC303D3F81C
:10ACE000804D002C00F08A8093F8F08D0546070116
:10ACF00040463AF0CDF801224FEA581308F01F08F9
:10AD0000013B02FA08F2032B08D8DFE803F0ADB3E9
:10AD100002B95F490B6A23EA02030B627B1B05F150
:10AD2000010B06EBC3035FFA8BFB93F8840DFFF76F
:10AD300035FF804618B1122380F807B083717B1B62
:10AD400006EBC30393F8850DFFF728FF824618B181
:10AD5000132380F807B083717B1B06EBC30393F8C2
:10AD6000860DFFF71BFF814618B1142380F807B04A
:10AD700083717F1B50462E2106EBC70696F8882D5F
:10AD8000FFF7A6F896F8892D48460E21FFF7A0F8A0
:10AD900096F8872D2E214046FFF79AF823683D4A02
:10ADA00023F04003944223602AD03B4B9C4231D194
:10ADB00003F500331A6A42F480421A621A6A22F4D6
:10ADC00080421A62636843F48053636023685B06C1
:10ADD0000CD4206840F217323049314B01400A430D
:10ADE00022606268134043F4E0636360E36923F424
:10ADF0000063E361236843F040032360BDE8F88FFC
:10AE0000234B5A6A42F480525A625A6A22F48052A0
:10AE10005A62D7E7234B9C421BD0234B9C420DD058
:10AE2000224B9C42CED103F568435A6A42F4801209
:10AE30005A625A6A22F480125A62C3E703F58233D7
:10AE40005A6A42F400525A625A6A22F400525A6212
:10AE5000B8E703F5FE331A6A42F400421A621A6A2E
:10AE600022F400421A62ADE709494B6923EA020362
:10AE70004B6153E706494B6A23EA02034B624DE7F5
:10AE800003490B6923EA02030B6147E740160120DF
:10AE90000038024000300140003800404000FFFF11
:10AEA000FBF0FFFF003C0040003401400050014037
:10AEB00008B51D20FFF772FE10B190F9063053B1AE
:10AEC0001E20FFF76BFE10B190F9063003B108BDEC
:10AED0005523C38008BD5523C380F1E72DE9F04F0A
:10AEE000002391B0A24E0293A24BA6F5026ADFF8AE
:10AEF0008C9293F872EFA04D0EF1FF37CDF80CE075
:10AF0000FBB20193DFF88CB2DBF80070BB0AA3F54B
:10AF10008013522B00F2CF80534493F8F4330D2B5F
:10AF200000F2C98015F90380039B012B00F0168104
:10AF3000039B022B02D1B8F1080F3AD1002421461D
:10AF4000404611F0EBFA11F071FB90F900C0BCF132
:10AF5000000F18BFBCF1540F14BF4FF0010C4FF09D
:10AF6000000C40F0F1800434A4B2102CE7D1029B15
:10AF7000002B00F0AB80814A0CE0534493F8F4338B
:10AF80000D2B0ED8EB5643450ED002F586724A457E
:10AF900000F0988091680B689B0AA3F58013522BF0
:10AFA000EBD900234345F0D14B799BF8051099422A
:10AFB000EBD10BF11C0B5E45A6D1029B09F58679FE
:10AFC0000133042B02939DD16D4A4FF0010B92F88F
:10AFD000F83502F5876A01330493049B5B4567D01B
:10AFE000644BDAF80C7093F8862F9AF810300193BE
:10AFF000002F5DD062493B684D686248B988002DDA
:10B000001844039302914FEA902040F3C8805B49B3
:10B01000002405E0013401F58671AC4200F0BC80EB
:10B020000B688342F6D1554B4FF48672029D02FBAA
:10B030000434019B0322CAF80C708AF81030029B7A
:10B04000CAF81840B3FA83F6C6F11F035800CAF8CD
:10B050000430BA7187F807B002FA00F7A16C012238
:10B06000D4F854C0394302FA00F002FA03F3A164A1
:10B07000216D0143D4F8AC00216541490F7899B2A4
:10B08000002F00F0708143EA0C036365039B9D6110
:10B09000FDF770F80BF1010B2046FDF73FF80AF1C0
:10B0A000200A40F20113BBF1090F2AF8043C94D1A5
:10B0B00011B0BDE8F08F019B012B7FF67AAF4FF006
:10B0C00000083BE7BCF1000F7FF473AF5846FCF774
:10B0D000EBFF9BF805E0C3B2022B00F2958300F171
:10B0E000010C294A0CEB4C0C02F57D704FEA8C0CDC
:10B0F00003E02C32904200F0878313689F42F8D11E
:10B1000013797345F5D152F80C30002BF1D01F485C
:10B11000002142689A4207D00131243010293FF4BF
:10B1200048AF42689A42F7D14B1C194ADBB2013B47
:10B1300003EBC30302EB830393F92030002B7FF46E
:10B1400038AFC9F808B038E7029B002B7FF413AF83
:10B150000BF11C0B5E457FF4D7AE2EE7B8F1010F63
:10B160003FF4ECAE0BF11C0B5E457FF4CDAE24E753
:10B1700020F80408401601204C6105086C000020EE
:10B18000640000200000FEBF00F00408040001205D
:10B190000000012024F70408042C00F0F2804FF492
:10B1A0008671B54B01FB053319690691002900F042
:10B1B000FB829860013054210792C4B2AE4A83F8F2
:10B1C000101183F811416B1C5360069B18461E68D2
:10B1D0005B790593FCF768FFC3B2022B00F214837E
:10B1E00000F1010EA5494FF0000C079A0EEB4E0E30
:10B1F000DDF814904FEA8E0E06E00CF1010C2C31B4
:10B20000BCF1170F00F000830B689E42F5D10B795B
:10B210004B45F2D151F80E30002BEED098462C233E
:10B2200000EB4000954903FB0CF3DFF8809203EB41
:10B23000800391480B4419694FF4867303FB05039F
:10B240004846C3E9078143680021434507D00131DF
:10B25000243010293FF42CAF43684345F7D14B1CF1
:10B260008749DBB2013B03EBC30301EB830393F993
:10B27000201000297FF41CAF4FF48671814883F8B9
:10B2800021404FF08C0C01FB05F17B4C062A079105
:10B290004FEAA10100FB01F17B4800F54C7E0798C5
:10B2A0002044039CC0F800C10CFB01FC01EB4101F0
:10B2B000C46001EB0111744C0EEB4C0E04EB8104E5
:10B2C0004FF05401C0F8FCE083F820104FF0330336
:10B2D0000799C0F8B8306D4BC0F8B44003EB0104D7
:10B2E0006B4BD3F8941000F04D82072A694B6A48E3
:10B2F0006A4A18BF1A466A4B18BF03465E48B1FB3C
:10B30000F3F3B1FBF2F2013B4FF48671013A01FB1A
:10B3100005019BB2A1F8BC20A1F874302366079BFD
:10B3200003F1580100F10803304619440023A4F842
:10B3300058306366E3653CF033F93368059A43F0AF
:10B34000800333600C2A23D8DFE812F0C301220007
:10B3500022002200A101220022002200E30122009B
:10B36000220022007D01C6F12F062D0402FA06F309
:10B370003A4643EA0C036365039B9D61FCF7FAFEC2
:10B3800088E60323424A82F8873F11B0BDE8F08F78
:10B39000394A4FF48673304603FB0523022259696C
:10B3A0003368039123F00103336000230A930D9364
:10B3B0000F93602308934FF480730E930123099336
:10B3C0000A23CDE90B3208AA3BF0A2FF0399B1F59D
:10B3D000807F00F0FD8100F2D881102900F0028208
:10B3E00000F2E981012900F0FA81042915BF4FF428
:10B3F000006308233C20002006F118010A5813437B
:10B400000B50069B1879002840F0AB81336843F05D
:10B41000010333600023D9F804200133904500F084
:10B420009B81102B09F12409F5D14FF0FF334FF028
:10B430000008134A03EBC30302EB83035868194B5C
:10B44000984214BF9620952039F022FD059B0C2BC5
:10B4500000F27F81094A02EB4303B3F820C84FF49E
:10B460008673054A104803FB052300F26471A3F8B4
:10B4700018C0002323E000BF6400002000F004088F
:10B48000000001206B4CA407301100206C0000204C
:10B490004016012044950800D0DD0600105522001A
:10B4A00040771B00006002405C1100200400012076
:10B4B000964200F088810133042B00F0A88151F8F6
:10B4C0003320002AF4D1D0F884270132C0F8842731
:10B4D00000EBC300DB00C0F8646719444046234614
:10B4E00090228E884CEA060C0026A1F804C0BF49C1
:10B4F000FEF79EFB4FF48673BD4A40214FF4403C5B
:10B50000BC4803FB05280423D8F81C502A6842F0E5
:10B5100010022A602A6842F014022A60C4F8A86067
:10B52000C4E91F66C4E92866D8F82020A1674FF453
:10B530008061C4F898C04FF4804CC4F88410E9B21C
:10B54000C4F89C30C4F8942010390392D8F8B8207D
:10B55000A0FB010125F0FF00C4F890204FF48052B9
:10B56000D8F80C90D940C4F88820079B09F118023C
:10B5700009F11009226703F170029F4B1A44D8F8B1
:10B58000B430C4F88CC06367CDE905013CF06CF8B9
:10B59000D5F800E0079BC4F820E0D5F814E003F1EB
:10B5A000B802954BC4F824E0D5F804E01A44039B94
:10B5B000C4F828E0D5F808E0C4F82CE0D5F80CE091
:10B5C000C4F8DC300423C4F8C860C4F8E4304FF495
:10B5D0008063C4F8F060C4F8CC304FF40033C4F892
:10B5E00030E0C4F8E030C4E93066C4E93A664FF4AC
:10B5F0000066D8F80031C4F8B890C4F8D0604FF4B1
:10B600008046C4F8D830D8F8FC30C4F8D460C4F808
:10B61000BC30DDE905013CF027F82B6863636B69FA
:10B62000A3636B68E363AB682364EB6863642B68B4
:10B6300043F010032B602B6843F014032B603B682E
:10B64000BD880393F5E433684FF4867268494FF080
:10B65000020E23F00103304602FB05124FF4805125
:10B66000516108AA336000230A930D930F9360235E
:10B6700008934FF480730E93012309930A23CDE9B5
:10B680000B3E3BF045FE4FF400630420B4E6336804
:10B690004FF486725649022023F0010302FB051283
:10B6A0001021516108AA336000230A930D930F9370
:10B6B000602308934FF480730E93012309930A23A8
:10B6C000CDE90B3030463BF023FE00204FF4006301
:10B6D00092E633684FF486724549304623F0010301
:10B6E00002FB0512012151610222336000230991FE
:10B6F0000A930D930F93602308934FF480730E9376
:10B700000A23CDE90B3208AA3BF002FE00200823F1
:10B7100072E633684FF486723549022023F0010344
:10B7200002FB05124FF480715161602233600023E7
:10B730000E910A930D930F930123CDE908230A2359
:10B7400008AACDE90B3030463BF0E2FD0823042087
:10B7500052E64FF0000C82E65FFA83F808F1FF33FF
:10B7600067E6FFF71BFA039038B10699CA79022100
:10B77000FEF7D2FA5423039AD380736C43F4004348
:10B78000736443E61D4A1E4BB8E5B1F5805F22D0D5
:10B79000B1F5803F19D0B1F5806F15BF4FF400634C
:10B7A00008233C20042027E60223164A82F8873F1C
:10B7B00011B0BDE8F08F402915BF4FF40063082396
:10B7C0003C20002018E6DB0087E608233C2013E637
:10B7D0000823042010E64FF4006304200CE6002048
:10B7E000082309E600204FF4006305E6C181000844
:10B7F00064000020ABAAAAAA6C000020882A1100CD
:10B80000A0BB0D004016012000235B68FFDE002373
:10B810009B88FFDEF8B50E4C94F8F8759FB104F5DF
:10B82000C064C7F109070925013D0ED0A66830792B
:10B83000FFF7B4F9217DF27908B1FEF76DFAAF4256
:10B8400004F1A004F0D10120F8BDAB68FFDE00BF19
:10B850006400002010B58078FFF7A0F990B10A4984
:10B860004FF0410C04460022D1F87C3D80F806C020
:10B870000133C1F87C3D2021C371FEF74DFA2368E6
:10B88000A2889A6110BD00BF4016012070B52A4CF5
:10B89000636BD9051AD54FF4807240F2FF56274BDF
:10B8A000A263A663E26B264D1340E3632B6B9A07FA
:10B8B0001DD4012200232A626B621F4B40F2FF510C
:10B8C0001E4A9963D96B0A40DA6370BD636B9807AF
:10B8D00003D51B4B02225A62EFE7636B190720D492
:10B8E000636B9A0621D5164B06225A62E5E7D5F816
:10B8F000882F136823F0010313600022E36A23F00A
:10B900000803E362EA622B6BDB07D2D540F24C43BB
:10B91000A6630121A2600C20E360FEF7C7FDA663C9
:10B92000C7E7074B04225A62C7E7636BDB06C4D53F
:10B93000034B05225A62C0E7002C0140C53EFFFFC1
:10B9400040160120D0F8AC312DE9F04F93F9298051
:10B9500083B005790446B8F1000F93F8299005F0FB
:10B960000205C0F297814FEA5912C64B09F01F0138
:10B9700053F8226003EB8203CE4006F00106002D4F
:10B9800040F0598101228A40C3F88020BFF34F8FD5
:10B99000BFF36F8FD4F8A011086820F4F870086026
:10B9A000886820F001008860C3F88021BFF34F8FC2
:10B9B000BFF36F8F04F59077D4F820A12423A268F9
:10B9C000C4F89431DAF8003023F00103CAF80030EB
:10B9D0000023CAF80030CAF80430CAF80830C4F8A6
:10B9E0009C3184F89031C4F89431C4F84031C4F8E3
:10B9F0009831C4F82421C4E94D3363799A0203F0E5
:10BA0000010102F48052C4F828211A0302F4005202
:10BA1000C4F82C211A0202F48062C4F83021227981
:10BA200012F0010B00F0F2800420C4F8340115B1CB
:10BA30000C20C4F83401002940F0038194F8B421AB
:10BA40004AB1D4F8442142F00802C4F844214FF42A
:10BA50000042C4F8542113F0080FD4F894314FF089
:10BA600024033846C4F89431DAF8003023F0010397
:10BA7000CAF8003000F0268136F06AF901281FD09C
:10BA8000D4F84431002B40F04781DAF8043023F435
:10BA90009043CAF80430DAF8083023F02203CAF8D9
:10BAA0000830DAF8083043F00803CAF8083038469E
:10BAB000DAF8003043F00103CAF800303BF046FFEB
:10BAC000BBF1000F64D0D4F8FCA0BAF1000F00F075
:10BAD000C68000234FF4807C04F13C0BC4F83CA0EA
:10BAE000C4E91133C4E91433C4E91833C4E91A337F
:10BAF000D4F80431584623644FF48063E3644FF470
:10BB00008033C4E916C33CF00FFF584635F0C0FC43
:10BB1000D4F89831C4F88CB1202B6767019333D1E6
:10BB2000E368626999B27AB3B1FA81F04009009092
:10BB300051B394F89001012826D0A4F87811584602
:10BB400000999BB2D4F820B1C4F89C11C4F88C10B1
:10BB50002221C4F87421C4F898114B49A1674B49BC
:10BB6000E1674B49C4F888100BF1240135F028FD3A
:10BB7000002800F0D98010230098C4F89C31019B64
:10BB800084F89001C4F89431DAF80430C4F8143120
:10BB9000A5B3D4F800513DB3002304F19C0AC4F8C6
:10BBA0009C50C4F8A8305046C4F8B830C4E92C33CF
:10BBB000C4E93033C4E93233D4F80831C4F8A030D2
:10BBC0004023C4F8A4304FF48063C4F8AC304FF481
:10BBD0008033C4F8BC303CF0A7FE504635F058FC2A
:10BBE000002800F09380FEE7D4F8A0311A6842F0F4
:10BBF00080021A601A6842F040021A60B8F1000F21
:10BC000001DB002E71D103B0BDE8F08F15B1082023
:10BC1000C4F8340100293FF411AF92077FF50EAF4D
:10BC2000D4F8442142F00102C4F844214FF4003218
:10BC3000C4F8482102E790F8B251003D18BF012531
:10BC4000A0E6D4F84411920741F00201C4F844116F
:10BC50004FF48031C4F84C117FF5F0AEE0E7D4F832
:10BC6000A0311A6842F480721A609A6842F00102A8
:10BC70009A601A6842F020021A601A6842F01002B4
:10BC80001A6085E700E100E0BDD70308EDD703089F
:10BC9000F1D70308D0F8A03125B190F8B251003D9A
:10BCA00018BF01251A6822F4F8721A609A6822F007
:10BCB00001029A60BFF34F8FBFF36F8F002604F528
:10BCC000907779E636F044F801283FF4F9AED4F8DD
:10BCD00044312BBBDAF8043023F49043CAF8043023
:10BCE000DAF8083023F02A03DFE64FEA5911194A3F
:10BCF00009F01F09012302EB810003FA09F3C0F8E0
:10BD0000803142F8213003B0BDE8F08FC4F888A13B
:10BD1000C4F8D470686071E7384636F08DF9B4E63F
:10BD2000384636F089F9D5E784F89001DBF8003021
:10BD300043F48073CBF80030DBF8083043F00103A4
:10BD4000CBF80830DBF8083043F04003CBF808307C
:10BD50001AE700BF00E100E02DE9F0410446EFF3EF
:10BD60001185502383F3128803799B0702D590F83D
:10BD7000B2313BB9012384F8A431EDB285F31188C7
:10BD8000BDE8F081D0F800311B6813F00103F4D155
:10BD9000D0F89421D0F898110A4302F02102212A08
:10BDA000EBD0D0E909129142E4D090B23ED81946C6
:10BDB00023691B1A9BB2D4F89461A1620021202E42
:10BDC00084F8A411D9D1A1698918D6D0B3FA83F720
:10BDD0007F09002BD1D094F89021012ACDD00122E7
:10BDE000D4F88801A4F8723184F890212122C4F893
:10BDF0009C71D4F82081C4F86C11A4F87031C4F897
:10BE00009421B0B1114A0765C263114A0264114A14
:10BE1000C26408F1280235F0D3FB50B1102384F836
:10BE20009071C4F89C31C4F89461A6E7081A83B2F3
:10BE3000C1E700234022C8F8202084F89031D8F8C8
:10BE4000083043F08003C8F8083096E795D7030818
:10BE5000B9D70308F1D703082DE9F843037905465C
:10BE600013F0020604D090F8B261003E18BF01261C
:10BE7000D5F820412768D4F8088017F0200958D158
:10BE8000FB0540F18880E369DA0701D501232362CD
:10BE900018F0010F7BD0E3699B0701D502232362D1
:10BEA000E369580701D504232362E36919076BD4BA
:10BEB000002E5FD07A0628D5E3695E0625D540239B
:10BEC000236295F8B561002E00F09080D5F800311E
:10BED000002B68D02846FFF73FFF95F8A431A3B1A7
:10BEE00095F8B5418CB995F8B201FEF757FED5F833
:10BEF00020210121136823F00803136085F8B51190
:10BF000018B122462021FDF707FFD5F80031002B9C
:10BF100049D0F9060BD5D5F82031DA69D20606D515
:10BF20006A6B12B19047D5F8203110221A62BDE831
:10BF3000F883E369980614D5606AEB6AC0B2002BF7
:10BF400048D0296B9847D5F82041236823F48073A3
:10BF50002360A36823F00103A360A36943F00803EF
:10BF6000A361F9058FD418F0010F94D1E369190783
:10BF70009ED509E0236823F0C0032360E3695B06D4
:10BF8000C7D540232362C4E70823236290E7B9F1B1
:10BF9000000F8DD089E718F0010F89D0E3699B0766
:10BFA0007FF57EAF7AE73C06B3D5D5F82021D3697B
:10BFB0001806AED5D5E909138B422AD0A969C95C08
:10BFC0000133C9B291622A69B3FBF2F102FB11336A
:10BFD000AB629EE7EB696A69D054EB69EA680133AA
:10BFE000B3FBF2F102FB1133EB61ACE795F8B20160
:10BFF000FEF7D4FD236823F008032360012385F8AE
:10C00000B53100283FF462AF32462021FDF784FEAF
:10C010005CE7136823F0800313607AE7BFF34F8F68
:10C020000549064BCA6802F4E0621343CB60BFF3D4
:10C030004F8F00BFFDE700BF00ED00E00400FA05F0
:10C0400008B572B6FFF7EAFF30B583B0FEF736F9F0
:10C05000344BD3F85C38012B4CD0334C0025334A99
:10C060000523C4F89850C4F89C50C4F8A020C4F824
:10C070009430BFF34F8FBFF36F8F4FF6FF01E2682D
:10C080002B4B0A4013432B4AE360536F35F064FB9C
:10C09000294B2A49A3FB0023D4F8FC209B0C42F037
:10C0A0008072C4F8FC20C1F88C3FD1F89430244948
:10C0B000244AA1FB031324499B09C2F8B01F556011
:10C0C000013B1168B3F1807F41F00101116007D39A
:10C0D0004FF0E022136943F00403136103B030BD55
:10C0E0004FF0E022F0215361072384F8231095617B
:10C0F0001361EDE702210320FEF7DAF80D4B134838
:10C100005A6C134942F480425A645B6C03F48043D6
:10C110000193019A02680B68026083F308884B68F8
:10C120009847FEE70020004000ED00E01B000006FD
:10C130000005FA050038024083DE1B43401601204B
:10C14000D34D6210001000E055CEACC50038014060
:10C150000000F01F800AA0F5801052281CD80F4B59
:10C16000034493F8F4330D2B16D8013910B40C4C5A
:10C1700004EB831CD4F894408BB2DCF8D0040CF2AE
:10C18000D441CCF8DC34B4FBF2F2013A5DF8044B54
:10C19000CCF8D42435F06CBD704700BF00F0040823
:10C1A0004016012070B50468A30AA3F58013522B32
:10C1B00005D82D4E334493F8F4530D2D00D970BD9E
:10C1C0002046FCF767FF294BA801022203EB8515E7
:10C1D000D5F8D01485F80D25254A8D682A40062A01
:10C1E00006D0B2F5803F03D00A6842F001020A602F
:10C1F0001A180121002382F80D151E4951F8332029
:10C2000094420AD001330E2BF8D10121002038F0DE
:10C21000A3FC194B01221A6070BD06EBC306012175
:10C2200096F9414896F84158204638F095FC002C84
:10C23000C5DB05F01F0201216B090F4C01FA02F268
:10C240001B2D44F8232006D1192038F085FC4FF02F
:10C250000073236070BD2E2DB1D12C2038F07CFCF2
:10C260004FF48053636070BD00F004084016012055
:10C27000070001003CF8040800E100E003689B0AA5
:10C28000A3F58013522B55D8F0B5364C234493F8C0
:10C29000F4330D2B4DD840790225334C4FEA831CE3
:10C2A00020FA05F703EB830004EB831603EB400051
:10C2B000BD40D6F8D064BE463844F76800293FD068
:10C2C0003D4304EB8007C7F89C10C7F8AC20F5602D
:10C2D000EFF31185502282F312882C2101FB0340D9
:10C2E000D0F898203AB3111DC0F8BC201F4A03EBC8
:10C2F00083001F4E03EB40008000064410300244D0
:10C3000052F8040F08B10860011DB242F8D10022B2
:10C31000EDB20A6085F311882C2202FB0343D3F8A7
:10C32000BC30BBB1A444DCF8D024D36843F0010393
:10C33000D360F0BD70470D4A01FB03212431D6E7DD
:10C3400027EA0505F56004EB8005C5F89C10C5F8E3
:10C35000AC20BDE76444D4F8D024D36823F00103B3
:10C36000D360F0BD00F0040840160120D81601206B
:10C37000F816012003689B0AA3F58013522B00D9FD
:10C3800070470F4A134493F8F4330D2BF8D8022268
:10C3900010B40C4C407904EB831C20FA02F3DCF857
:10C3A000D00402FA03F3C26829B922EA03035DF854
:10C3B000044BC360704713435DF8044BC360704780
:10C3C00000F004084016012003689B0AA3F58013BF
:10C3D000522B10D8084A134493F8F4230D2A0AD894
:10C3E000407902230549D84001EB82128340D2F8FC
:10C3F000D024DB431361704700F00408401601208D
:10C4000001490248FCF7E4BDD816012000000140B4
:10C4100010B5064C064804F19801FCF7D9FD04F567
:10C4200009710448BDE81040FCF7D2BD4016012058
:10C43000000001400044014002494FF08040FCF7F9
:10C44000C7BD00BF0417012001490248FCF7C0BD69
:10C45000301701200004004001490248FCF7B8BD34
:10C460005C1701200008004001490248FCF7B0BDFC
:10C4700088170120000C0040F8B5164D164E2A69A9
:10C48000EB681A404FF00040B2FA82F3EAB120FAAA
:10C4900003F3012A6FEA030302EA03012B610A4650
:10C4A000F2D1D6F89C718FB1013F0023BFB2C6F81C
:10C4B0009C31D6F8984134B12368204639469847D4
:10C4C0006468002CF8D10022DCE7F8BDEF6ABFB247
:10C4D000EFE700BF0010004040160120014902486C
:10C4E000FCF776BD0C1801200004014010B5064C85
:10C4F000064804F5E671FCF76BFD04F52A71044863
:10C50000BDE81040FCF764BD401601200004014066
:10C51000001C004001490248FCF75ABD38180120B0
:10C520000040014001490248FCF752BD901801202B
:10C530000048014001490248FCF74ABDBC180120EF
:10C54000001800402DE9F0414FF425728EB0002113
:10C550005E4841F021FA5E4B5E4D4FF000085A6C88
:10C5600040F22227A5F6AC06A5F1700442F00102C4
:10C570005A645A6C02F001020092009A1A6C42F05E
:10C5800001021A641A6C02F001020192019A1A6CFB
:10C5900042F002021A641A6C02F002020292029A3B
:10C5A0001A6C42F004021A641A6C02F0040203923C
:10C5B000039A1A6C42F008021A641A6C02F008021C
:10C5C0000492049A1A6C42F010021A641A6C02F077
:10C5D00010020592059A1A6C42F020021A641A6C35
:10C5E00002F020020692069A5A6C42F002025A6445
:10C5F0005A6C02F002020792079A5A6C42F4803297
:10C600005A645A6C02F480320892089A5A6C42F4C6
:10C6100000325A645A6C02F400320992099A5A6C38
:10C6200042F480225A645A6C02F480220A920A9AD6
:10C630001A6C42F040021A641A6C02F040020B922B
:10C640000B9A1A6C42F080021A641A6C02F0800293
:10C650000C920C9A1A6C42F480721A641B6C03F4EC
:10C6600080730D930D9B55F82810002354F8332048
:10C67000914226D001330E2BF8D1002008F1070893
:10C6800038F006FCB845EED14FF0000840F2222702
:10C6900055F82810002354F8332091420CD0013370
:10C6A0000E2BF8D1002008F1070838F0F1FBB8454F
:10C6B000EED10EB0BDE8F08106EBC30393F840085D
:10C6C000F1E706EBC30393F84008D7E7D81601203B
:10C6D00000380240ACF80408800AA0F58010522807
:10C6E0000ED8084B034493F8F4230D2A08D8064BC0
:10C6F00003EB8213D3F8D024136843F001031360D3
:10C70000704700BF00F004084016012037B590F8CC
:10C7100067380446032B2FD10023204D8DF80730B6
:10C720009DF8073094F868289A4201D803B030BDCC
:10C730009DF8073005EBC30393F8943F8BB181F06C
:10C74000010383B19DF8073005EBC303D3F8900FC5
:10C75000FCF744FF9DF807300133DBB28DF807305A
:10C76000DEE70B46EDE79DF8073005EBC303D3F892
:10C77000900FFDF72FF9EDE7D0E910039B7903F057
:10C780000103994204D003B0BDE83040FCF726BF56
:10C7900003B0BDE83040FDF71DB900BF40160120D1
:10C7A00038B5044600790D4650B1FEF7F7F908B1E7
:10C7B0000323C380E2792946BDE83840FDF788BBF2
:10C7C00038BD10B504462221FFF7EAFF2046FFF7E7
:10C7D000FBFD20460121BDE81040CBE510B5044625
:10C7E0000121FFF7DDFF00212046BDE81040C1E533
:10C7F00038B510F8133CA0F66C041BBB94F85838FD
:10C800008BBBD4E909239A421CD05A1CA169A262AD
:10C81000CB5C21695B008A4228BF002243F400738D
:10C82000A262A4F85C380A2384F85A38012384F8F9
:10C83000583894F86738012B01D0042B02D1606C72
:10C84000FFF7CCFF94F85438002B6DD194F855388D
:10C850000133DBB2092B84F8553825D12046BDE8D9
:10C860003840FBF7AFBF94F95A586DB1B4F85C1873
:10C87000013D20464B0801F00101A4F85C38FFF7A8
:10C8800045FF84F85A58DDE7D4E9092384F858585D
:10C890009A42D7D194F86738012B01D0042BD1D11B
:10C8A000606CFFF78EFFCDE70A2B3DD194F8573827
:10C8B0002BB9B4F85E3843F00103A4F85E3823794D
:10C8C000D9070AD5B4F85E08820501D4C30718D485
:10C8D000B4F864380133A4F864380122002384F8E2
:10C8E000542894F8572884F85538012A1CD16179C6
:10C8F000606C84F8573801F00101BDE838403BF026
:10C9000003B9E36AC0F3470013B1216B9847E4E72A
:10C91000E3696269D054E369E2680133B3FBF2F181
:10C9200002FB1133E361D8E738BD00BF2DE9F041C8
:10C93000A14CA4B0D4F85C38022B00F039829F4897
:10C940009F4AA049121A41F0F9F89F489F4AA0490E
:10C95000121A41F0F3F8D4F85838012B00F2C080D5
:10C9600003EB43039B4A9C4E02EB430032F8132037
:10C9700041888388C6E99121C6F84C32974C984D7E
:10C98000984BB2FBF1F2984901FB02F20021C5F885
:10C990009420D4F8882042F47002C4F888201A68E1
:10C9A00042F001021A609960904A1868024090486B
:10C9B0001A60C0F308078F4A5A601A6822F480226E
:10C9C0001A60D96007B1FEE78B49A0604FF6FF00FF
:10C9D0000A688A4B42F400720A60E268024013431C
:10C9E000E36038F065FDBFF34F8FBFF36F8FC4F87E
:10C9F0005072BFF34F8FBFF36F8F636943F40033FF
:10CA00006361BFF34F8FBFF36F8FC4F88470BFF3C0
:10CA10004F8FD4F8803043F6E07CC3F3C90EC3F3E4
:10CA20004E33580100EA0C01734641EA8372013B20
:10CA30005F1CC4F86022F8D1203810F1200FF1D12A
:10CA4000BFF34F8F636943F480336361BFF34F8F4C
:10CA5000BFF36F8F6849634B0A6842F480720A60C3
:10CA6000196C674A41F080511964196C01F08051CA
:10CA700002910299116841F4404111601268D6F8A0
:10CA8000444202F440420192019A9A6802F00C0278
:10CA9000042AD6E9927100F08B809A6802F00C02A9
:10CAA000082A00F081804F4A136843F480331360F2
:10CAB000D5F8D00F04E0D5F8D03F1B1A642B72D8FC
:10CAC00013689B03F7D5474A936803F00C03082BC0
:10CAD00069D0136823F080731360D5F8D00F08E095
:10CAE0003D4ED6E9912149E7D5F8D03F1B1A022BDC
:10CAF00059D813689E01F7D40B06790843EA8413CA
:10CB0000013943EA01433F4919435160136843F037
:10CB100080731360334AD5F8D01F04E0D5F8D03FB6
:10CB20005B1A022B3FD813689801F7D5136C43F0BA
:10CB300080531364136C324A03F080530393039BB6
:10CB4000136843F480331360D5F8D01F05E0D5F89F
:10CB5000D03F5B1AB3F57A7F2DD85368DB03F6D547
:10CB60001368274943F400331360D5F8D02F05E04C
:10CB7000D5F8D03F9B1AB3F57A7F1CD84B689E033B
:10CB8000F6D54FF400124FF0006304A804924FF45E
:10CB9000C07221930723CDE9082303230A9334F0BD
:10CBA0000FFE88B3FEE7FEE75B685A027FF57BAFB6
:10CBB0000C4B1B6887E7FEE70020004000000000E8
:10CBC0006835000064E605080000002064000020CD
:10CBD000243C0608340105080000012000ED00E0B7
:10CBE000401601200038024040420F00FFFFF6FED1
:10CBF0000000000810300024003C02400003FA0549
:10CC000000700040080040206C4A136803F00F03D6
:10CC1000062B0AD8136823F00F0343F007031360B1
:10CC2000136803F00F03072B69D1654B9A6842F430
:10CC3000E0529A609A6842F460429A609A6822F0E0
:10CC4000F0029A601A68900159D59A6841F28830CA
:10CC500022F0030242F002029A60D5F8D01F04E0ED
:10CC6000D5F8D02F521A824249D89A6802F00C02A5
:10CC7000082AF5D1514A136819070AD5136823F019
:10CC80000F0343F007031360136803F00F03072B30
:10CC900035D1DFF82C814B4ED8F8083023F4E0531F
:10CCA00043F4A053C8F80830D8F8083023F46043A0
:10CCB00043F40043C8F8083034F04EFDD8F808308B
:10CCC000C3F30313334493F8483020FA03F3C5F851
:10CCD000943038F0EDFB002304A8CDE91333CDE9FF
:10CCE0001533CDE91733CDE91933CDE91B33CDE940
:10CCF0001D33354B049334F063FD08B1FEE7FEE7C6
:10CD000002234FF0007204A8CDE90633D823CDE901
:10CD1000042301230B9334F053FD00B1FEE7D8F850
:10CD20008C3023F08073C8F88C30D8F88C3043F006
:10CD30008073C8F88C30D8F8083003F00C03042B4B
:10CD400031D0082B12D0214B2149B4FBF7F201FB63
:10CD500002F21B498968C1F303110E4496F848108A
:10CD6000CB409A42C5F894301FD0FEE7D8F8043083
:10CD7000D8F8042013F4800FD8F8043002F03F02F2
:10CD800018BF1449C3F3881308BF1049B1FBF2F26E
:10CD900002FB03F30A4A5268C2F301420132520015
:10CDA000B3FBF2F3D0E70B4BCEE724B0BDE8F08144
:10CDB00000210320FDF77CFAFFF730F9003C024028
:10CDC00000380240F8000508C0FF03000024F4000A
:10CDD00040420F0000127A0010B4EFF311821023CA
:10CDE00083F312880C4B4FF0E0200024D2B2D3F82A
:10CDF00024140131C3F824148169C3F8D41FC3F883
:10CE0000D84F016982F31188D3F8D02F5DF8044B15
:10CE10000132C3F8D02F70474016012010B4EFF351
:10CE20001181102383F312884FF0E0229469136973
:10CE300013F4803F0D4B03D00120C3F8D80F946941
:10CE4000D3F82404C9B2D3F8D82F81F3118802444F
:10CE5000D3F88C1F4FF47A7000FB01F31B1B5DF8B5
:10CE6000044BB3FBF1F300FB023070474016012086
:10CE7000134B5B68C3F3080303BBEFF31183EBB9F8
:10CE8000104B4FF0E02C10B4D3F82424DCF8180039
:10CE9000D3F824148A42F7D1D3F8D41F8842F3D8A8
:10CEA000D3F88C4F4FF47A7101FB04F31B1AB3FBD8
:10CEB000F4F35DF8044B01FB02307047AEE700BFAE
:10CEC00000ED00E0401601202DE9F04F374C83B013
:10CED00023781BB9012003B0BDE8F08F344F04F56F
:10CEE0008764DFF8D0B04FF0000AD7F824344FF64B
:10CEF000FF7894F8C0910BF53875ABF5F1660193A6
:10CF000014E0B0F5606F43D0A881B0EB0801019A3E
:10CF1000584618BF01210DF01FFD0AF1010A0BF15F
:10CF20005C0B20341435BAF1080F2AD0CA4528D03A
:10CF3000A0696268D0E93D0142F04EF84FF6FE73F9
:10CF400097F8DD2F984214D0542A04D1B7F8E02F77
:10CF50000132A7F8E02FD6F8702A404502F101020D
:10CF6000C6F8702ACDD1D6F86C2A0132C6F86C2AE0
:10CF7000CBE7542AD1D1B7F8E22F0132A7F8E22F3C
:10CF8000CBE70123012086F86C3B03B0BDE8F08FAE
:10CF900097F88C2402EB420207EBC202524492F84B
:10CFA00039240D2AB0D18022AA77AEE76400002090
:10CFB00040160120E418002070B542F005F880B357
:10CFC0001A484568002D10DD002410F8086B16B1D2
:10CFD000037F012B1FD04269013400F5867013686E
:10CFE000AC4243F001031360F1D1FFF741FF104B56
:10CFF000D3F88447002C0DDD03F2647303EBC40403
:10D000001968083333F8042CC868A34242EA0002C6
:10D01000CA60F5D170BD002380F8FC30FBF77EF8C4
:10D02000D9E73EF047FE0028CAD170BD6400002059
:10D030005C1100202DE9F04F894C87B023781BB993
:10D04000012007B0BDE8F08F864BD3F82434049359
:10D05000FFF70EFF94F8F8250192002A00F0F880FF
:10D06000814A04F5C0640027D2F8783B02F5F16BE1
:10D0700002F6682A2646A0EB03080594B8F1000FD3
:10D0800003DBF36D434500F3C98007EB8703744A64
:10D0900002EB431393F8583603F0FF0E002B00F019
:10D0A0008780D6F89410B36870481A68CBB221F024
:10D0B000FF01103BA0FB03036D481B09C35C0B443D
:10D0C000B1895C68D368A4B223EA0103C4F11604F1
:10D0D000D360072C6CD9644A0121D2F8703A894692
:10D0E0000133C2F8703A0022D6F89C301546186811
:10D0F0009C46CDE902E715E0142D1EDC17F1080E61
:10D1000048BF07F1170E4FEA2E1705EB2E1507F152
:10D11000FF3E013102FA07F709FA0EFE8C424EEA91
:10D1200007020AD307468C425CF8040FA0EB0707FE
:10D13000E2D8C5F115071525E9E7152DDDE902E768
:10D1400062D14C4CC2F38421C2F3441004EB810140
:10D1500004EB8000D1F8D810D0F8D800090241EAD9
:10D16000001102F01F00C2F3C43204EB800004EB94
:10D170008202D0F8D800D2F8D820014341EA023226
:10D1800082EA122181EA111101F00F010F293BD12E
:10D19000C2F30F124FF6FF718A4235D0B2F5606FBD
:10D1A00040D0AAF80C207146049A58460DF0D4FBE2
:10D1B00030460137FDF7CEF8019BA0360BF15C0B32
:10D1C000BB420AF1140A7FF459AF019B0121059C6F
:10D1D000002203EB8303244804EB431380F86C1B09
:10D1E000C0F8782BA268A03414F8901C126854F888
:10D1F0004C0C11F0020F116A14BF41EA8001014387
:10D20000A3421162EED11BE71749D1F86C2A013213
:10D21000C1F86C2AB7B14FF0000EC4E7002007B088
:10D22000BDE8F08F0F4991F88C3403EB430301EB19
:10D23000C3033B4493F839340D2BB2D180238AF8D1
:10D240001E30B0E7194658220B4840F077FCE2E761
:10D25000054B0122019983F86C2BC3F8781BEFE68C
:10D2600064000020401601205C110020ABAAAAAA8D
:10D2700060610508F8000508701C00202DE9F047E2
:10D280002F4FFFF7F5FDDFF8C09080467E68002045
:10D290002C4C002E48DD00234FF486711D4601FB07
:10D2A0000372013392F805219E4245EA0205F6D148
:10D2B00028435FFA80FAD9F80430C3F3080383BB2C
:10D2C000EFF311836BBB4FF0E02CD4F82434DCF87F
:10D2D0001810D4F824249342F7D1D4F8D42F9142D3
:10D2E000F3D8D4F88CCF4FF47A7202FB0CF0401ACA
:10D2F000B0FBFCF002FB0300A0EB0803B3F5FA6FF0
:10D30000CCBF002005F001000028C2D1BAF1000F07
:10D3100004D00C4B93F8DD2F542A08D05046BDE8BA
:10D32000F087FFF77BFDE7E782460025C3E7B3F808
:10D33000E42F50460132A3F8E42FBDE8F08700BF88
:10D34000640000204016012000ED00E02DE9F04FC0
:10D35000874C83B00746D4F8949894F89C38019190
:10D36000B9F1000F0BD083F00202B9F80410C2F338
:10D370004002120101FA02F2D9F800108A61D4F8D1
:10D380009088B8F1000F09D003F00103B8F8042029
:10D390001B0102FA03F3D8F800209361013F754E98
:10D3A0004FF0E0254FF47A7BFBB20093B9F1000F08
:10D3B00008D0D9F80010B9F804304869034218BF02
:10D3C0001B048B61B8F1000F00F0C980D8F8001081
:10D3D000B8F80430486903424FF0010018BF1B043D
:10D3E0008B610EF0F5FFDDF804A07368C3F308034A
:10D3F000002B40F0B080EFF31183002B40F0AB80A6
:10D40000D4F82474A869D4F824148F42F8D1D4F83D
:10D41000D41F8842F4D8D4F88C3F0BFB03F1091ACF
:10D42000B1FBF3F10BFB07177368C3F30803002B81
:10D4300040F08A80EFF31183002B40F08580D4F810
:10D440002434A969D4F824048342F8D1D4F8D40F41
:10D450008142F4D8D4F88C2F0BFB02F0401AB0FBB9
:10D46000F2F00BFB0300C31BB3F57A7FDCD3BAF1F8
:10D47000010ABAD1B9F1000F08D0D9F80010B9F8F3
:10D4800004304869034218BF1B048B61B8F1000FD8
:10D4900069D0D8F80010B8F80430486903424FF05A
:10D4A000000018BF1B048B610EF092FFDDF804A092
:10D4B0007368C3F30803002B49D1EFF31183002BEA
:10D4C00045D1D4F82474A869D4F824148F42F8D133
:10D4D000D4F8D41F8842F4D8D4F88C3F0BFB03F166
:10D4E000091AB1FBF3F10BFB07177368C3F30803C9
:10D4F0003BBBEFF3118323BBD4F82434A969D4F8E0
:10D5000024048342F8D1D4F8D40F8142F4D8D4F85B
:10D510008C2F0BFB02F0401AB0FBF2F00BFB030068
:10D52000C31BB3F57A7FE0D3BAF1010AC0D1009BE7
:10D530005F1EFBB2FF2B00937FF438AF03B0BDE852
:10D54000F08FFFF76BFCEBE7FFF768FC8BE7FFF76B
:10D5500065FC0746C9E7FFF761FC074664E7012061
:10D560000EF036FF3FE740460EF032FF9EE700BF69
:10D570004016012000ED00E02DE9F0411C4CD4F8EC
:10D580008423136A002BFCD1FFF772FCDFF8648060
:10D590004FF0E02506464FF47A77D8F80430C3F30D
:10D5A00008030BBBEFF31183F3B9D4F82414AA6971
:10D5B000D4F824349942F8D1D4F8D43F9A42F4D81C
:10D5C000D4F88C0F07FB00F39B1AB3FBF0F307FBB7
:10D5D0000130831B092BE0D9D4F88C3313B11A68BE
:10D5E0009B889361BDE8F081FFF718FCF1E700BF6D
:10D5F0004016012000ED00E02DE9F041C04C92B052
:10D6000094F87C63002E00F0BB8194F85023531EE5
:10D61000082B34D8DFE813F0D2000900690033008A
:10D620004301F70051003300410094F845530021B5
:10D630003720A5F10205FBF7D5FE2920B5FA85F5BF
:10D640006D09AD072946FBF7CDFE0546FFF794FFB0
:10D6500015F0FF0540F08C8194F84533022B00F063
:10D6600011820021092084F84653FBF7BBFE0028F5
:10D6700000F0CB81FFF780FF94F85023531EDBB2FC
:10D68000022B40F23181082A18BF042A0CBF012660
:10D690000026304612B0BDE8F08137F00DF80028C2
:10D6A00040F03382D4F84033D4F82424FA33934240
:10D6B00080F05E81FBF7C4FAA7E736F0FDFF002893
:10D6C000F0D0D4F84C330022012B84F8442340F2EC
:10D6D0002282D4F84823013B08210132C4F84C339C
:10D6E00084F85013C4F84823D3E7102103A8FBF7AC
:10D6F000D3FE002840F03C81BDF80D309DF81A1093
:10D700005BBA9DF80C209DF81150A4F8583362F3D1
:10D7100007009DF819309DF80F201B0162F30F20C0
:10D720009DF81020DBB262F317409DF8142043EA05
:10D73000111301F00F0165F31F6003F5FA6384F81C
:10D740006813BDF81210A4F86633DDF81530C4F87C
:10D750005A031BBAA4F85E13C4F86033130902F02D
:10D760000F0284F8643384F86523FFF705FF94F80B
:10D77000463353B94FF400711020FBF733FE0546D2
:10D78000FFF7FAFEEDB2002D94D1D4F894305D4944
:10D790009A08B1EB930F4FF0020306D252085B00D8
:10D7A0008A429BB201D9FF2BF8D900210422A4F8A8
:10D7B0008833C4F84C1384F8502326E70021084628
:10D7C000FBF710FE0546FFF7D7FEEDB2012D40F046
:10D7D000CF80002740F2AB11082084F84573FBF797
:10D7E00001FEC0B2052800F00D81012800F0EA809A
:10D7F000FFF7C2FE94F84533002B00F0838102232B
:10D8000084F8503301E7D4F88423117B136A00298C
:10D810007CD05269002A79D094F80C24002A75D063
:10D82000B3FA83F35B09002B00F0A280002302A966
:10D8300001223548ADF808308DF818300793089369
:10D840008DF82C3011938DF84020CDE9031302217F
:10D8500005910DF10701CDE9091203A9CDE90C33BA
:10D86000CDE90E3332F0AAFFD4F884331D6A002DBF
:10D87000FCD19DF8073003F01F03052B00F02C812D
:10D88000FBF7DEF9D4F83873002F3FF4BEAED4F8BE
:10D890003C332A46D4F830130120B847B5E64FF49C
:10D8A0000071D4F82C03FBF7F7FD0128054658D08A
:10D8B00002286BD000285BD1FFF75EFE0423D4F86A
:10D8C000387384F8445384F85033002F3FF4E1AEAA
:10D8D000D4F83C332846D4F82C23D4F83013B84776
:10D8E00094F85023531ECAE6D4F82434D4F84023C5
:10D8F0009B1AC82B5BD80026304612B0BDE8F081D9
