:020000040800F2
:10000000F0FF0010D106080899410708DDF4010847
:100010007107080871070808710708080000000048
:100020000000000000000000000000009D410708E3
:10003000A141070800000000A5410708F5A5000838
:100040007107080871070808710708087107080890
:10005000710708087107080821C3000845C3000894
:1000600069C300088DC30008B1C30008FDBD0008C6
:1000700011BE000825BE000839BE00084DBE0008AC
:1000800061BE000875BE00087107080871070808FE
:10009000710708087107080871070808D5C3000828
:1000A00089D80008E9D7000899D80008D9D70008EE
:1000B00011D8000821D8000831D80008D1B70008AD
:1000C000A1CF0008D9B70008A5CF0008710708081C
:1000D0007107080869870608698806088D89060877
:1000E00011C4000871070808F95C0708A9D80008BE
:1000F00061D80008B9D8000851D8000889BE0008A6
:10010000710708087107080841D800087107080836
:10011000B18A0608D58B0608710708087107080818
:100120009DBE0008B1BE0008C5BE0008D9BE0008CB
:10013000EDBE000871070808710708087107080874
:10014000710708087107080871070808A94107081E
:1001500001BF000815BF000829BF0008F98C060878
:10016000E1B70008A9CF000871070808710708085F
:10017000710708087107080871070808710708085F
:08018000710708087107080867
:10800000074BD0F8E4105B68D0F8F0205B1A9A4276
:10801000B8BFC0F8F030012380F81C310020704751
:10802000001000E0B04B00EB80022DE9F04103EBC3
:10803000C20553F832205268918ACC074FEA800C6F
:1080400076D4CCB2A70744D5BFF35F8F297F01292F
:10805000CCB200F0E6804100148BBFF35F8F0CEBD5
:10806000000403EBC404257F022D00F006810CEB15
:10807000000403EBC404257F032D08D1A47F34B191
:108080000C181C4494F87850002D40F05B819488C3
:10809000A4B244F4806494800C181C4494F97AE0EF
:1080A0000CEB000403EBC404247F013474450ED1AF
:1080B00001441944002481F8784091F8791000298E
:1080C00040F0D480604403EBC00000234376BDE859
:1080D000F081660765D400EB40071F4414F04004AC
:1080E0008EB297F97AE04FEA400100F0DA80168A02
:1080F0006C6AF6B204F80E605FFA8EF6741C64B215
:1081000095F81C8087F87A40E51CA845A64600F043
:1081100045810CEB000503EBC5052D7FAC42BFD1BB
:108120000C1802361C4476B284F87A60B646B7E77B
:10813000118821F400610904090C1180118889B2A9
:1081400041F48061118000EB40041C44AE7F0021AB
:1081500084F87A104100002E52D094F87840002C18
:108160004BD00CEB000403EBC4040144247F1944FE
:108170000125022C81F8785004D1118889B241F48C
:10818000006111800CEB000103EBC101897E41F01D
:10819000010111820CEB000203EBC2031B7FBDE85F
:1081A000F08100EB40061E44AC7F012186F8791077
:1081B00000FA01F1002C00F0908096F87840002C35
:1081C00040F094800CEB000403EBC404647F002CAB
:1081D00000F0BB800D181D44148895F87AE0A4B215
:1081E0000EF1010E44F400744FFA8EFE148085F8EF
:1081F0007AE01488E705FCD452E7EC7EFF2CB0D07F
:108200000CEB000403EBC404A57E05F0FE0515820B
:10821000E27EFF2ABED001441944FF2281F87A2071
:10822000B8E7A97F00293FF416AF00EB40051D44D5
:10823000410095F87860002E3FF40EAF168826F4C2
:1082400080663604360C1680BFF35F8F85F8794060
:10825000148B148895F97AE0A4B244F40074148065
:108260009488A4B244F48064948019E7918821F43E
:1082700040710904090C918024E7A47F002C3FF48D
:10828000F6AE0C181C4494F87850002D3FF4EFAE75
:1082900094F97AE0148824F480642404240C148073
:1082A00014E036067FF5FCAEBEF1FF3F7DD02C6AB0
:1082B00014F80E40E4B214822C7F0EF1010E4FFA36
:1082C0008EFE744587F87AE07FF4EAAE948824F451
:1082D00080642404240C9480E2E696F87840002C14
:1082E0003FF470AF76E700BFE02000202C7F6F6A7C
:1082F000022C148836D924F480642404240C1480BD
:10830000B2F810E096F97A405FFA8EFE07F804E0C2
:10831000D5F824E01588ADB245F400751580E4B2B7
:10832000178A651C6DB2FFB20EF8057004F1020EDB
:108330009488A4B24FFA8EFE44F4806486F87AE002
:10834000948056E794F97AE0C0E71488A4B244F424
:10835000807414800C181C44012594F97AE084F888
:10836000785046E7A4B244F400741480B2F810E0E8
:1083700096F97A405FFA8EFE07F804E0E4B2D5F889
:1083800024E0178A651C6DB2FFB20EF8057004F187
:10839000030E4FFA8EFE86F87AE02AE7958825F4D8
:1083A00080652D042D0C9580B3E6E97E87F87A4030
:1083B000C9B21182A97F19B9297F00297FF4EAAED9
:1083C000918821F480610904090C9180E2E600BFE4
:1083D00010B404698269E468416814600023402491
:1083E000C2E90234446993630C31C2E90433C2E93F
:1083F0000633C2E90833C2E90A33C2E90C335160DB
:1084000094B1C269E46893634FF48030C2E90041DB
:10841000C2E90233C2E90433C2E90633C2E90833D0
:10842000C2E90A03C2E90C335DF8044B704700BF90
:10843000D0E9001300221A60037D1F2B07D9203BCF
:10844000202202FA03F343F01803CB607047202286
:1084500002FA03F343F018038B6070471B4B01686B
:1084600003F57D7C02E02C3363452CD01A688A42E8
:10847000F9D170B593F804E0427996450BD02C33CE
:10848000634505D01A688A42F4D02C336345F9D18C
:108490004FF0FF3070BD9E468468DEF80C50A54258
:1084A0004FF0000208D00132032A0EF10C0EE6D084
:1084B000DEF80C50A542F6D1DEF81050C668B54281
:1084C000F1D150B270BD4FF0FF30704784150808ED
:1084D000002A4FEA014C30B503460ABFE6468E46F5
:1084E0008C4600F1C005002419689A6841EA0C0125
:1084F00042EA0E029A60C3E900140C33AB42F3D196
:10850000D0F8C030C0F8C44043EA0E03C0F8C03011
:10851000C0F8C84030BD00BF83691969B3F80CC00A
:108520000A6830B49C6822F0010224680A60A289BB
:1085300092B222EA0C02A281027D00681F2A06D9AB
:108540004568203A082494402C4245D0FEE705684F
:10855000082494402C42F9D1202404FA02F28260CB
:10856000264A1278002A35D01A7E012A39D0D3F84B
:10857000F4200132C3F8F420EFF31181502282F38A
:10858000128858685C6C026822EA04029C6C2243E0
:10859000C9B2026081F31188D3E90C401A69996865
:1085A0001D6C096814605061D3E90E4054609060FE
:1085B0000024B3F8A800D5604C62C862106801249A
:1085C000204310601C7683F8F1408A899B8913430D
:1085D0009BB28B8130BC7047202404FA02F2C26047
:1085E000BEE7002283F8F120D3F8F8000A680130D2
:1085F00022F00102C3F8F8000A60EBE70400001063
:1086000010B40C4C6368002B11DD002004F1080C41
:108610000146DCF8A03003F1C00259600C339342EC
:10862000FBD16368013083420CF5807CF1DC5DF89E
:10863000044B704704000010F0B5414C04EB4013AC
:1086400093F8243403B9F0BD3E4B93F8815093F86E
:10865000822095424FEA401C0CD002EB420E03EB05
:10866000CE0E9EF88460771E012F4FEA420E58D935
:10867000032E51D004EB0C00A0F80814EFF3118284
:10868000902383F3128890F80A34B0F8081443EA70
:1086900041030021D2B29BB280F80A1482F3118800
:1086A0002178D0F820441A0982EA13225A40C9B12D
:1086B000D0F80C14D4F8A040D2431B019BB202F0B6
:1086C0000F0201208840134304F1C0015A0013F443
:1086D000004F93B202D16268024362600C34A1423F
:1086E000F4D1F0BDD0F80C14D4F8A0401B01103127
:1086F0009BB202F00F0201208840134304F1C00135
:108700005A0013F4004F93B202D1626802436260D0
:108710000C34A142F4D1F0BD561C06F00306AE4263
:10872000A8D0964403EBCE03184490F8911000298A
:10873000A0D004EB0C03012283F80A249AE700BFBF
:1087400004000010E0200020704700BF024B03EB44
:10875000401393F825047047040000104368B0F8F4
:10876000502010B41A83EFF31182502383F3128840
:108770004168446C0B6823EA0403C46C2343D2B2FF
:108780000B6082F31188D0E907418268036912689F
:108790001C605961D0E909415C60C46A9960B0F815
:1087A0006010DC600023D1625DF8044B03767047F3
:1087B00010B4037D02681F2B09D95468203B202187
:1087C00001FA03F31C4215D15DF8044B704714689D
:1087D000202101FA03F31C42F6D00D494068002421
:1087E00081F8E44001685DF8044B21F0010101606B
:1087F0009360704706494068002481F8E4400168AE
:108800005DF8044B21F001010160D360704700BFA7
:10881000E02000200C4B0D49DB68DB43C3F302234F
:10882000C3F104030122DBB202FA03F301EB000CF3
:108830001B0103F0F0038CF80033430900F01F0024
:10884000824041F82320704700ED00E000E100E0A5
:1088500010B4037D02681F2B09D95468203B2021E6
:1088600001FA03F31C4215D15DF8044B70471468FC
:10887000202101FA03F31C42F6D00D494068002480
:1088800081F8E54001685DF8044B21F001010160C9
:108890009360704706494068002481F8E54001680C
:1088A0005DF8044B21F001010160D360704700BF07
:1088B000E0200020122301480B807047880100202F
:1088C000042301480B8070479C0100201C48D0F80D
:1088D000103AD0F8182A10B59B184FF01A040C80E3
:1088E00001D1184810BD174AD0F8140A02F110043B
:1088F00011464FF0000E4FEA137CB3F1204F34BF06
:108900000CF1300C0CF1370C81F802C081F803E057
:1089100002318C424FEA0313EDD102F10804002129
:10892000030FB0F1204F34BF303337339374D17419
:10893000023294424FEA0010F2D1024810BD00BF4B
:108940000070FF1FA0010020D0E90920131A58422F
:108950005841704790F84F3830B53BB990F84D18F2
:1089600090F84E380124DAB2914200D830BDB0F808
:10897000565804FA03F22A43A0F856280133F2E7C6
:108980000379024613F0010006D0D2E90731D2681C
:108990005B1A013A03EA0200704710B5037913F03D
:1089A000010304460ED0FFF7EBFF034650B1226AE5
:1089B0006369E1689B5C0132B2FBF1F001FB1022BC
:1089C000DBB22262184610BD03799B070AD5436AC1
:1089D0008269D154436A02690133B3FBF2F102FBAD
:1089E0001133436270477047017170470379014644
:1089F00013F0020007D00B69D1E90921013B521A9B
:108A00001A40D2B2981A704782B01D4B1D490022FD
:108A100001920193019B04330193019B1A688B68B7
:108A200003F00C03042B02D0082B05D0164A174B79
:108A3000C3F8E82002B0704748684B68400203F072
:108A40003F0314D44A681049B1FBF3F3C2F3881210
:108A500003FB02F20B4B5B68C3F3014301335B0082
:108A6000B2FBF3F2094BC3F8E82002B07047496843
:108A7000B2FBF3F2C1F3881303FB02F2EAE700BF93
:108A800050280040003802400024F400E02000207C
:108A900010B584464FEA810E102312F4004F14BF24
:108AA0000E2407245200013BCCF8004092B2F4445B
:108AB000F3D100EB81128C01035142F821301220D6
:108AC00010BD00BF10B584464FEA810E0424130B7D
:108AD00003EB430318331201013CCCF8003092B28F
:108AE000F444F4D100EB01130A01845043F821400F
:108AF000062010BD704700BF704700BF034B00EB5E
:108B0000400003EBC00393F8190570470400001000
:108B1000064B93F8C825824283BF00EB400003EB6D
:108B2000C003D3F81C050020704700BF04000010EC
:108B30001D4B93F8CC25AAB3D3F8081509B1002032
:108B40000860012A2ED0D3F8201509B10020086052
:108B5000022A27D0D3F8381509B100200860032A6B
:108B600020D0D3F8501509B100200860042A19D08C
:108B7000D3F8681509B100200860052A12D0D3F88F
:108B8000801509B100200860062A0BD0D3F898158B
:108B900009B100200860072A04D0D3F8B0350BB122
:108BA00000221A60704700BF040000101D4B93F8AC
:108BB000CC25AAB3D3F8081509B100200860012A12
:108BC0002ED0D3F8201509B100200860022A27D042
:108BD000D3F8381509B100200860032A20D0D3F853
:108BE000501509B100200860042A19D0D3F868157F
:108BF00009B100200860052A12D0D3F8801509B108
:108C000000200860062A0BD0D3F8981509B100207F
:108C10000860072A04D0D3F8B0350BB100221A60DF
:108C2000704700BF04000010C24B93F83230002B95
:108C300040F05781C04B93F8CC25002A00F05181B9
:108C400093F8181530B500294ED1D3F80815002037
:108C5000012A086047D993F83015002967D1D3F865
:108C600020150020022A08603DD993F848150029F4
:108C700040F0D080D3F838150020032A086032D99C
:108C800093F86015002940F0E880D3F850150020D3
:108C9000042A086027D993F87815002940F0FF804E
:108CA000D3F868150020052A08601CD993F89015A0
:108CB000002940F01781D3F880150020062A0860AB
:108CC00011D993F8A81500295BD1D3F89815002085
:108CD000072A086007D993F8C025002A76D1D3F86F
:108CE000B03500221A6030BDD3F80C158A0AA2F5FF
:108CF0008012522A40F218814FF0FE0CEFF31180DF
:108D0000502282F312888D4C4D6A8A8A4FF02C0EC5
:108D10000EFB0C4C92B2013542F00102CCF814511A
:108D2000C0B28A8280F3118893F8CC258DE7D3F8FE
:108D300024158A0AA2F58012522A40F203814FF0CC
:108D4000FE0CEFF31180502282F312887B4C4D6AA7
:108D50008A8A4FF02C0E0EFB0C4492B2013542F081
:108D60000102C4F81451C0B28A8280F3118893F8CA
:108D7000CC25D3F820150020022A08603FF675AFF5
:108D8000B1E7D3F89C158A0AA2F58012522A00F2A4
:108D9000F2806B48024492F8F4C3EFF31180502242
:108DA00082F31288654C4D6A8A8A4FF02C0E0EFBB6
:108DB0000C4492B2013542F00102C4F81451C0B221
:108DC0008A8280F3118893F8CC257EE7D3F8B41516
:108DD0008A0AA2F58012522A9BBF594812184FF0F6
:108DE000FE0C92F8F4C3EFF31180502282F3128844
:108DF000524C4D6A8A8A4FF02C0E0EFB0C4492B2F4
:108E0000013542F00102C4F81451C0B28A8280F3E5
:108E1000118864E7D3F83C158A0AA2F58012522A19
:108E200040F295804FF0FE0EEFF31180502282F356
:108E30001288424C4D6A8A8A4FF02C0C0CFB0E446F
:108E400092B2013542F00102C4F81451C0B28A82D4
:108E500080F3118893F8CC250CE7D3F854158A0ACF
:108E6000A2F58012522A77D94FF0FE0CEFF3118051
:108E7000502282F31288314C4D6A8A8A4FF02C0EB0
:108E80000EFB0C4492B2013542F00102C4F81451B9
:108E9000C0B28A8280F3118893F8CC25F5E6D3F826
:108EA0006C158A0AA2F58012522A5AD94FF0FE0C8C
:108EB000EFF31180502282F31288204C4D6A8A8A87
:108EC0004FF02C0E0EFB0C4492B2013542F0010221
:108ED000C4F81451C0B28A8280F3118893F8CC256B
:108EE000DEE67047D3F884158A0AA2F58012522A6A
:108EF0003CD94FF0FE0CEFF31180502282F3128820
:108F00000E4C4D6A8A8A4FF02C0E0EFB0C4492B226
:108F1000013542F00102C4F81451C0B28A8280F3D4
:108F2000118893F8CC25C6E60548024492F8F4C3AC
:108F3000E4E600BF8801002004000010E0200020CB
:108F4000841508080D48024492F8F4C3F9E60B486A
:108F5000024492F8F4E367E70848024492F8F4C345
:108F600084E70648024492F8F4C3A1E703480244A8
:108F700092F8F4C3BFE74FF0FE0C0EE78415080823
:108F800000EE100AB8EE400A704700BFBCEEC00AFF
:108F900010EE103A98B27047072809D8054B8C227A
:108FA00002FB0033B3F8D005B0FA80F040097047F7
:108FB0000020704704000010072806D8034B8C22BD
:108FC00002FB0033012283F8D22570470400001011
:108FD00070B53F4C8C2303FB004393F8DF3503B996
:108FE00070BD3C4B93F881E093F8822096450CD0FD
:108FF00002EB420C03EBCC0C9CF884506E1E012E4D
:109000004FEA420C44D9032D3DD08C2202FB004292
:10901000A2F8D015EFF31181902383F31288B2F8F0
:10902000D05592F8D23543EA45030025C9B29BB228
:1090300082F8D25581F311881A09217882EA132225
:109040005A4001B1D2431B019BB294F8341AD4F8B0
:10905000305A02F00F021A438C2303FB004431BB49
:109060000121D4F85806A847D4F85416B4F8DC55B2
:109070008A8AD4F850362A438A8258601A6842F0A5
:1090800001021A6070BD551C05F003057545BCD082
:10909000944403EBCC03034493F891100029B4D01B
:1090A0008C2303FB0043012283F8D225ADE7D4F8DB
:1090B000D835D4F854165B79086903F0FC031844DA
:1090C0000421A847D4F854368000988170BD00BFB1
:1090D00004000010E02000207AE700BF072808D82D
:1090E000044B03EB401393F8242412B1012283F8BC
:1090F0000A24704704000010072808D8054B03EB2A
:109100004013B3F80804B0FA80F04009704700201B
:10911000704700BF04000010054B93F8C825824239
:1091200086BF03EB4013D3F814040020704700BF40
:1091300004000010012343770020704708B5034660
:109140008269006BD96A02449A6101B188470020A4
:1091500008BD00BF436A1B681B6A5B685B780246F8
:1091600013F0010008BF5077704700BFF0B5224CE4
:10917000224A234B95B0054604F13C00CDE900029C
:10918000049304F140000023CDE90503CDE90E333B
:109190001C4A09920B9304F1340210931393119318
:1091A0006B6A2F7F0A921868012302228DF80C3017
:1091B00007938DF820308DF834308DF848303B1D02
:1091C00002920E460C9373F0C3F897B1330E84F8F5
:1091D00035303634320C330A22706370A670686AF8
:1091E00069465AF0B9FD6B6A186873F0B1F815B0AA
:1091F000F0BD3534EEE700BF8801002034240020A4
:10920000559100083591000810B5044694B05022DD
:109210000649684675F02EFD606A69465AF09CFD65
:10922000636A186873F094F814B010BDCC1908087C
:10923000C2628161704700BF2DE9F0410446406A77
:1092400000681E460F46904673F082F8237FA0699F
:10925000002B3DD0274D030E85F84530052205F142
:1092600046039870EA67020C000A58701A703B684F
:10927000C5F888300020D8F80030C5F89030012EAD
:109280002363C5F8A00028D0022E1FD1D8F80420EF
:10929000C5F89800796885F89400C5F89C101344C7
:1092A0001549C5F8A4200120236385F8A800C5F856
:1092B000AC10124B627F606AA3F11401002A08BF50
:1092C00019465AF049FDE36A7BB1206BBDE8F08195
:1092D0000B4B0422A3F14505C3E7074B85F89460C7
:1092E000C5E92630C5F8A400E3E7636A186873F09F
:1092F0002FF8EAE7880100203D910008E8010020EE
:10930000CD010020704700BF00B583B0816101929C
:10931000049A0093C26201236A4601A9FFF78CFFF9
:1093200003B05DF804FB00BF0430704710B4094C73
:10933000D4F858034FF0340C0CFB00F004EB000C95
:1093400004F557742044DCF85C43A469A4465DF836
:10935000044B6047E0200020064BD3F8582334210B
:1093600001FB02F203F5577013441044D3F85C3349
:10937000DB691847E020002004307047436A1B680F
:109380001B6A5B689B78024613F0010008BF5077A8
:10939000704700BFC2628161704700BF01234377FD
:1093A0000020704708B503468269006BD96A024401
:1093B0009A6101B18847002008BD00BF704700BF17
:1093C000043070470D4B93F8C823D3F8C4130244FC
:1093D000D2B283F8C82393F8C82301441206C3F815
:1093E000C41305D593F8C82382F0800283F8C823FC
:1093F000034B012283F8C420704700BFE020002007
:10940000880100202DE9F047154FD7F8CC53ED0A1D
:1094100020D00026B14607F204487419D7F8D0339B
:109420001048D3F828A0C7F8FC9304EBD474641058
:1094300010234246E102D0470F280BDD0A4B03F10F
:10944000100153F8042B013207D18B42F9D1254684
:10945000B542E2DCE802BDE8F087661CF8E700BF31
:10946000E0200020B0240020E42400201A4BD3F890
:109470001414D3F818248A1A322A05DCD3F82C24C1
:109480008A1A002A0FDC704793F81C24D3F82014A2
:1094900002F0010219B108688988B2B9018300227B
:1094A000C3F82C247047D3F8202482B11068928826
:1094B00010B444693231224218BF42835DF8044B34
:1094C00008BF0283C3F82C1470474183E7E73231A9
:1094D000C3F82C14704700BFE0200020064AD2F8E1
:1094E00020343BB192F81C149A881B68C90754BFFA
:1094F0001A835A8300207047E02000204FF4007048
:10950000034B1060D3F838340B600020704700BF65
:10951000E0200020002070470120704701207047A4
:109520000020704710B41C6994420CD394460A463C
:1095300061448C42996938BFA4EB0C0261445DF828
:10954000044B75F097BB5DF8044B704730B4184B73
:1095500000209C7B14B11D688D4206D001300B2881
:1095600003F11003F5D130BC7047B2B1114B03EBDE
:1095700040218A4218D0104B93F8E42712B90122F7
:1095800083F8E4270D4B01225A7000F5B17003EB0C
:10959000001301229A7130BC7047084B00F5B1707E
:1095A00003EB00139A71DEE7022CE4D1183BECE7E1
:1095B000505B0020504500203855002038450020E1
:1095C00030B41D4C002384F8D03604F5C36004E0A9
:1095D00001330B2B00F1100015D005688D42F7D137
:1095E00090F80EC0BCF1030FF2D1C2B1134901EBE8
:1095F0004320824209D1A1F1180203F5B17302EBB5
:1096000003120123937130BC704794F8E42712B918
:10961000012284F8E4270A4A01215170EDE7084944
:10962000D4F8CC2603F5B17301EB03130132042106
:109630009971C4F8CC26E6E7385500205045002043
:109640003845002030B585B0684664F02DFE1048DE
:10965000104AD0F8FC10009B0F4D41F08071C0F80B
:10966000FC10002400F1C840C2F8B05FA0F565000E
:1096700054601168094CA0F67D60A0FB030341F023
:1096800001019B0CC4F86834116005B030BD00BF07
:1096900000ED00E0001000E055CEACC5E020002059
:1096A0002DE9F843038AB0F80C801FFA88F818EA0D
:1096B000030829D005460E464FF00047B8FA88F354
:1096C00027FA03F2D24391B21B3B298208EA02082F
:1096D000042B16D8DFE803F0352C231A0300B36AF5
:1096E000002B37D003F1FF3900231FFA89F9B36249
:1096F000746A34B123682046494698476468002C50
:10970000F8D1B8F1000FD9D1BDE8F8837068696B62
:10971000036889B29847B8F1000FCFD1F4E7B06879
:10972000A96B036889B29847B8F1000FC6D1EBE77F
:10973000F068E96B036889B29847B8F1000FBDD1B2
:10974000E2E73069296C036889B29847B8F1000FE5
:10975000B4D1D9E7EB6A1FFA83F9C9E770B50B4CAE
:1097600005460726013E00D170BD94F9000019F0AE
:10977000F9FA031E08DBEA1861789171A178E954BF
:10978000052BDCBFE37813730434EBE71C1A0808DD
:1097900010B5274B93F8812093F882309A4242D13A
:1097A000244A92F8F80AF8B192F8344A02F63823BB
:1097B00000EB4000D2F8382A03EBC000B4B140F20D
:1097C0000D3C00E01A6899689C894C600C6844F074
:1097D00001040C60A2F848C09189183389B241F4A1
:1097E000807183429181EDD110BD1A68118821F0FA
:1097F000800109041833090C118033F8141CD1625C
:10980000118889B241F0800111805462B2F80CC015
:1098100033F8041C41EA0C0189B28342918123F898
:10982000044CE2D110BD73F021F80028B8D110BD6E
:10983000E02000200400001010B5044673F038FF4B
:1098400081B22046BDE81040FEF7F6BE10B50446D2
:1098500073F02EFF81B22046BDE81040FFF7B8BB81
:1098600038B50B4D00EB400005F5A16303EBC003D9
:1098700093ED027AD3ED037AE7EE007AC400254433
:10988000B0EE670A73F014FFD5F80835186038BDDC
:10989000040000100A4608B5054920B9054865F0DE
:1098A00071F8034808BD044865F06CF8004808BD2D
:1098B0004C250020B8C50808E0C5080810B5044CC0
:1098C00004480A46214665F05DF8204610BD00BFF9
:1098D0004C25002008C6080810B5044C04480A4668
:1098E000214665F04FF8204610BD00BF4C250020F2
:1098F0001CC6080810B5044C04480A46214665F009
:1099000041F8204610BD00BF4C25002028C608089D
:10991000F8B5A0F668042379DB0725D5657994F8B6
:109920004C3805F001073D46FBB1D4F848341A68BD
:10993000D36A5B08536294F8503823B1B4F85A38AC
:109940000133A4F85A38606C85F001016EF06CFCAC
:10995000012384F84F38002384F84D3884F84E38BA
:10996000A4F8563884F84C38F8BD94F84F68012EA6
:1099700004BF94F84D3884F84E382046FEF7EAFFCD
:109980004EB9012384F84F3887EA0301606CBDE8C3
:10999000F8406EF049BC002384F84F383946F5E7AB
:1099A00038B5A0F668040022606C344D03685A6232
:1099B000A1F12903302B31D895F86B3595F86C154A
:1099C0000133DBB2012B85F86B3509D9B4F8563871
:1099D00085F86B255B08A4F856384B1C85F86C3568
:1099E00095F86C250023082AA4F8583815D185F875
:1099F0006C35B5F86E3501339BB2032BA5F86E3587
:109A000008D92379DB0705D5E36A94F8560843B3F0
:109A1000216B98470023A4F8563838BD5B396C2970
:109A20000CD8B4F8563885F86B255B0843F08003F2
:109A3000A4F8563895F86C350133CFE794F85138CF
:109A4000002BCDD1012185F86B35A5F86E3580232B
:109A500084F85118A4F8563885F86C156EF0E4FBBC
:109A6000BEE7E3696269D054E369E2680133B3FB9E
:109A7000F2F102FB1133E361CCE700BFE0200020EC
:109A80008069002836D003681A6A127B2ABBD3E9A2
:109A900004125B68496872B110B4546800220A600D
:109AA00022609A885DF8044B22F003021204120C23
:109AB0009A805EF0A5B91A891206FCD41A89D207D9
:109AC00009D400220A609A8822F002021204120CC1
:109AD0009A805EF095B99A89F0E78268002AD6D01C
:109AE000116892880A83D3E904125B684968002AE6
:109AF000D2D1E0E7704700BF806900B970470168C4
:109B000030B4D1E904424B6864687AB155680022E8
:109B100022602A609A8822F003021204120C9A80B2
:109B20000B6A1B7BA3B930BC5EF06AB91A891506B3
:109B3000FCD41A89D20714D4002222609A8822F019
:109B400002021204120C9A800B6A1B7B002BEAD0D3
:109B50008368002BE7D01A689B88138330BC5EF0C3
:109B60004FB99A89E5E700BF38B590F82830012B46
:109B7000044606D0407F08B9012038BD0023637732
:109B800038BD406A03681A7B92B9637F002BF3D01B
:109B90000A4D0B49022305F5AE625AF097F895F885
:109BA0007135D84303F0010300F001006377E7E764
:109BB0001B6A002BE9D0002038BD00BFE020002048
:109BC0005002002038B5044694F82830012B07D005
:109BD000637F0BB100236377012038BD1B6A23B17B
:109BE000606A03681A7B002AF8D1637F002BF3D0E8
:109BF000074D0849022305F5AE625AF067F895F85B
:109C0000713503F00102DB076277E5D5DCE700BFC1
:109C1000E02000205002002010B590F82830012BE1
:109C2000044603D000230120637710BD406A036817
:109C30001A7B42B972F090FB00F00103C24302F0BC
:109C400001006377F1E71B6A002BF3D0002010BD01
:109C500038B5114D044694F82830012B05D0002367
:109C6000637700232362012038BD606A03681A7B92
:109C700072B972F071FB00F001036377C307F0D58E
:109C8000D5F81434226A9B1A002BE4DB002038BD7F
:109C90001B6A002BEDD0F3E7E020002010B5FF2277
:109CA000044690F82810406A73F09CFB0E4BD3F8E2
:109CB0001434023323622046FFF7CAFF94F8283099
:109CC000012B00D010BD606A0022A02173F040FB80
:109CD00094F82830012BF5D1606A1822BDE81040B5
:109CE000B02173F035BB00BFE020002038B504463A
:109CF0000D46FFF7ADFF062294F82810606A73F056
:109D000071FB94F8283001229342627705D0074B0B
:109D1000D3F814340F33236238BDE288606AB5FB90
:109D2000F2F2D82173F03AFBF1E700BFE020002007
:109D30002DE9F843838853B3DFF8588004460025A3
:109D4000012707E0D8F81434A28801350F33AA425E
:109D500023621CD92046268AB4F80690FFF778FFC4
:109D600094F82810606A062273F03CFB94F82830BF
:109D70006777012BE6D109FB06F6E288606A05FBEE
:109D800006F6D821B6FBF2F273F008FBDAE7BDE87D
:109D9000F88300BFE020002070B5114D95F87235B2
:109DA00003B970BDC388D5F87465B6FBF3F60446F5
:109DB0000C4BC3F8CC60FFF74BFF94F82830012B15
:109DC00007D0D5F8143400220233236285F87225B7
:109DD00070BD606A3246102173F0E0FAF1E700BF0F
:109DE000E0200020880100202DE9F04F5A4EB0F805
:109DF00006C0DFF870A1B1FBFCF9984696F8723501
:109E000099B004460D461746002B3FD1DAF8CC3006
:109E1000994519D02046FFF71BFF98B394F82830D6
:109E20004FF0FF32012BCAF8CC207BD0D6F8143487
:109E3000023323622046FFF70BFF18B3B4F806C0C5
:109E4000CAF8CC90B5FBFCF90CFB1951ACEB010C3A
:109E500094F82830C44534BF1FFA8CF51FFA88F5F2
:109E6000012B27D0D6F81434023320462362FFF7A3
:109E7000EFFE38B194F82830012B5FD0284619B096
:109E8000BDE8F08F002019B0BDE8F08FD6F874253A
:109E9000B2FBFCFBCAF8CCB0FFF7DAFE94F828302E
:109EA000012B45D0D6F8143402332362002386F800
:109EB0007235AFE78DF81C308DF844308DF858308E
:109EC000264B0F971B68ADF808301B0C8DF80A3035
:109ED00003238DF80C300693214B089303AB676A7C
:109EE000099304238DF80E100B93090A02AB00228C
:109EF0008DF80D103846049304A901ABCDE90D226D
:109F0000CDE91222CDE914228DF80F200A928DF8A6
:109F1000302010951792059359F01EFF386872F0A3
:109F200017FA9FE7606A4A46132173F037FA7DE714
:109F3000606A5A46102173F031FAB3E7606A72F032
:109F40000BFAC0F30113023B012B97D82046FFF711
:109F5000A5FE284693E700BFE020002038C6080889
:109F60007D930008880100202DE9F84FD0F8249057
:109F70003C4F0446D9F800008A46904672F0E8F952
:109F800097F87235002B3FD0D7F87855E288364ED7
:109F9000B5FBF2F302FB135386F872311B0A86F805
:109FA000713106F1D00BDAF80030C6F87831D8F804
:109FB0000030C6F88031594600232C4AC6F8883153
:109FC00048465DF0EDFD012387F87235D8F8003082
:109FD000E1881D44B5FBF1FA01FB1A5AC7F8785520
:109FE000BAF1000F21D0224AC6F88821627F0AB94F
:109FF0000BF1140B23635946484659F0ADFEE36A52
:10A000004BB3206BBDE8F88FA569E288164EB5FB0F
:10A01000F2F302FB135386F876311B0AC7F8745526
:10A0200086F8753106F5907BBDE7124AD7F874358E
:10A03000B3FBF1F34846C6F8CC30A2F12C015BBA71
:10A04000A6F8A2315DF0ACFDD8F8003087F872A513
:10A05000C7F87455CAE7636A186872F079F9206B1B
:10A06000BDE8F88FE02000208801002000030020D8
:10A07000A59300082C03002033B910B51C46C36A11
:10A0800020469847204610BD6EE700BF00B583B05C
:10A0900081610192049AC26201A96A460093FFF7A6
:10A0A00063FF03B05DF804FB2DE9F843DDF8208081
:10A0B0000F4615460021202204461E4675F0CCFAB4
:10A0C000B8F1000F0CD0D8F80030E3811B0C2382CC
:10A0D000D8F80430B8F80A20E3821B0C628223838C
:10A0E000384675F04DFAEB0619D4431EB8B107EBAC
:10A0F000000C01E0013B12D31CF801EDBEF12E0F64
:10A10000F8D1C01A421E032AA8BF0322082B03F16C
:10A110000109A8BF08239046B9441A4606E008285A
:10A120000246B946A8BF08224FF000084FF020337E
:10A13000394623606360204674F09CFD04F10800FA
:10A14000154B238142464946837074F093FD611E8E
:10A15000E21D11F801CFACF16103192B9CBFACF1EA
:10A16000200C81F800C09142F3D104F10A0011F8EB
:10A17000013FA3F16102192A9CBF203B0B70814271
:10A18000F5D118232373330CA382E572099B6683F0
:10A19000E361BDE8F88300BF202020002DE9F04FE7
:10A1A000DFF84CB4DBF81404CBF8180485B0002BAE
:10A1B00060D013440C46174601F5FE7A99461FE01D
:10A1C000002F64D0DBF84434BB4200F0C680DBF8DB
:10A1D0004034BB4200F0F880DBF84834DBF84C1424
:10A1E000BB424BD8B94200F27081791A20466DF01B
:10A1F00067FD01374F4504F500740AF5007A39D040
:10A20000DBF85034BB42DBD8DBF86054FB1A296B17
:10A21000DA0802328A4203F0070602D3AB6B9A4295
:10A220000BD92946104602926DF01AFD029A054696
:10A23000002800F06A81CBF860042B79002B40F0F5
:10A240001E81D5F82880B8F1000F00F057812B6BE4
:10A25000D21AEB6806EBC20203EB422220462B46E1
:10A260004FF400710137C0474F4504F500740AF5FB
:10A27000007AC5D1002005B0BDE8F08FB942B4D94D
:10A280004FF400720021204675F0E6F9B1E74FF473
:10A2900000723946204675F0DFF9802384F8BE311C
:10A2A0000C2384F8C231DBF84014C54ADBF838349B
:10A2B000C4F8C6119142C4F8CA3100F30B81C14AF7
:10A2C000C14D82FB010285FB01050A44C817C0EBA2
:10A2D0006212C0EB2530BD4D84F8C10185FB0265DB
:10A2E000C2EB82168010891B013120F03F0015441B
:10A2F0000843D117C1EBE5110A4484F8BF21B04AE5
:10A3000084F8C001013B934200F3F080AD4AAE48AF
:10A3100082FB031280FB03101A44D917C1EB6212AF
:10A32000C1EB2031A94884F8C51180FB0250C2EB73
:10A33000821589105B1B013321F03F011044194342
:10A34000D317C3EBE0131A4484F8C41184F8C32173
:10A350004AF65523A4F8FE314BE74FF0FF3384F85B
:10A36000EC3184F8ED3184F8EE3184F8EF3152238A
:10A37000237063706123A37084F8E7314123E37095
:10A3800084F8E6317223002584F8E43184F8E5315D
:10A39000DBF85834C4F8E8314FF4F0722946201D38
:10A3A00075F05AF9552384F8FE316FF05503C4F85F
:10A3B000F051C4F8F451C4F8F85184F8FC5184F811
:10A3C000FD5184F8FF3114E74FF40072002120465C
:10A3D00075F042F97E4B03CB45F6EB0323809023C7
:10A3E000C4F80710A37002220821F823C4F8030060
:10A3F000617322746375DBF838342273A27384F8B6
:10A400002C20DBF840249B1A2362DBF84824DBF87D
:10A410004C349B1A63620023E372E3736377A37780
:10A42000E37784F82D3084F82E3084F82F3084F8C8
:10A430003130684BA361684BC4F842303E23237728
:10A44000012384F83030654A802384F8403084F852
:10A4500046104AF65521A4F8FE1103CA604BC4F811
:10A460004700C4F84B1003CB1388A4F84F309378FF
:10A47000C4F85200C4F8561084F85130B9E64FF4CD
:10A4800000720021204675F0E7F8002E44D12B6CB5
:10A4900004F12008002B7BD02B6B52491122CDE90F
:10A4A00000662046FFF700FE2B6C1A6C002A7ED057
:10A4B0001B6B4D49CDE9006640461122FFF7F4FDC4
:10A4C00004F140084FF4E0736DE0F91A20466DF096
:10A4D000F7FB8EE6FF2284F8C1214FF6FF72A4F845
:10A4E000BF21374A013B93427FF710AFFF2384F827
:10A4F000C5314FF6FF73A4F8C33129E741464FF445
:10A500000072204675F0A8F873E6384A231F43F816
:10A51000042F9A45FBD16CE6D5E910253301002ABA
:10A5200043D0023B002D3FF464AE013BAD6CF9D14A
:10A53000A0464FF40073002D3FF45BAECDE9027AE4
:10A5400008EB0306A24608E00024CDE900C4FFF7AB
:10A55000ABFDAD6CBDB1B04515D02C7929682B6B26
:10A56000404605F11C0C112208F12008002CEBD10B
:10A570006A792C6942F02102CDE900C4FFF794FD0D
:10A58000AD6C002DE7D15446029FDDF80CA030E6FB
:10A59000CDE900663346DBF83C1408222046FFF77D
:10A5A00083FD4FF4F0736D6CC5E7013BBAE7CDE96D
:10A5B00000660D49334640461122FFF775FD7FE7DF
:10A5C000FF03FB00832008829755454181808080EE
:10A5D00044C608083F00FF0029940E0D50C6080825
:10A5E0005CC608083CC6080840C60808DEADBEEFD9
:10A5F000E020002010B4EFF31182102383F31288BF
:10A600000A4BD3F814144FF0E0200131C3F81414AE
:10A610008169C3F87C150024C3F880450369D3B26F
:10A6200083F311885DF8044B704700BFE0200020E1
:10A6300010B4EFF31181102383F312884FF0E0225E
:10A64000C9B29469136913F4803F0D4B1EBF0120FA
:10A65000C3F880059469D3F81404D3F8802581F3F6
:10A660001188D3F8681402444FF47A7000FB01F3A8
:10A670001B1B5DF8044BB3FBF1F300FB023070478A
:10A68000E0200020264B5B68C3F3080310B4FBB93D
:10A69000EFF31183E3B9234B4FF0E02CD3F81424EC
:10A6A000DCF81800D3F814148A42F7D1D3F87C15DB
:10A6B0008842F3D8D3F868444FF47A7101FB04F36D
:10A6C000181AB0FBF4F05DF8044B01FB0200704770
:10A6D000EFF31181102383F312884FF0E022C9B207
:10A6E0009469136913F4803F0E4B1EBF0120C3F819
:10A6F00080059469D3F81404D3F8802581F3118878
:10A70000D3F868144FF47A73024403FB01F0001B82
:10A710005DF8044BB0FBF1F003FB0200704700BF93
:10A7200000ED00E0E02000202DE9F04F037D0268FD
:10A730001F2B83B0044609D95068A3F120052021BE
:10A74000A940014207D103B0BDE8F08F1068202175
:10A7500099400142F7D04749474D4968A769C5F874
:10A76000FC1A8C2101FB075195F834CAD1F8D805A1
:10A770000668BCF1000F18D1D1F85006B1F8DCC55D
:10A78000016821F001010160B18989B221EA0C015F
:10A79000B1812978B9B91F2B60D9A3F120012023F9
:10A7A0008B40D36003B0BDE8F08F0069016821F0F1
:10A7B00001010160B18921F480710904090CB181A2
:10A7C00029780029E7D04FF08C0808FB07F805EB43
:10A7D00008030193D3F850A6DFF8A0B0504663F009
:10A7E000AFFD019B012283F82426D5F8043B08F134
:10A7F0001809D944002B38D033889BB243F080032A
:10A80000338008F174084FF0FF330BEB0801F3625B
:10A81000304664F009F88C2303FB075749460023B0
:10A820005046C7F8F43563F021FED7F850361622AB
:10A830005A601A6842F001021A60D7F8D825B7F8B2
:10A84000DC35126891890B439BB293810949237DC2
:10A8500049682268C5F8001B1F2B9ED8202101FAE9
:10A8600003F3936003B0BDE8F08FFFF70BFFC5F86B
:10A87000040BC1E7001000E004000010D405001034
:10A88000AD4B1B780BB9012070472DE9F04FDFF875
:10A89000BCB2AA49DBF81424A94BA1FB021252094D
:10A8A000A3FB0213DB08A44987B003EB8303A2EBED
:10A8B000430391F8C825049201F60834DAB20592F0
:10A8C00004EB8307002201F6E853019301F5816A46
:10A8D0009046049B984500F00D81DAF81820DAF8CC
:10A8E0000490D2F8E830D2F8EC600293FFF7CAFE89
:10A8F000029B03904FEA890C9BF885959BF8840591
:10A900000CF1085C06F180610CEB431C3939B9F19C
:10A91000540F0CEB81110CEB801301D1ABF88E05B9
:10A92000994240F27D811A68002A00F071811A6C08
:10A93000002A00F08381D3F88020002A00F0808173
:10A94000D3F8C02003F58073002AE9D1A3EB0C0CE7
:10A9500099424FEAAC1240F26381B11A45294FF097
:10A96000000628BF45213046B64603EB81111D463F
:10A9700016460DE01A6C002A40F0EA80D3F88020D9
:10A98000002A40F01581D3F8C02003F580732AB95E
:10A99000994206D91A68002AECD04033994200F255
:10A9A000DB8032467646112E40F23E81DEF1150103
:10A9B00000F13A81634B1D46D3F8F4319A4238BF17
:10A9C0002B46039D38BFC3F8F421DBF89835EA1A0B
:10A9D000002A18DB03F5F42303F590739D4284BF2E
:10A9E0002B460533CBF89835564B564AD3F8F431FD
:10A9F000052B86BF053BDBB200238BF884354FF077
:10AA0000FF33C2F8F43131B100FA01F1C6F1140696
:10AA10000120B04008434C4EC0F3C43306EB83031F
:10AA2000D3F8B01400F01F0306EB8303D3F8B0246F
:10AA300042EA0132C0F3441106EB8101C0F38423E2
:10AA400006EB8303D1F8B014D3F8B03442EA011115
:10AA500041EA032181EA112383EA131303F00F0271
:10AA6000354BD3F8F03D0F2A03F1010340F0BD80D0
:10AA7000B1F5803F80F0B980B9F1540F4FEA111160
:10AA800040D02D4AB1F5606FC2F8F03D45D0019B32
:10AA9000998194F85830059883420CD0BA6823689D
:10AAA0009B1A23603A6B63689B1A63600023BB6048
:10AAB0003B6384F85800236801332360BB6801338B
:10AAC000BB604FF6FF73994205D163680133636041
:10AAD0003B6B01333B63019B08F101081433B8F170
:10AAE000080F04F15C0407F15C0701930AF1200AE6
:10AAF0007FF4EFAE104A0123012082F8EC3E07B04C
:10AB0000BDE8F08FBBF888250132ABF888250A4AEA
:10AB1000B1F5606FC2F8F03DB9D19BF8823003EB1C
:10AB200043030BEBC303434493F891300D2BAED199
:10AB3000019A80239377ACE7040000101F85EB5146
:10AB4000CDCCCCCC8801002084150808E020002062
:10AB5000803399427FF625AFA3EB050C3C4A4FEAC0
:10AB6000AC1C0CF1010C82FB0C52A2EBEC72012A22
:10AB7000B8BF012290404FF0010C9644013A0CFA04
:10AB800002F210439C46DCF800209AB1DCF8402029
:10AB9000002A57D0DCF88020002A56D0DCF8C020EC
:10ABA0000CF5807C42B16145EDD81D466346EFE669
:10ABB000C033F3E60CF1400C6145F6D9ACEB03026F
:10ABC0009211234B013283FB0253A3EBE273012B5F
:10ABD000B8BF012398409E440122013B02FA03F3CF
:10ABE000184363461D466346D2E6B9F1540F04D1BB
:10ABF000BBF888250132ABF88825164AC2F8F03D2B
:10AC0000D2F8EC3D0133C2F8EC3D4FF6FF7140E75E
:10AC10004033A3EB0C0C99424FEAAC123FF69DAEC9
:10AC200010B101388BF88405B9F1540F7FF453AF9C
:10AC3000BBF88A350133ABF88A354CE7803385E6BB
:10AC4000C03383E60CF1800CB6E70CF1C00CB3E71F
:10AC50005655555504000010F8B51D4B93F881204A
:10AC600093F882309A422ED11A4F7D68002D11DD63
:10AC70003846002410F8086B16B1037E012B1CD057
:10AC800002691368013443F00103A54200F58070A6
:10AC90001360F1D1FFF7F6FCD7F8F04E002C0BDD76
:10ACA0000D4A02EBC4041168938888890832034373
:10ACB0009BB294428B81F6D1F8BD002380F8F0302E
:10ACC000FDF74CFDDCE771F0D1FD0028CCD1F8BDDB
:10ACD000E020002004000010F80E001010B40E4B0D
:10ACE0004FF0E02CD3F81424DCF81800D3F8141437
:10ACF0008A42F7D1D3F87C158842F3D8D3F8684458
:10AD00004FF47A7101FB04F31B1AB3FBF4F35DF803
:10AD1000044B01FB02307047E02000202DE9F8438E
:10AD2000FFF7B0FC204F214E7C6805464FF000082D
:10AD3000002C2DDD00231A4607EB0321013391F887
:10AD4000F9109C4242EA0102F6D142EA08095FFA90
:10AD500089F990467368C3F30803B3B9EFF311831D
:10AD60009BB9FFF7BBFF401BB0F5FA6F02DCB8F1EF
:10AD7000000FDDD1B9F1000F04D00D4B93F88525FC
:10AD8000542A09D04846BDE8F883FFF751FCEAE7AA
:10AD9000C1464FF00008DDE7B3F88C250132A3F877
:10ADA0008C254846BDE8F8830400001000ED00E063
:10ADB000E0200020494B5B68C3F308032DE9F04312
:10ADC0000546002B65D1EFF31183002B61D1444B75
:10ADD0004FF0E024D3F81424A069D3F814148A4265
:10ADE000F8D1D3F87C158842F4D8D3F868644FF4CE
:10ADF0007A7101FB06F4241AB4FBF6F401FB024459
:10AE0000364E10274FF0E02C4FF47A7E4FF00108B9
:10AE10007268C2F30802E2B9EFF31182CAB9D3F83B
:10AE20001424DCF81800D3F814148A42F7D1D3F8AC
:10AE30007C158842F3D8D3F868940EFB09F1091AFF
:10AE4000B1FBF9F10EFB0212121BAA42E0D3BDE8DE
:10AE5000F083EFF3118287F31288DCF81800DCF836
:10AE60001010C90344BFC3F88085DCF81800D3F87C
:10AE70001494D3F88015D2B282F311884944D3F8E0
:10AE800068940EFB09F2121AB2FBF9F20EFB0122D2
:10AE9000DAE7EFF31181102383F312884FF0E022F9
:10AEA000C9B29669136913F4803F0D4B1EBF012090
:10AEB000C3F880059669D3F81404D3F8802581F38C
:10AEC00011880244D3F868044FF47A7101FB00F44E
:10AED000A41BB4FBF0F401FB024491E700ED00E099
:10AEE000E02000202DE9F0473E4B3F4D471E102645
:10AEF0004FF0E0204FF47A7C4FF001086A68C2F30B
:10AF00000802002A59D1EFF31182002A55D1D3F853
:10AF100014248469D3F814148A42F8D1D3F87C1528
:10AF20008C42F4D8D3F868140CFB01FEAEEB040E8F
:10AF3000BEFBF1FE0CFB02EE6A68C2F30802FAB92E
:10AF4000EFF31182E2B9D3F814248469D3F814140E
:10AF50008A42F8D1D3F87C158C42F4D8D3F868949F
:10AF60000CFB09F1091BB1FBF9F10CFB0212A2EB7E
:10AF70000E02B2F57A7FDFD3013FBFD2BDE8F08782
:10AF8000EFF3118286F3128884690169C90344BF13
:10AF9000C3F880858469D3F814A4D3F88015D2B29D
:10AFA00082F31188D3F8689451440CFB09F2121B08
:10AFB000B2FBF9F20CFB0122D9E7EFF3118186F322
:10AFC000128884690269D20344BFC3F8808584690A
:10AFD000D3F814E4D3F88025C9B281F31188724400
:10AFE000A0E700BFE020002000ED00E02DE9F84FD1
:10AFF0000130884C884D01F1FF385FFA80FB102644
:10B0000001276EF0D7FD4FF4FA794FF0E0214FF4AD
:10B010007A7C6B68C3F30803002B40F0D280EFF317
:10B020001183002B40F0CD80D4F814348869D4F813
:10B0300014249342F8D1D4F87C259042F4D8D4F863
:10B0400068240CFB02FEAEEB000EBEFBF2FE0CFB16
:10B0500003EE6B68C3F30803002B40F09280EFF31C
:10B060001183002B40F08D80D4F814348869D4F813
:10B0700014249342F8D1D4F87C259042F4D8D4F823
:10B0800068A40CFB0AF2121AB2FBFAF20CFB0323BF
:10B09000A3EB0E03B3F57A7FDBD3B9F10109B8D185
:10B0A00058464FF47A796FF039FA4FF0E021CC46E8
:10B0B0006B68C3F30803002B40F09780EFF3118314
:10B0C000002B40F09280D4F814348869D4F814240A
:10B0D0009342F8D1D4F87C259042F4D8D4F868246F
:10B0E0000CFB02FEAEEB000EBEFBF2FE0CFB03EE11
:10B0F0006B68C3F3080323BBEFF311830BBBD4F8D6
:10B1000014348869D4F814249342F8D1D4F87C25F7
:10B110009042F4D8D4F868A40CFB0AF2121AB2FBDD
:10B12000FAF20CFB0323A3EB0E03B3F57A7FDFD314
:10B13000B9F10109BCD1B8F10108BFF462AFBDE8B3
:10B14000F88FEFF3118386F31288D1F818A00A69FB
:10B15000D20344BFC4F88075D1F818A0D4F8140401
:10B16000D4F88025DBB283F311880244D4F8680454
:10B170000CFB00F3A3EB0A03B3FBF0F30CFB02336D
:10B18000D1E7EFF3118386F31288D1F818A00A698A
:10B19000D20344BFC4F88075D1F818A0D4F81404C1
:10B1A000D4F88025DBB283F311880244D4F8680414
:10B1B0000CFB00F3A3EB0A03B3FBF0F30CFB02332D
:10B1C00066E7EFF3118286F3128888690B69DB0367
:10B1D00044BFC4F880758869D4F81434D4F880E585
:10B1E000D2B282F31188734429E7EFF3118286F318
:10B1F000128888690B69DB0344BFC4F880758869CD
:10B20000D4F81434D4F880E5D2B282F311887344B0
:10B2100064E700BFE020002000ED00E02DE9884851
:10B220009A4C9B4E431C5FFA83FB0A254FF0100893
:10B2300001276EF0BFFC4FF4FA7C4FF0E0204FF492
:10B240007A717368C3F30803002B40F0D780EFF3E3
:10B250001183002B40F0D280D4F814E48369D4F831
:10B2600014249645F8D1D4F87C259342F4D8D4F828
:10B27000689401FB09F2D21AB2FBF9F201FB0E222B
:10B280007368C3F30803002B40F0DD80EFF31183F4
:10B29000002B40F0D880D4F814E4D0F81890D4F8FB
:10B2A00014349E45F7D1D4F87C359945F3D8D4F8B9
:10B2B00068A401FB0AF3A3EB0903B3FBFAF301FB58
:10B2C0000E339B1AB3F57A7FDAD3BCF1010CB8D1F7
:10B2D00058466FF023F94FF47A7C4FF0E020614636
:10B2E0007368C3F30803002B42D1EFF31183002BE3
:10B2F0003ED1D4F814E48369D4F814249645F8D1E7
:10B30000D4F87C259342F4D8D4F8689401FB09F270
:10B31000D21AB2FBF9F201FB0E227368C3F30803E1
:10B32000002B49D1EFF31183002B45D1D4F814E45D
:10B33000D0F81890D4F814349E45F7D1D4F87C3561
:10B340009945F3D8D4F868A401FB0AF3A3EB0903E9
:10B35000B3FBFAF301FB0E339B1AB3F57A7FDCD310
:10B36000BCF1010CBCD1013D7FF463AF6EF01AFC5F
:10B37000EFF3118288F31288D0F818E00369DB0339
:10B3800044BFC4F88075D0F818E0D4F81434D4F869
:10B390008095D2B282F311884B44D4F8689401FBB3
:10B3A00009F2A2EB0E02B2FBF9F201FB0322736871
:10B3B000C3F30803002BB5D0EFF3118388F3128891
:10B3C000D0F818A0D0F810E01EF4803F1CBFC4F8DD
:10B3D0008075D0F818A0D4F81494D4F880E5DBB2C6
:10B3E00083F31188CE44D4F8689401FB09F3A3EBEE
:10B3F0000A03B3FBF9F301FB0E33ADE7EFF3118260
:10B4000088F31288D0F818E00369DB0344BFC4F85E
:10B410008075D0F818E0D4F81434D4F88095D2B2FE
:10B4200082F311884B44D4F8689401FB09F2A2EB33
:10B430000E02B2FBF9F201FB03227368C3F30803A7
:10B44000002B3FF423AFEFF3118388F31288D0F879
:10B4500018A0D0F810E01EF4803F1CBFC4F880751F
:10B46000D0F818A0D4F81494D4F880E5DBB283F3B4
:10B470001188CE44D4F8689401FB09F3A3EB0A03C6
:10B48000B3FBF9F301FB0E331BE700BFE020002004
:10B4900000ED00E02DE9F0411D4CDFF87C801D4FF0
:10B4A00082B004F54075012602E00834A54224D09C
:10B4B00094F90630002BF8D1206800F13F4303F5E2
:10B4C0007E0308EB932393F830355A09032A03F0DF
:10B4D0001F0306FA03F317D0042A11D0022A02D15F
:10B4E0007A6C13437B640023A1881A46CDE90036A9
:10B4F000083470F0E5FBA542DAD102B0BDE8F08176
:10B500003A6B13433B63EEE73A6C13433B64EAE761
:10B510007C260020003802408415080830B50C460F
:10B5200083B00546D8B1036803F13F4303F57E03BA
:10B530009B0A0C4A134493F830056DF09DF9C4F34F
:10B540004112C4F30013CDE90032C4F38103A9888A
:10B55000286804F0030270F0B3FB03B030BD4FF075
:10B56000FF33E6E78415080800B1D7E7704700BF4E
:10B5700070B50E4C94F8C865B6B104F58164002529
:10B5800004E00135B54204F120040DD0237F002BE7
:10B59000F7D0E0680028F4D0217D0135FFF7BEFF29
:10B5A000B54204F12004F1D1012070BD0400001067
:10B5B00048B182880449B2FA82F208684FF0004329
:10B5C000D34003430B607047003C014038B5040989
:10B5D000013C052C1AD80F4D05EB440200F00F0377
:10B5E000B2F8380540FA03F212F0010210D001223D
:10B5F00002FA03F3013B1840254474F09FFE95F8CE
:10B600004435054A034402EBC30038BD002038BD71
:10B61000104638BD841508087C260020F8B5037D47
:10B62000856902681F2B04464BD95068203B2021B6
:10B630009940084237D0D16010219940D1605168BB
:10B64000D940CE077FD4EFF31183502282F31288C2
:10B650002A6C1168C90757D4516889B291B9D5E9E4
:10B66000096086424DD0AF699CBF0E4629690744E8
:10B6700094BF081A301A80B20021D760AE6285F8F4
:10B6800064105060116841F00101DBB2116083F376
:10B69000118895F86430002B3DD1237D22681F2B43
:10B6A000194614D9203B506808219940084200D01F
:10B6B000D1605068042101FA03F3184200D0D3602E
:10B6C000F8BD16682020984006420DD11946106832
:10B6D00008238B40184200D09360106804238B40ED
:10B6E0001842EDD09360F8BD1021994090609160B0
:10B6F0001168D940C807A6D5012101FA03F3936068
:10B70000A1E7012285F86420DBB283F3118895F864
:10B710006430002BC1D095F87230002BBDD195F864
:10B720007100FFF753FF2A6E938923F008031B046F
:10B7300001211B0C938185F872100028ADD02021C7
:10B74000FFF7ECFEA9E7012101FA03F3D3607AE7E2
:10B7500090F8DB30052B03D890F81E31032B01D075
:10B760000020704790F82331022BF9D0042B14BF2E
:10B7700007200020704708B517F0F4FA052807D80D
:10B78000044BD3F89C380344187BBDE808401DE700
:10B79000002008BDE020002043680B4A23F04073DE
:10B7A00023F4807343F48073436083681A4042F04B
:10B7B00002028260C36A0139C9B223F4700343EA0A
:10B7C0000153C362704700BFFDF7FFC0704700BF61
:10B7D0000020FCF727BC00BF0120FCF723BC00BF02
:10B7E0000220FCF71FBC00BF10B1036882881A83D7
:10B7F000704700BF30B1036882881B691A4214BFCA
:10B8000001200020704700BF10B1036882885A836E
:10B81000704700BFF0B5056890F888606B68848851
:10B82000012285F824201A8822F040021204120C0A
:10B830001A802A89A24255D1017BAA7A8A420BD06A
:10B840001A8822F003021204120C1A801A8892B28B
:10B85000002944D01A80A9721A882F7B92B242F034
:10B8600040021A802B6A9A6892B34FF0000C2F4C5A
:10B870001433E64653F8101C964401EA040221B141
:10B88000B2F1805F27D06A692AB353F8142C1433BD
:10B8900002EA040112B1B1F1805F1CD053F80C2C04
:10B8A0000CF1010C002AE5D1AFB1A6B1BCF1010F3A
:10B8B0000AD8BEF1070F07D80CEB8C0C4FEA8C02AC
:10B8C0002B6A13441B7B33B9BDE8F0405CF072B9BE
:10B8D0000FB1002EF4D1BDE8F0405CF0F9BB42F0AE
:10B8E0000302B7E71A88124922F0380212048B4289
:10B8F0004FEA124217D001F580618B4213D02146E6
:10B90000B1F5807FA8BF4FF480710229B8BF022132
:10B9100091FAA1F1B1FA81F1013942EAC10292B280
:10B920001A802C8188E76108EAE700BF0000FFFF6A
:10B930000038004038B52C4AD0F8E0305268D0F8D2
:10B94000D810044673B1501A83420BDC94F8D030FF
:10B95000C4F8D820012B10D0D4F8D4300133C4F867
:10B96000D43038BDD4F8E430C4F8D8200B44C4F83F
:10B97000DC3094F8D030012BEED16168201D04F149
:10B98000E805EFF3118C102383F3128863681B6AB8
:10B990000BB3D4F8F0302A461BB1D3691432002B14
:10B9A000FBD10B6A6BB1996839B9934209D0196818
:10B9B00029B15B6899680029F7D01433F3E7C3E92C
:10B9C00000055FFA8CFC8CF31188D4F8D430013375
:10B9D000C4F8D43038BD0D625FFA8CFC8CF311884A
:10B9E000FFF718FFB8E700BF001000E02DE9F041B5
:10B9F000826992F8DC30012B8AB005464CD0023BBC
:10BA0000012B54D892F84C31D2F89C202E4C63F084
:10BA10007F0313708769D7F8A030D7F8108003F13F
:10BA2000010E0FCCEC46ACE80F00D7F89C30CDE906
:10BA3000003E0FCCACE80F0094E8030007F11006BD
:10BA40008CE80300EFF31180102383F312883B6925
:10BA50001B6A002B2FD0029B6A461BB1D36914329C
:10BA6000002BFBD1D8F8203073B1996839B99A42CC
:10BA70000AD0196829B15B6899680029F7D0143396
:10BA8000F3E71E60C3F804D0C0B280F31188AA693E
:10BA900011690B6A002BFCD1D2F8A0305A8852BA37
:10BAA000EA819A8852BA2A82DB885BBA6B820120CB
:10BAB0000AB0BDE8F081C8F820D0C0B280F3118888
:10BAC0003046FFF7A7FEE2E7D01A08082DE9F0415B
:10BAD00090F8DC30D0F8A050012B8AB0044673D027
:10BAE00041D9023B012B6BD890F84D31D0F89C2006
:10BAF0005E4E63F07F031370D0F8A030D0F8108052
:10BB000003F1010E00F110070FCEEC46ACE80F0078
:10BB1000D4F89C30CDE9003E0FCEACE80F0096E89B
:10BB200003008CE80300EFF31180102383F31288E5
:10BB300023691B6A002B00F08F80029B6A461BB1B1
:10BB4000D3691432002BFBD1D8F820302BB399687D
:10BB500039B9934221D01968E1B15B68996800292D
:10BB6000F7D01433F3E7D0F89C304FF0FF321A606F
:10BB70005A609A60DA60D0F8E0300522B3F57A7F37
:10BB8000C0F8F0203BD8032380F8DC3001200AB055
:10BB9000BDE8F0811F60C3F804D0C0B280F3118803
:10BBA0002269136A002BFCD16B885BBAA4F8D030F1
:10BBB000AB885BBAA4F8D230EB885BBAA4F8D43077
:10BBC00001200AB0BDE8F08190F84C2190F84D3189
:10BBD0009B1A5B100133DBB205EB430235F81330DF
:10BBE0005BBAA0F8D03053885BBAA0F8D230938803
:10BBF0005BBAA0F8D43001200AB0BDE8F081036937
:10BC00001A7B2AB35B691BB390F8983003B390F8A2
:10BC10004C31D0F89C20C4F8A40063F07F0313706B
:10BC200090F84C1190F84D31D0F8A0201048C4F88D
:10BC300004015B1A07330121C4F8FC30D4F89C30AE
:10BC400084F800110A44C4E93D3284F8DC10B7E7F7
:10BC5000022384F8DC30B3E7C8F820D0C0B280F308
:10BC600011883846FFF7D6FD9AE700BFD01A0808BA
:10BC70000180000808B51D20FFF7A8FC10B190F95D
:10BC8000063053B11E20FFF7A1FC10B190F9063029
:10BC900003B108BD5523C38008BD5523C380F1E718
:10BCA000D3B2012B1DD8104B02EB420210B54FEA64
:10BCB000820E0EF1080403F5137C02E01C33634589
:10BCC0000DD01A788242F9D15A788A42F6D11A599F
:10BCD000002AF3D00EF1040E03EB0E0010BD00207D
:10BCE00010BD0020704700BFF81A080810B40C4CB3
:10BCF000002304F50A6C01E0152B0CD003EB430282
:10BD000001331CF802108142F6D1144494F9A208C0
:10BD10005DF8044B70474FF0FF305DF8044B7047FF
:10BD2000E0200020D3B2022B22D870B502EB4202F1
:10BD3000104C4FEA820E23460EF10C05002204E05F
:10BD40000132172A03F12C0310D01E68B042F7D13C
:10BD500093F804C08C45F3D15E59002EF0D02C210D
:10BD60000EF1080301FB0233E01870BD002070BD26
:10BD70000020704784150808002839D030B51D4DC3
:10BD800090F804C0002305F50A6401E0152B2DD0BE
:10BD900003EB43020133A15C6145F7D1154404680C
:10BDA00095F9A23890F805E0DAB2022A1ED803EB22
:10BDB000430311484FEA830C0CF10C0503460022A3
:10BDC00004E00132172A03F12C030FD019688C42CA
:10BDD000F7D119797145F4D159590029F1D02C21A5
:10BDE0000CF1080301FB0233184430BD002030BDC4
:10BDF000704700BFE0200020841508080348D0F8F1
:10BE0000083213B100F5FC70184770478801002014
:10BE10000348D0F82C3213B100F50770184770476B
:10BE2000880100200348D0F8503213B100F510709B
:10BE300018477047880100200348D0F8743213B1C6
:10BE400000F5197018477047880100200348D0F8A2
:10BE5000983213B100F5227018477047880100200E
:10BE60000348D0F8BC3213B100F52B701847704767
:10BE7000880100200348D0F8E03213B100F5347097
:10BE800018477047880100200348D0F8043313B1E5
:10BE900000F53D7018477047880100200348D0F82E
:10BEA000283313B100F54670184770478801002009
:10BEB0000348D0F84C3313B100F54F701847704762
:10BEC000880100200348D0F8703313B100F5587092
:10BED00018477047880100200348D0F8943313B105
:10BEE00000F5617018477047880100200348D0F8BA
:10BEF000B83313B100F56A70184770478801002005
:10BF00000348D0F8DC3313B100F57370184770475D
:10BF1000880100200348D0F8003413B100F57C708C
:10BF200018477047880100200348D0F8243413B123
:10BF300000F214401847704788010020094B0A4A54
:10BF4000013800EBC00003EB80030848D3F8F83158
:10BF5000116B834214BF4FF480034FF400130B4363
:10BF600013637047880100200038024000600240DF
:10BF7000F0B401383B4C3C4E3C4D00EBC00C04EBA4
:10BF80008C0CDCF8F871AF4214BF4FF480054FF40D
:10BF90000015376B3D433563354DCCF81032DCF876
:10BFA000FC31CCF80812AB424FEAC0013FD005F596
:10BFB0008065AB423BD0A5F57A75AB4246D005F51E
:10BFC0008065AB4242D0A5F57A75AB4240D005F50D
:10BFD0008065AB423CD0A5F57A75AB4234D005F50F
:10BFE0008065AB4230D0A5F57A75AB4232D005F50D
:10BFF0008065AB422ED0A5F57A75AB422CD005F505
:10C000008065AB4228D0A5F57A75AB4226D005F500
:10C010008065AB4222D0A5F57A75AB4220D0154D94
:10C0200006F532563836B34218BF002500E0124DEF
:10C030000B1804EB8304C2F3871194F80D02C4F8C3
:10C040001852F0BC6EF03ABC0C4DF1E70C4DEFE726
:10C050000C4DEDE70C4DEBE70C4DE9E70C4DE7E738
:10C06000044DE5E7880100200038024000600240EE
:10C07000106002400080002820800010008000181E
:10C080000088001000802010208000200088002000
:10C09000008020200C4A0D4903469342D1F8E80065
:10C0A00010D0A2F5806293420CD002F580429342F8
:10C0B00008D002F58062934204D002F58062934278
:10C0C00018BF4008704700BF00040140E020002076
:10C0D000800AA0F58010522808D8054B034493F835
:10C0E000F4330D2B02D8034AD05670470020704716
:10C0F0008415080844C7080809494B6C10B5094C59
:10C1000043F480434B644022002104F50E6073F039
:10C11000A3FA4FF0FF33C4F82039C4F8233910BD17
:10C1200000380240E02000202DE9F04F83B09DF858
:10C1300030600192002867D087883E4CDFF8049178
:10C140002268B7FA87F7C7F11F0A4FF000458C46FF
:10C15000FD40194609EB8A0E374BCEF8E0C822EABB
:10C160000507276003EB0A078346656197F8C077E8
:10C17000FFF7D4F9304BDBF800100AF0FC0003EBBA
:10C18000860300F1804000F59C3001F13F4193F8B7
:10C19000D027D0F808C001F57E010AF003039B0008
:10C1A000C1F387214FF00F0E99400EFA03F32CEAEA
:10C1B0000303836083681943816023681F496FEA22
:10C1C000050808EA03032360636808EA0303636061
:10C1D000D1F8003C2B43C1F8003CA36808EA0303F4
:10C1E000A360E368102A08EA0303E3601AD002F1AF
:10C1F000804202F59E3213682B431360B944019AC2
:10C2000099F82039934202DC03B0BDE8F08F0C4B63
:10C2100089F82029D85DC2F3871103B0BDE8F04F3B
:10C220006EF04CBBA3682B43A360E3682B43E36031
:10C23000E4E700BF003C01408415080800300140DD
:10C240003CC70808E0200020F0B5002489B0CDE903
:10C250000344CDE905440DF10C0CC0E93D44C0E9AF
:10C260003F44C0F80441054600F5847EBCE80F0059
:10C27000AEE80F00CEF8004095F82131079444F263
:10C280003B36A5F84C610BB909B0F0BD1E09013E63
:10C29000052E03F00F032ED81D4F07EB4602B2F810
:10C2A000380540FA03F2D20725D5012202FA03F33A
:10C2B000013B1840374474F041F897F84435154A6B
:10C2C00000942946144D034405EBC3052620E8805D
:10C2D000234641F80C2F28462246FFF725FF0F4939
:10C2E000AA880868B2FA82F24FF00043D3400343B1
:10C2F0000B6009B0F0BD2946064B41F80C3F002306
:10C3000000931A461846FFF70FFF09B0F0BD00BFB3
:10C310008415080835B900087C260020003C01403F
:10C32000064A136851690B4003F00103536123B1BE
:10C33000034BD3F8E008036818477047003C0140FE
:10C34000E0200020064A136851690B4003F0020305
:10C35000536123B1034BD3F8E408036818477047CF
:10C36000003C0140E0200020064A136851690B4060
:10C3700003F00403536123B1034BD3F8E8080368C7
:10C3800018477047003C0140E0200020064A13682F
:10C3900051690B4003F00803536123B1034BD3F8F9
:10C3A000EC08036818477047003C0140E02000207B
:10C3B000064A136851690B4003F01003536123B11F
:10C3C000034BD3F8F008036818477047003C01405E
:10C3D000E0200020F8B50C4B1D685A69154005F4A3
:10C3E00078755D617DB1094F0126B5FA85F4C4F118
:10C3F0001F0407EB840306FA04F4D3F8E00803688B
:10C400009847A543F1D1F8BD003C0140E020002051
:10C41000F8B50C4B1D685A69154005F47C455D6103
:10C420007DB1094F0126B5FA85F4C4F11F0407EB6D
:10C43000840306FA04F4D3F8E00803689847A54398
:10C44000F1D1F8BD003C0140E0200020F0B50546E8
:10C4500083B0A0B307681D4B144607F13F4202F5B5
:10C460007E0203EB92230E4693F830056CF004FA3B
:10C47000A988B1FA81F3C3F11F03C3F3CC0207EB20
:10C48000820203F00703156A4FF00F0C9B009C40DB
:10C490000CFA03F325EA03031362136A1C431462C4
:10C4A000C6F30013C6F34112CDE900323846C6F395
:10C4B000810306F003026FF003FC03B0F0BD034BF1
:10C4C00093F82F056CF0D8F92B68FFDE8415080867
:10C4D00000B1BBE7704700BF2DE9F047684E06EB9F
:10C4E0000013D3F82849002C76D093F8307905460C
:10C4F0004FEA001838466CF0BFF907F01F027F09B9
:10C500000123032F03FA02F372D0042F6BD0022F02
:10C5100064D006EB0803013593F82C09FFF756F8B1
:10C52000EDB2824610B11223C571837106EB080388
:10C5300093F82D09FFF74AF8814610B11323C5710E
:10C54000837106EB080393F82E09FFF73FF80746BF
:10C5500010B11423C571837106EB0803504693F89C
:10C560002F594A212A46FFF7B3FF2A4648462A2177
:10C57000FFF7AEFF2A460A213846FFF7A9FF414BD5
:10C580009C423AD0404B9C4242D0404B9C424AD0C5
:10C590003F4B9C4252D03F4B9C425AD03E4B9C4218
:10C5A00062D0A38823F003031B041B0CA380238801
:10C5B00003F4415343F4457343F003032380A38BF7
:10C5C00023F400631B041B0C0722A383228223880D
:10C5D0009BB243F040032380BDE8F0872F4A516AA5
:10C5E0000B43536295E72D4A11690B43136190E7A2
:10C5F0002A4A116A0B4313628BE703F584335A6AA4
:10C6000042F480525A625A6A22F480525A62C8E74F
:10C6100003F500331A6A42F480421A621A6A22F45D
:10C6200080421A62BDE703F5FE331A6A42F4004203
:10C630001A621A6A22F400421A62B2E703F58233E0
:10C640005A6A42F400525A625A6A22F400525A62FA
:10C65000A7E703F568435A6A42F480125A625A6A9D
:10C6600022F480125A629CE703F564435A6A42F44A
:10C6700000125A625A6A22F400125A6291E700BF0D
:10C68000E02000200030014000380040003C004025
:10C690000034014000500140005401400038024085
:10C6A000431C00F067812DE9F04F00EB8003C74F7A
:10C6B000DA0087B057F802A081000546019107EB28
:10C6C000C303BAF1000F07D0D3E90249002C00F0F0
:10C6D0001D8194F9063013B107B0BDE8F08FB9F1B0
:10C6E000000F00F0818199F90630002BF4D1183247
:10C6F000B818DAF80480BB50691CC0E90133C36084
:10C700001523A371C9B21623E17189F8071089F8BE
:10C7100006309AF828006CF0AFF8B8F804302268B8
:10C72000A08823F440731B041B0CA8F80430D9F82C
:10C7300000301083B9F804201A8311212046FEF737
:10C74000EDFE11214846FEF7E9FE09264FF0330BB6
:10C750002CB906E1BBF1010B08D0FEF72BFB2268D8
:10C76000A188136919424FF00A00F3D051830520C4
:10C77000FEF720FB2368A2881A830520FEF71AFB28
:10C78000013EE3D1002C00F05181332603E0013E4D
:10C7900008D0FEF70FFB2268A188136919424FF0F9
:10C7A0000A00F4D051830520FEF704FBB9F1000F15
:10C7B00000F06981D9F80030B9F804205A830520C7
:10C7C000FEF7F8FA2368A2881A830520FEF7F2FA2A
:10C7D000D9F80030B9F804201A830520FEF7EAFAE8
:10C7E0002368A2881B691A4240F0C580019B2B4434
:10C7F00007EBC303997C1A7C002940F0C8802046CF
:10C800001221FFF723FE1221019B2B4407EBC303E8
:10C810005A7C4846FFF71AFE6D4B984500F051814F
:10C820006C4B984500F058816B4B984500F0658142
:10C83000019B2B4407EBC3034FF47A729C8AB8F830
:10C84000043023F440731B041B0CA8F80430B8F820
:10C8500000309BB243F00103A8F80030B8F8045050
:10C8600002A802FB04F425F03F0561F01DFD0499C8
:10C870005A4B2D04A3FB01232D0C45EA9345A8F840
:10C880000450B8F8002022F001021204120CA8F89B
:10C890000020534A980C944203467EDC6200B1FBB0
:10C8A000F2F292B20133042A38BF0422A8F82030F1
:10C8B000A8F81C20B8F800309BB243F00103A8F898
:10C8C0000030B8F8003023F4816323F002031B0426
:10C8D0001B0C4FF4804243F48063A8F80030A8F8A2
:10C8E0000820B8F8003023F080031B041B0CA8F8C4
:10C8F00000309AF82A0000216DF0E0FF9AF8290034
:10C90000002107B0BDE8F04F6DF0D8BFB9F1000FBE
:10C9100000F0088199F90630002B7FF4DDAE183263
:10C92000BB18DAF80480BC50C3E90144DC6016236C
:10C9300089F806306B1C89F807309AF828006BF0EC
:10C940009BFFB8F80430B9F8042023F440731B04AB
:10C950001B0CA8F80430D9F800301A83F1E6FEF772
:10C9600029FABBF1010B4FF00A00F8D10520FEF7C0
:10C9700021FA02E77047019BD9F800202B4407EB0E
:10C98000C30312699A7C002A00F0B1801A7C32211C
:10C990002046FFF75BFD322136E704EB4404B1FB90
:10C9A000F4F18AB2C1F30B0109B942F001020D4959
:10C9B0004FF4967300FB03F3A1FB03139B090133B0
:10C9C00042F40042A8F8203072E700BFE0200020C7
:10C9D0000054004000580040005C004083DE1B43D0
:10C9E000A0860100D34D62101832BB18DAF804801B
:10C9F00047F80290C3E90199C3F80C901523A3717D
:10CA0000431CE3719AF828006BF036FFB8F8043045
:10CA1000A28823F440731B041B0CA8F8043023687D
:10CA200011211A832046FEF779FD8EE6332401E0BA
:10CA3000FEF7C0F9013C4FF00A00F9D10520FEF7DE
:10CA4000B9F9B9F1000F63D0D9F80030B9F8042072
:10CA50005A830520FEF7AEF90520FEF7ABF9D9F8A9
:10CA60000030B9F804201A830520FEF7A3F9019BD2
:10CA70002B4407EBC3039A7C002A18BF32215A7C4F
:10CA800008BF1221C5E60520FEF794F92368A288A5
:10CA90001A830520FEF78EF90520FEF78BF923682F
:10CAA000A2881B691A4254D1019B2B4407EBC30394
:10CAB000997C1A7C00295BD020463221FFF7C6FC06
:10CAC000AAE603F5F2331A6A42F400121A621A6AED
:10CAD00022F400121A62ABE603F5F0331A6A42F44C
:10CAE00080021A621A6A22F480021A62A0E61A7C94
:10CAF00020461221FFF7AAFC85E603F5EE331A6AF9
:10CB000042F400021A621A6A22F400021A628FE6E4
:10CB10000520FEF74FF90520FEF74CF90520FEF73A
:10CB200049F979E61832BB18DAF8048047F8029020
:10CB3000C3E90199C3F80C909AF828006BF09CFEA9
:10CB4000B8F8043023F440731B041B0CA8F804301D
:10CB5000FBE5019B2B4407EBC30320469A7C002A8C
:10CB600018BF32211A7C08BF1221FFF76FFC53E671
:10CB700020461221FFF76AFC4EE600BF2DE9F8437C
:10CB80000746FDF755FDDFF84C8007EB87090446A3
:10CB900008EBC90542F20F7604E0FDF749FD001BE2
:10CBA000B0420ADC6B7E002BF7D108EBC90898F87D
:10CBB000180080F00100BDE8F883B8F85839013357
:10CBC00038469BB2A8F85839FFF76AFD0020BDE847
:10CBD000F88300BFE020002010B582B004468DF835
:10CBE00007300DF107036BF0DBFD08B902B010BD93
:10CBF0002046FFF7C3FF02B010BD00BFB0F1FF3FFA
:10CC000065D02DE9F04F022883B0044613DC314E85
:10CC1000984600EB800306EBC305DB00D5F804A0C3
:10CC20000093BAF1000F06D08946697E934601F061
:10CC3000FF02019219B1002003B0BDE8F08FFDF7AB
:10CC4000F7FC009B019A20334FEA4901C9B207461D
:10CC5000F018A9764FF0010C0C9985F81BB06A7793
:10CC600085F81EC0F150416085F81C8085F819C018
:10CC70002A76BAF8043099051DD4BAF80030DA05DE
:10CC800012D442F20F7504E0FDF7D2FCC31BAB4295
:10CC900013DCBAF800309B05F6D4BAF800309BB22A
:10CCA00043F48073AAF80030BAF804309BB243F41E
:10CCB0004073AAF804300120BEE7B6F858390133B2
:10CCC0009BB22046A6F85839FFF7EAFCB3E70020EC
:10CCD000704700BFE0200020F0B585692B6995F80A
:10CCE0004C211978012997B0044646D0022902D078
:10CCF000002017B0F0BD196A0029F9D162F07F0257
:10CD00008DF80F200DF10F0206920122CDE90712D6
:10CD1000CDE90A118DF824108DF838208DF84C20BB
:10CD20000F9112911491062204A9CDE90C12002052
:10CD30000021CDE9100105F11000EFF3118610225A
:10CD400082F312882A69126A002A3FD0089A06AF35
:10CD5000002A43D03A46D16914320029FBD11B6A1C
:10CD600063B3996839B99A4228D0196821B35B68CE
:10CD700099680029F7D01433F3E793F90460297D0B
:10CD800004AB009330460623FFF738FF0028AFD0EE
:10CD90003046FFF7F3FE0028AAD0BDF81010BDF80A
:10CDA0001220BDF8143049BA52BA5BBA0120E181B1
:10CDB0002282638217B0F0BDC3E90007F6B286F3A2
:10CDC00011882A69136A002BFCD1E6E706AAF6B29D
:10CDD0001A6286F31188FEF71DFDF2E73A46BEE7B8
:10CDE00070B5036990F84D211978012996B0044671
:10CDF00045D0022902D0002016B070BD196A002962
:10CE0000F9D162F07F029FED3A7B8DF80F200DF192
:10CE10000F0206920122CDE90712CDE90A118DF821
:10CE200024108DF838208DF84C200F911291149118
:10CE3000062204A9CDE90C128DED107B1030EFF322
:10CE40001185102282F312882269126A002A42D0C8
:10CE5000089A06AE002A46D03246D169143200291B
:10CE6000FBD11B6A7BB3996839B99A422BD01968F8
:10CE700039B35B6899680029F7D01433F3E793F965
:10CE80000450017D04AB009328460623FFF7B6FE4D
:10CE90000028B0D02846FFF771FE0028ABD0BDF8BF
:10CEA0001010BDF81220BDF8143049BA52BA5BBA5E
:10CEB0000120A4F8D010A4F8D220A4F8D43016B0E1
:10CEC00070BDC3E90006EDB285F311882269136ACB
:10CED000002BFCD1E3E706AA1A62EDB285F31188B4
:10CEE000FEF798FCF2E73246BBE700BFAFF30080E5
:10CEF0000000000000000000E0B500EB8003274EBA
:10CF000006EBC30256F833305D68AB8A84B09BB23F
:10CF10000393039B13F4706F1CBF01231376039BD1
:10CF200013F4E06F4FEA80070CD1AB8A074423F477
:10CF3000706306EBC7061B041B0C0022AB827276E3
:10CF400004B0E0BD2B8BAB8823F480631B041B0C67
:10CF5000AB80039B9A05E8D42B889B05E5D42B88EE
:10CF6000D9050FD52B88DA05FCD42B889BB243F466
:10CF700000732B802B889B05FCD40190FFF790FB5E
:10CF80000198D2E72B889BB243F400732B80AB88C7
:10CF900023F440731B041B0CAB80C6E7E020002089
:10CFA0000020A9E70120A7E70220A5E770B590F8C7
:10CFB00071301C09013C052C0FD81A4E06EB4402B7
:10CFC0000546B2F8380503F00F0340FA03F2D20722
:10CFD00003D595F87220012A01D0012070BD9A4036
:10CFE000013A1040264473F0A9F996F844350E4AE8
:10CFF000034402EBC30452F83320A388106918409D
:10D00000ECD0EB6E002285F8722093F821200221EB
:10D010002046FFF71BFA2A6E93899BB243F0080360
:10D020009381DAE7841508087C260020F8B50E4CB9
:10D0300094F8C8759FB104F5BA64C7F109070925CA
:10D04000013D0ED0A6683079FEF7C0FA217DF27955
:10D0500008B1FFF7FBF9AF4204F18C04F0D10120D5
:10D06000F8BDAB68FFDE00BF04000010094BD3F829
:10D070005C29D3F8601940F22A40002350604B62CB
:10D080000B889BB243F001030B80136843F001034C
:10D0900013607047E02000201D4B1E48196C1E4A8B
:10D0A00010B441F080510124196404625321FF241B
:10D0B000CA205462506251625B6FDB0085B017D4A6
:10D0C00016480423002102910290029A1A44029207
:10D0D000029A04331C2B1160F5D103910390039B3A
:10D0E0000393039B0E4A1A6005B05DF8044B70472A
:10D0F0000A4B002201920193019B0193019A084B74
:10D1000012689A42DCD105B05DF8044B704700BF4D
:10D110000038024000000E42002800405028004025
:10D12000316665422DE9F041046ED0F80880A3898C
:10D1300023F400531B0407461B0CA38143793D795C
:10D14000C3F38000190305F001061B0215F0020568
:10D150004FEA00304FEA860203F4806318BF42F0C2
:10D16000080203431A43238A9BB201F4005123F4BB
:10D1700040530B432382A38923F4B05323F00C03C1
:10D180001B041B0C1A43A281A38A23F440731B04C3
:10D190001B0C90B0A38201A861F086F86B4B9C42F7
:10D1A00005D003F580639C4201D0039B00E0049B03
:10D1B000A2896749A089120403EB83034CBF4FEA9D
:10D1C00048084FEA880803EB8303B3FBF8F3A1FB9D
:10D1D00003C252094FF0640C00040CFB12334FEAF7
:10D1E000021200F19A801B013233A1FB0313C3F337
:10D1F000431313439BB2238197F9380097F80580B6
:10D20000FEF7B9FA30B10368828818F0010F14BF35
:10D210001A835A8318F0080FA38A78D09BB243F080
:10D220000803A382A3899BB243F40053A381002E79
:10D230002FD0FE6B002E7DD00023CDE90833CDE941
:10D240000C33CDE90E33049306937B6C0193FB6D95
:10D250000293FB6805937B6903934FF480714FF44D
:10D260008033CDE90A1330464FF48063079361F0B1
:10D2700067F801A9304661F0F9F8336843F001031B
:10D280003360A38A9BB243F04003A38273689BB2CE
:10D290007B65002D33D03E6C002E46D0BB6C0193D5
:10D2A000BB6D02933B690593402304934FF4803395
:10D2B000002530460B934FF480630793CDE9085562
:10D2C000CDE90C55CDE90E55039506950A9561F00B
:10D2D00037F801A9304661F0C9F8736943F080035B
:10D2E0007361336843F0160333607560A38A9BB2A1
:10D2F00043F08003A382E36843F04003E360A38923
:10D300009BB243F40053A38110B0BDE8F08123F039
:10D3100008031B041B0CA38284E7DB003233A1FB50
:10D320000313C3F34213134364E7E36843F080033A
:10D33000E360E0E74FF6DF732380E36843F0200308
:10D34000E360E36843F01003E360A2E700100140EC
:10D350001F85EB51BFF34F8F0549064BCA6802F496
:10D36000E0621343CB60BFF34F8F00BFFDE700BF08
:10D3700000ED00E00400FA0508B572B6FFF7EAFF19
:10D3800000B583B00D49002200920091009B0C3340
:10D390000093009B1B68012B02D003B05DF804FBD7
:10D3A00001920191019B06490C330193019B1A6084
:10D3B0000B6883F308884B689847FEE750280040C5
:10D3C0000000FF1F38B5FFF767FEFFF7D9FF012008
:10D3D00061F0DEF86E4A936823F00303936093686C
:10D3E00013F00C0FFBD113686949A0B943F0010396
:10D3F000136041F2883302E0013B00F0C7800A6805
:10D400009507F9D5634C00220823C4F86429C4F8B1
:10D41000683902251EE043F48033136041F28833FB
:10D4200002E0013B00F0B2800A689403F9D5594C40
:10D43000594B5A4DB0FBF5F5B0FBF3F0B5EB400F8F
:10D4400018BF28464FF48003C4F86439C4F868094B
:10D45000B5FBF0F50220C4F86C5961F099F8032887
:10D460000DD84F4B03EBC0039988DA88C4F87419C0
:10D470005B88C4F87829B3FBF5F3C4F87039444BE2
:10D4800048491A6C42F080521A640A6842F44042D9
:10D490000A609A689A609A6842F400429A609A68B0
:10D4A00042F4A0529A60D4F86419D4F868290A4367
:10D4B000D4F8701942EA8112D4F8781942EA01626C
:10D4C000D4F874194908013942EA01425A601A68CD
:10D4D00042F080721A601A689201FCD5324A40F21A
:10D4E00005711160996821F003019960996841F014
:10D4F0000201A2F580629960936803F00C03082B87
:10D50000FAD12A49D823B3FBF5F39B0143F000532A
:10D510000120C2F884308866FBF776FA244D1C4B54
:10D52000244AEA60596F244AC4F87C19AA605A6BED
:10D53000224922F080025A635A6F42F080725A6781
:10D540001A6B42F4CE021A635A6B5A639A6B9A634F
:10D550001A6C0A431A64596C194A0A435A64FCF754
:10D5600071F8184AD4F8E830A2FB03239B09013B69
:10D57000B3F1807F09D24FF0E022F0205361002107
:10D58000072385F823009161136138BD014CC5E77D
:10D5900000380240E020002080841E0040420F003E
:10D5A000601D080800700040003C02400000474237
:10D5B00000ED00E00005FA0500000020FFC9FE367E
:10D5C000335F0700D34D621030B5154C154D85B053
:10D5D0000139002389B2A042ADF80C30ADF8063015
:10D5E0008DF80E300291D5F8E8300FD00E49884200
:10D5F0000CD001F58041884208D001F58061884255
:10D6000004D001F58061884218BF5B08B3FBF2F3D8
:10D6100001A9013BADF8043061F0AEF805B030BDB2
:10D6200000040140E02000200000014030B5046803
:10D630002A482B4D85B00139002389B28442ADF8C8
:10D640000C30ADF806308DF80E300291D5F8E83088
:10D650000FD024498C420CD001F580418C4208D077
:10D6600001F580618C4204D001F580618C4218BFC5
:10D670005B08B3FBF2F301A9013B2046ADF804308F
:10D6800061F07AF82288184892B242F00102002331
:10D6900000F2FC71228051F83320944208D001330B
:10D6A0000E2BF8D1002005B0BDE83040FBF7B2B832
:10D6B00000EBC30090F801482046FBF7ABF81B2CA9
:10D6C00005D02E2C08BF2C20EDD005B030BD192080
:10D6D00005B0BDE83040FBF79DB800BF0004014035
:10D6E000E0200020000001408415080810B5EFF389
:10D6F0001184502383F31288036823B3436203F138
:10D70000040C00F1100200F1200E52F8043F1BB18E
:10D71000CCF8003003F1040C9645F6D10023CCF888
:10D720000030E3B283F31188436A2BB18B899BB23B
:10D7300043F001038B8110BD8B8923F001031B048F
:10D740001B0C8B8110BD00F1240CDAE770B4056866
:10D75000AB0AA3F58013522B28D81C4C234493F812
:10D76000F4330D2B22D84079022420FA04F603EB7F
:10D770008300B44003EB40001FFA84FC3044B9B18D
:10D78000AC89134EA4B244EA0C0406EB800CCCF82E
:10D79000F010CCF80021AC810E4803EB830203EBC0
:10D7A0004203294600EB830070BC9FE770BC7047C2
:10D7B000AC89A4B224EA0C04AC81054C04EB8006CD
:10D7C000C6F8F010C6F80021E6E700BF8415080887
:10D7D000E0200020CC21002001490248FBF760BF77
:10D7E000CC2100200000014010B5064C064804F191
:10D7F000EC01FBF755FF04F51E710448BDE810402D
:10D80000FBF74EBFE0200020000001400044014033
:10D8100002494FF08040FBF743BF00BFF8210020D2
:10D8200001490248FBF73CBF2422002000040040CD
:10D8300001490248FBF734BF502200200008004095
:10D8400001490248FBF72CBF7C220020000C00405D
:10D8500001490248FBF724BF0023002000040140D7
:10D8600010B5064C064804F50871FBF719FF04F5DE
:10D870003F710448BDE81040FBF712BFE0200020D4
:10D8800000040140001C004001490248FBF708BFAA
:10D890002C2300200040014001490248FBF700BF53
:10D8A000842300200048014001490248FBF7F8BEEC
:10D8B000B02300200018004001490248FBF7F0BEE9
:10D8C00008240020002000402DE9F0411348144DA9
:10D8D0004FF41A72002171F0BFFE4FF00008A5F658
:10D8E0006C07A5F1700440F2222655F82810002399
:10D8F00054F8332091420BD001330E2BF8D1002085
:10D9000008F107086AF0B8FFB045EED1BDE8F08134
:10D9100007EBC30393F80008F2E700BFCC21002017
:10D92000F01D080810B50C2935D8DFE801F0913456
:10D93000343463343434073434343500038C54883D
:10D94000B2F80CE023F480731B041B0C0384038CDB
